:020000040800F2
:1000000000050020E9050008052C0008092C00085F
:100010005D2C0008092C0008312C0008EB050008B5
:10002000EB050008EB050008EB050008C13E0008E1
:10003000EB050008EB050008EB050008EB050008E0
:10004000EB050008EB050008EB050008EB050008D0
:10005000EB050008EB0500083D5400086954000852
:1000600095540008A9540008D5540008EB05000871
:10007000EB050008EB050008EB050008EB050008A0
:10008000EB050008EB050008EB0500081D2B000838
:10009000EB050008812B0008EB050008E954000877
:1000A000EB050008EB050008EB050008EB05000870
:1000B000EB050008EB050008EB050008EB05000860
:1000C000EB050008EB050008EB050008EB05000850
:1000D000EB050008C1550008EB050008EB0500081A
:1000E0004D550008EB050008EB050008EB0500087E
:1000F000EB050008EB050008EB050008EB05000820
:10010000EB050008EB050008D5550008EB050008D5
:10011000EB050008EB050008EB050008EB050008FF
:10012000EB050008EB050008EB050008EB050008EF
:10013000EB050008EB050008EB050008EB050008DF
:10014000EB050008EB050008EB050008EB050008CF
:10015000EB050008EB050008EB050008EB050008BF
:10016000EB050008EB050008EB050008EB050008AF
:10017000EB050008EB050008EB050008EB0500089F
:10018000EB050008EB050008EB050008EB0500088F
:10019000EB050008EB050008EB050008EB0500087F
:1001A000EB050008EB050008EB050008EB0500086F
:1001B000EB050008EB050008EB050008EB0500085F
:1001C000EB050008EB050008EB050008EB0500084F
:1001D000EB050008EB050008EB050008EB0500083F
:1001E000EB050008EB050008EB050008EB0500082F
:1001F000EB050008EB050008EB050008EB0500081F
:10020000EB050008EB050008EB050008EB0500080E
:10021000EB050008EB050008EB050008EB050008FE
:10022000EB050008EB050008EB050008EB050008EE
:10023000EB050008EB050008EB050008EB050008DE
:10024000EB050008EB050008EB050008EB050008CE
:10025000EB050008EB050008EB050008EB050008BE
:10026000EB050008EB050008EB050008EB050008AE
:10027000EB050008EB050008EB050008EB0500089E
:10028000EB050008EB050008EB050008EB0500088E
:10029000EB050008EB050008EB050008EB0500087E
:1002A000811A000800000000D0400B1CD1409C4681
:1002B000203AD34018435242634693401843704754
:1002C0009140031C90409C46203A9340194352426F
:1002D0006346D3401943704753B94AB9002908BF50
:1002E00000281CBF4FF0FF314FF0FF3000F07AB90B
:1002F000ADF1080C6DE904CE00F006F8DDF804E07D
:10030000DDE9022304B070472DE9F0478C460D4625
:100310000446089E002B51D18A4217466DD9B2FA85
:1003200082FEBEF1000F0BD0CEF1200C01FA0EF5CB
:1003300020FA0CFC02FA0EF74CEA050C00FA0EF457
:100340004FEA174A250CBCFBFAF81FFA87F90AFB9B
:1003500018CC45EA0C4508FB09F3AB420AD9ED1964
:1003600008F1FF3280F02381AB4240F22081A8F1F6
:1003700002083D44ED1AA4B2B5FBFAF00AFB105591
:1003800044EA054400FB09F9A14509D9E41900F143
:10039000FF3380F00A81A14540F2078102383C44D6
:1003A000A4EB090440EA08400021002E61D024FAA1
:1003B0000EF4002334607360BDE8F0878B4207D9E8
:1003C000002E54D0002186E821000846BDE8F087C1
:1003D000B3FA83F1002940F08E80AB4202D382420F
:1003E00000F2FA80841A65EB03050120AC46002E6A
:1003F0003FD086E81010BDE8F08712B90127B7FB9F
:10040000F2F7B7FA87FEBEF1000F34D1EB1B3A0CBE
:100410001FFA87FC0121B3FBF2F8250C02FB18330D
:1004200045EA03450CFB08F3AB4207D9ED1908F187
:10043000FF3002D2AB4200F2D1808046ED1AA3B267
:10044000B5FBF2F002FB105543EA05440CFB00FC3F
:10045000A44507D9E41900F1FF3302D2A44500F204
:10046000B8801846A4EB0C0440EA08409DE73146EA
:100470003046BDE8F087CEF1200405FA0EF307FA06
:100480000EF720FA04F83A0C25FA04F448EA0308B7
:10049000B4FBF2F14FEA184502FB11441FFA87FC46
:1004A00045EA044501FB0CF3AB4200FA0EF409D90E
:1004B000ED1901F1FF3080F08A80AB4240F2878075
:1004C00002393D44EB1A1FFA88F5B3FBF2F002FB48
:1004D000103345EA034500FB0CF3AB4207D9ED1995
:1004E00000F1FF386FD2AB426DD902383D44EB1AB0
:1004F00040EA01418FE7C1F1200722FA07F88B405B
:1005000005FA01F448EA030320FA07FE4FEA134C08
:10051000FD404EEA040EB5FBFCF94FEA1E440CFB0D
:1005200019551FFA83F844EA054509FB08F4AC4263
:1005300002FA01F200FA01FA08D9ED1809F1FF30C8
:1005400043D2AC4241D9A9F102091D442D1B1FFA27
:100550008EFEB5FBFCF00CFB10554EEA054400FB8B
:1005600008F8A04507D9E41800F1FF3529D2A045C5
:1005700027D902381C4440EA0940A4EB0804A0FB38
:1005800002894C45C6464D4615D312D056B1BAEB3A
:100590000E0364EB050404FA07F7CB401F43CC407D
:1005A000376074600021BDE8F0871846F8E6904691
:1005B000E0E6C245EAD2B8EB020E69EB030501386A
:1005C000E4E72846D7E7404691E78146BEE7014683
:1005D00078E702383C4445E7084608E7A8F10208F6
:1005E0003D442BE7704700BF02E000F000F8FEE753
:1005F00072B6394880F30888384880F3098838484B
:100600004EF60851CEF20001086040F20000CCF234
:1006100000004EF63471CEF200010860BFF34F8F38
:10062000BFF36F8F40F20000C0F2F0004EF6885129
:10063000CEF200010860BFF34F8FBFF36F8F4FF012
:100640000000E1EE100A4EF63C71CEF200010860A7
:10065000062080F31488BFF36F8F04F011FC04F0C0
:100660009BFC4FF055301F491B4A91423CBF41F85B
:10067000040BFAE71C49194A91423CBF41F8040BAC
:10068000FAE71A491A4A1B4B9A423EBF51F8040B2B
:1006900042F8040BF8E700201749184A91423CBF82
:1006A00041F8040BFAE704F02FFC04F0E9FC144CC9
:1006B000144DAC4203DA54F8041B8847F9E700F004
:1006C00041F8114C114DAC4203DA54F8041B884731
:1006D000F9E704F017BC0000000500200025002009
:1006E0000000000800010020000500203060000824
:1006F0000025002088250020882500201C5400208B
:10070000A0020008A4020008A4020008A402000835
:100710002DE9F04F2DED108AC1F80CD0D0F80CD097
:10072000BDEC108ABDE8F08F002383F311882846C2
:10073000A047002004F0A0F8FEE703F0BBFF00DFB5
:10074000FEE70000F8B5374C7A2300252370052317
:10075000A57063701E23E57025716571A571E57143
:1007600025726572A372E57201F0B4FA20B10E230E
:1007700025726572A372E57204F008FB064604F068
:1007800079FB054680BB284B9E422DD001339E420B
:100790002DD026F0FF02254B9A422BD12C4642F257
:1007A0001077F0B200F092FD00F0CEFF00F094FD63
:1007B00058B31FBB2DB11E4B9E4202D0002404F043
:1007C00051FB002004F0ECFA14B1002400F07AF898
:1007D00001F044FB00F0DCFF01F0C4F9204600F01A
:1007E00017F900F06FF8F9E72C460027DCE7074619
:1007F0000124D9E7044641F28837D5E775B90020CE
:100800004FF47A7404F0CCFAE0E715B1084B9E423D
:10081000D4D10020002404F0C3FAD9E7044B9E424F
:10082000CCD1ECE788250020010007B0000008B01B
:10083000263A09B008B501F037F9A0F12003584273
:10084000584108BD054B07B51B88022101A8ADF82A
:10085000043001F077F903B05DF804FB7858000824
:1008600010B5202383F311881248C3680BB104F03C
:100870007DF80023104A4FF47A710E4804F038F8DE
:10088000002383F311880D4C236813B12368013BC7
:100890002360636813B16368013B6360084B1B7896
:1008A00033B9636823B9022001F056FA322363603A
:1008B00010BD00BF9425002061080008B02600206C
:1008C000A8250020484B49492DE9F04153F8042F51
:1008D000013201D1BDE8F0818B42F7D1444D454B47
:1008E0002A689A427ED9444B9B6803F1006303F562
:1008F00000339A4276D204F089FA04F09BFA002081
:1009000001F04CF902203D4B187001F017FA3C4BF6
:10091000D3F8E8200022C3F8E820D3F81011C3F878
:100920001021D3F81011D3F8EC10C3F8EC20D3F851
:100930001411C3F81421D3F81411D3F8F010C3F82C
:10094000F020D3F81811C3F81821D3F8183172B673
:100950002C4B2D490B601C682D68BFF34F8FBFF3E4
:100960006F8F2A4BC3F88420BFF34F8F5A6922F44C
:1009700080325A61BFF34F8FD3F8802043F6E07E78
:10098000C2F3C906C2F34E32B707520102EA0E089B
:1009900038463146013948EA000C00F14040B1F1D7
:1009A000FF3FC3F874C2F5D1203A12F1200FEDD108
:1009B000BFF34F8FBFF36F8FBFF34F8FBFF36F8FB7
:1009C0005A6922F400325A610022C3F85022BFF360
:1009D0004F8FBFF36F8F202383F31188A54684F3D5
:1009E00008882847BDE8F081FCFF01081C000208C8
:1009F00004000208FFFF010888250020A825002028
:100A0000004402580000020808ED00E000ED00E09C
:100A10002DE9F04F99B0B34C2022FF21019010A88E
:100A2000A66801F0BDF9B04AA3461378A3B9012125
:100A3000AE481170C360202383F31188C3680BB1E3
:100A400003F094FF0023AA4A4FF47A71A74803F0F9
:100A50004FFF002383F31188019B13B1A54B019A2B
:100A60001A600023A44AA349019F99461C461D46CB
:100A7000984613704B600292012001F05FF9002F3D
:100A800000F012829B4B1B68002B40F00D8219B0C6
:100A9000BDE8F08F0220FFF7CDFE002840F0FB817B
:100AA000019BB9F1000F08BF1F46944B1B88022120
:100AB0000BA8ADF82C3001F045F8DDE74FF47A7063
:100AC00000F0F2FF031E0393EADB0220FFF7B2FE01
:100AD00082460028E4D0039B581E042800F2DD81E2
:100AE000DFE800F0030E1114170018A805230421F5
:100AF00040F8343D01F026F854464FF0000856E027
:100B000004217848F6E704217D48F3E704217D4875
:100B1000F0E71C242046043401F042F804210B9035
:100B20000BA801F00FF82C2CF4D1E5E7002DB7D07D
:100B3000002CB5D00220FFF77DFE0546002800F00E
:100B4000AF8101206C4C01F029F84FF00009022020
:100B5000207001F0F3F85FFA89FA504601F02EF8A0
:100B6000074658B1504609F1010901F037F800284D
:100B7000F1D12C46A9460027634B97E701233E4657
:100B80000220237001F0CCF8DBF808309E4206D238
:100B9000304601F005F80130EBD10436F4E70026C9
:100BA000029BA9462C461E703746524B5E6001F0F0
:100BB0004BF915B1002C18BF0027FFF743FE5BE788
:100BC000002D3FF46DAF002C3FF46AAF0220029B72
:100BD000187001F0B3F8322000F066FFB0F1000A9F
:100BE000C0F25E811AF0030540F05A8106EB0A0359
:100BF000DBF80820934200F25381BAF5807F00F2BF
:100C00004F8155450DDA4FF47A7000F04DFF049096
:100C1000049B002BC0F24481049B3C4AAB54013539
:100C2000EFE7C820FFF706FE0546002800F03881F0
:100C30001F2E11D8C6F1200410AB26F00300334953
:100C40005445184428BF5446224601F097F82246DE
:100C5000FF212E4801F0A4F84FEAAA0A2B4930469A
:100C60005FFA8AF201F0A4F80446002800F01A8125
:100C700006EB8A0605469AE70220FFF7DBFD00280F
:100C80003FF40EAF00F0C4FF00283FF409AF4FF06F
:100C9000000A5346DBF8082092451CD2BAF11F0F18
:100CA00012D8109A01320FD02AF0030218A90A4470
:100CB00052F8202C0B92184604220BA90AF1040AC0
:100CC00002F02CF90346E5E75046039300F068FF75
:100CD000039B0B90EFE718A8042140F84C3D00F06F
:100CE00031FF64E788250020AC26002094250020F1
:100CF00061080008B0260020A82500207A580008C6
:100D00008C250020902500207C580008AC25002070
:100D100018A80023642140F8343D00F0EFFE0028BD
:100D20007FF4BEAE0220FFF785FD00283FF4B8AE89
:100D30000B9800F065FF18AB43F8480D04211846E6
:100D4000CDE718A80023642140F8343D00F0D6FE1A
:100D500000287FF4A5AE0220FFF76CFD00283FF4C9
:100D60009FAE0B9800F04EFF18AB43F8440DE5E73B
:100D70000220FFF75FFD00283FF492AE00F058FF1D
:100D800018AB43F8400DD9E70220FFF753FD0028C8
:100D90003FF486AE0BA9142000F050FF824618A83D
:100DA000042140F83CAD00F0CDFE51460BA896E77B
:100DB000322000F079FEB0F1000AFFF671AE1AF0B1
:100DC000030F7FF46DAE0AEB0803DBF808209342B3
:100DD0003FF666AE0220FFF72DFD00283FF460AE1F
:100DE0002AF0030AC244D0453FF4E1AE404608F180
:100DF000040800F0D5FE04210A900AA800F0A2FE23
:100E0000F1E74FF47A70FFF715FD00283FF448AE84
:100E100000F0FEFE00283FF4AFAE109B01330CD073
:100E2000082210A9002000F0C3FF00283FF4A4AE60
:100E30002022FF2110A800F0B3FFFFF703FD39487F
:100E400003F020FD23E6002D3FF42AAE002C3FF4F2
:100E500027AE18A80023642140F8343D00F04EFE70
:100E6000824600287FF41CAE0220FFF7E3FC002836
:100E70003FF416AE0390FFF7E5FC41F28830574689
:100E800003F000FD0B9800F0F5FF00F0DDFF039B81
:100E90001C461D46F0E5054689E64FF00008FFE5D3
:100EA0002546FDE52C4667E6002000F0FDFD049098
:100EB000049B002B01DA00F0AFFC049B002BFFF633
:100EC000DEAD012000F02CFF049B213B122B3FF6EE
:100ED000D3AD01A252F823F0950A0008BD0A00081C
:100EE0002D0B0008790A0008790A0008790A000821
:100EF000C10B0008B10D0008790C0008110D0008A5
:100F0000430D0008710D0008790A0008890D0008DA
:100F1000790A0008030E0008AF0B0008790A0008E0
:100F2000470E0008A0860100094949F269000B68D4
:100F30009AB21B0C00FB0233064A0B6044F250616C
:100F4000136898B21B0C01FB0030106080B2704730
:100F5000042500200025002010B5002110220446A1
:100F600000F01EFF034B03CB206061601868A06097
:100F700010BD00BF00E8F11FF0B51F4CBBB001F081
:100F800089FEA368C31AF92B2FD906AD2346A060AA
:100F900028220021284602F04BFD04F10E0000F04B
:100FA000F7FE0023C6B2591D5F1CDBB2C900B34275
:100FB00007DA0E3308222846234402F039FD3B4667
:100FC000F1E70123207BC1F3CF01049503930823AC
:100FD000059101460293094B094801933023009380
:100FE00003A3D3E9002302F0F5FA3BB0F0BD00BF44
:100FF00078F6339F93CACD8D984B0020A54B0020E7
:10100000F036002038B50B4B0446036041F23C0338
:10101000C21812793AB9C5582DB1284601F03EFEE2
:10102000284604F01FFB04F58150083001F036FE1D
:10103000204638BD5C5A000870B50D4614461E4661
:1010400002F06EFA50B9022E0ED1012C0CD112A36F
:10105000D3E90023C5E90023012070BD052C14D07D
:1010600003D8012C09D0002070BD282C09D0302CC9
:10107000F9D10BA3D3E90023ECE70BA3D3E90023B9
:10108000E8E70BA3D3E90023E4E70BA3D3E90023AC
:10109000E0E700BFAFF30080401DA12026812A0BAE
:1010A00078F6339F93CACD8D9E6AC421818A46EE1D
:1010B00026417272DF25D7B7F017304A39059E56A0
:1010C00038B50D460446034620222846002102F08A
:1010D000AFFC227923462846032A4FF0200128BF7F
:1010E000032203F8042F022202F0A2FC62792346B5
:1010F0002846072A4FF0220128BF072203F8052FB0
:10110000032202F095FCA27923462846072A4FF0D5
:10111000250128BF072203F8062F032202F088FCCE
:10112000284604F108031022282102F081FC38200F
:1011300038BD00002DE9F04FADF5017D40F2791288
:1011400080460F4621AE0EAD00210DF15A09304602
:1011500000F026FE48220021284600F021FE01F082
:1011600099FD4FF47A72574BB0FBF2F0186093E898
:10117000070001232B74002385E807000DF15A00B6
:101180006B74FFF7E9FE05234F4985F820307A2379
:1011900085F8213007AB184604F016FB19222864A5
:1011A0003146284685F83C20FFF78AFF12AB0446FB
:1011B00001460822304602F03BFC08220DF14903AB
:1011C0003046A11804F1880A02F032FC0DF14A03FE
:1011D000082204F11001304604F5847B02F028FC5B
:1011E00013AB202204F11801304602F021FC14ABAD
:1011F000402204F13801304602F01AFC16AB0822F6
:1012000004F17801304602F013FC0DF15903082275
:1012100004F18001304602F00BFC51460AF1080A45
:101220004B460822304609F1010902F001FCD34582
:10123000F3D104F588744FF000091BAB082259461E
:10124000304602F0F5FB95F834304B4510D84FF09E
:10125000000995F83C304B4515D92B6C21460822E6
:1012600030464B44083402F0E3FB09F10109F0E792
:10127000AB6B2146082230464B44083402F0D8FBC1
:1012800009F10109DFE7E31DF97E04961937C3F37D
:10129000CF0340460593002303937B780197029385
:1012A0000123009305A3D3E9002302F093F90DF580
:1012B000017DBDE8F08F00BFAFF300809E6AC421BE
:1012C000818A46EEB826002090590008014B18701C
:1012D000704700BFE4260020304BF0B51C7B85B082
:1012E00034B10E222E4B1A810024204605B0F0BDE9
:1012F0002C4A02AB1068516803C308232A492B48C3
:101300000DEB030204F0F4F9054630B90A22244B30
:1013100027481A8101F06CFCE6E70169B1F5F01F7E
:1013200006D90B221E4B23481A8101F061FCDCE731
:10133000438B40F27A52934207D00C20184908811F
:1013400019461D4801F054FCCFE71C4A024402F143
:1013500010039942E5D3103920468E1A134901F043
:10136000DDFD05F1180107463246204601F0D6FDA5
:10137000AB689F4202D1EB6898420AD00D22084B1D
:101380001A813B4600900E48EA68A96801F030FCDB
:10139000AAE70C48012401F02BFCA6E7984B00209B
:1013A000B826002080580008DCFF1D00000002085D
:1013B0008858000894580008A65800080800FEF74E
:1013C000C4580008ED5800082DE9F04FADB0804634
:1013D0000E4606AF02F0A4F8044600286AD1337E18
:1013E000022B18D1F38A012B15D101F053FC814651
:1013F000FFF79AFD4FF4C87309F51679C04DB0FB9D
:10140000F3F202FB1300F37E19FA80F028608BB927
:101410000022BC4B1A709C37BD46BDE8F08F3B1DC7
:1014200008224FEAC90130461C44002300944C4670
:1014300002F064F9B38A5FFA84F9013BA3420BD945
:1014400004F10109B9F1110FE9D1AF4B4FF4A171CA
:10145000AE4AAF4804F008F907F11400FFF77CFD2D
:10146000224607F11401381D04F032F90346002822
:10147000CED1B9F1100F07D0A24B83F800902B68A2
:10148000A3F516732B60C6E707F19802014602F830
:10149000950D30460092072202F030F9F9787F2945
:1014A00004DD9C4B40F25911984AD2E7404602F0C5
:1014B0001BF8B0E7F38A052B00F0348106D8012B26
:1014C000A9D131464046FFF735FEA4E7282B3AD094
:1014D000302BA0D1737EE9468F4C0133627BDBB2A7
:1014E000934240F00581F27E237B9A4240F00081D6
:1014F00007F198034FF0000A1022304623F884AD1C
:1015000051460093012302F0F9F8B58A023DADB2CD
:10151000EB1C23F003030A3323F00703ADEB030DA9
:101520000DF1180853460AF1010A991C9BB29D421D
:101530004FEAC10171DD4344082230460093002385
:1015400002F0DCF8EEE7B38A013B9BB2C92B3FF611
:1015500062AF714D2022FF21704800F021FC2C7BEE
:101560004CBB05F10C03082221463046009323466C
:1015700002F0C4F8B38A04F10109E4B2013B4FEA76
:10158000C9019C4209DA0E340023082230462C445B
:1015900000944C4602F0B2F8ECE700230022C5E9C3
:1015A00000230023AB6085F8D730C5F8D8302B7BFB
:1015B0000BB9F37E2B73002407F114053B1D0822A1
:1015C000214628467C60BC60FC6002F031FA3B7A20
:1015D00004F10109A3424FEAC90107D9FB680822B7
:1015E000284623444C4602F023FAF0E7C1F3CF012A
:1015F0000023F07E19360591049501460393404679
:10160000737801960293282300933BA3D3E9002328
:1016100001F0E0FFFFF7B0FCFDE694F8D70000F022
:10162000CDFAD4F8D83082461BB994F8D70000F030
:10163000D5FAD4F8D8302B449A4504D294F8D70080
:10164000013000F0CBFA4FEA950B0026B1B25945B4
:101650001BDA94F8D73088007BB9D4E9002312183C
:1016600043EBE073002B08BF202A06D258F8213044
:101670002A4A42F821300136E8E7236808EB0001E6
:101680000122184400F094FBF5E7D4E90023D4F8D4
:10169000D860521994F8D7002E4443F10003C4F8DF
:1016A000D860C4E9002300F089FA86420AD394F88E
:1016B000D730013384F8D730D4F8D830A3EB0A03FD
:1016C000C4F8D830FF2D0CDC002008221349207309
:1016D00000F06EFB00F09CFAFFF7FEFD08B1FFF78B
:1016E000F1F823680E4A9B0A013313810023A3609B
:1016F000CD4690E6AFF3008026417272DF25D7B762
:10170000EC360020E9360020FC580008AC590008EF
:101710005559000877590008984B0020C42600202E
:10172000B8260020BFF34F8F0549064BCA6802F464
:10173000E0621343CB60BFF34F8F00BFFDE700BFF4
:1017400000ED00E00400FA0508B54FF000530C4A24
:10175000196891420BD1597D0A4A0B481170C92270
:101760001B7D0E30094900F8023C00F007FBE02227
:1017700000214FF00050BDE8084000F011BB00BF51
:101780009AAD44C5E4260020984B002016000020A6
:1017900037B50223174D0122174918486B7100F025
:1017A00085FE002316494FF4805216480193164BCC
:1017B0000093164B01F062FE154B197811B11148D8
:1017C00001F092FE01F066FA0446FFF7ADFB4FF41C
:1017D000C87304F51674B0FBF3F202FB13000D4B53
:1017E00014FA80F0186003F045FB08B10F232B8139
:1017F00003B030BDB826002040420F00183700204B
:10180000E8260020F036002039100008C91300082F
:10181000E4260020EC3600202DE9F04F8C4C93B0EC
:101820008C4E0027DFF84C82204601F01FFF024655
:1018300068B300250146DFF840920E958DF84450BC
:101840000F951095037B8DF844300FAB51F8040FC2
:10185000496803C3136843F000430E9301F01CFA78
:1018600082190095404641EB07030EA900F030FBBA
:10187000A84205DD204601F0FDFE89F80050D3E7BF
:1018800099F80030072B46DC013389F8003000233B
:101890000BAD4FF000084FF00009DFF8D8A1DFF8DA
:1018A000DCB10A938DF834300B936B60002612AADA
:1018B000012707A902F82B6D334650468DF81C709E
:1018C000CDE9008901F0CCF89DF81C303BB3DBF882
:1018D0001430314610220EA883F00203CBF81430E6
:1018E00000F05EFA0DF11E0308AA0AA9504600F0A6
:1018F000CBFC0FAB95E8030083E803009DF8343080
:101900000EA920468DF844300A9B0E93DDE908238A
:1019100002F0F4F8CAE7204601F0ACFEB7E7204633
:1019200001F0FEFD0546002842D14B4E01F0B2F910
:10193000336898423CD301F0ADF98046FFF7F4FAE2
:101940004FF4C87308F516788DF82850B0FBF3F201
:1019500002FB130018FA80F03060404E96F80080C9
:10196000B8F1000F01D18DF82870C8F110050EA84C
:10197000FFF7F2FA0EABEDB20DF1290003EB08010F
:10198000062D28BF06252A46013500F0F7F90AABD7
:1019900004952046039318230293314B01930123AE
:1019A000009327A3D3E9002301F0BCFD002333708B
:1019B00001F070F92B4A2C4D1368C31AB3F57A7FE6
:1019C00030D3106001F068F902460B46204601F062
:1019D00057FE204601F0A4FD20B32B7B0EAF234E13
:1019E000002B14BF03230223737101F053F94FF44A
:1019F0007A733946B0FBF3F030603046FFF760FB96
:101A00001823073003970293194BC0F3CF000193BB
:101A100040F255130490204600930BA3D3E9002312
:101A200001F080FD2B7B0BB1FFF7A6FA2B7B002B7F
:101A30007FF4F6AE13B0BDE8F08F00BFAFF30080C7
:101A4000401DA12026812A0BF1C6A7C1D068080F2E
:101A5000F036002040420F00EC360020E93600202E
:101A6000E8360020784C0020984B0020B826002053
:101A70007C4C0020183700207D4C002000040258C8
:101A800010B5064C0021204600F03EFC2046044ADA
:101A90000449BDE8104003F0DFBD00BF1837002047
:101AA000D44C002005100008114B37B51A780024DB
:101AB000014601328DF80740D2B2012A11D80D48F3
:101AC000012203681D6A4FF47A734B430DF107013D
:101AD000A847012805D1084B9DF807001C7003B0EA
:101AE00030BD4FF4FA7002F0CDFE4FF0FF30F6E754
:101AF00008250020584D0020C44C002038B50E4B5E
:101B000005461A780132D2B2012A0ED80B480422B7
:101B100003681C6A4FF47A734B432946A047042894
:101B200003D10020064B187038BD4FF4FA7002F054
:101B3000A9FE4FF0FF3038BD08250020584D002089
:101B4000C44C002030B4054C0A46014623682046A8
:101B5000DD69034BAC4630BC604700BF584D0020E8
:101B6000A0860100F8B50A4C00250A4E02F0A8FF35
:101B7000094F207030682378834207D902F09CFF18
:101B8000336805440133BD423360F3D9F8BD00BF6B
:101B9000C54C0020804C0020FFFF010003F05CB822
:101BA00000F1006000F500300068704700F100604F
:101BB000920000F5003002F0DFBF0000054B1A680C
:101BC000054B1B789B1A834202D9104402F074BF64
:101BD00000207047804C0020C54C002038B5074DD0
:101BE00004462868204402F06DFF28B92868204484
:101BF000BDE8384002F078BF38BD00BF804C0020FF
:101C000000207047014BC058704700BF00E8F11F2B
:101C1000064991F8243033B100230822086A81F87C
:101C20002430FFF7C3BF0120704700BF844C002061
:101C3000014B1868704700BF0010005C234BF0B5E3
:101C4000234C1B682788C3F30B0665681B0C94F9AB
:101C50000820BE4228D0A789BE4206D101220C2509
:101C600005FB0244656894F9082041F20104A3428F
:101C70001CD041F20304A3421AD042F20104A34251
:101C800018D042F20304A34208BF5622441E013D6D
:101C90000B460C44A34217D215F9016F581C5EB1D4
:101CA000034600F8016CF5E70022D8E75A22EDE779
:101CB0005922EBE75822E9E72C2584421D7001D90F
:101CC000981C5A70401AF0BD1846FBE70010005CE3
:101CD0000C250020104B41F201015B888B429AB227
:101CE00011D041F203018B420FD042F201039A421C
:101CF0000DD042F203039A420BD10323074A02EBB1
:101D00008303D87870470023F8E70123F6E702231E
:101D1000F4E70020704700BF0010005CF059000895
:101D2000022802D1044B98617047012802D1042295
:101D3000014B9A61704700BF00040258022804D189
:101D40004FF40032034B9A6170470128FCD14FF4E5
:101D50008022F7E700040258022805D1064A536999
:101D600083F00203536170470128FCD1024A536992
:101D700083F00403F6E700BF00040258002310B507
:101D8000934203D0CC5CC4540133F9E710BD00008A
:101D900002460346981A13F9011B0029FAD170472D
:101DA00002440346934202D003F8011BFAE770474E
:101DB0002DE9F047234C05468846174694F8243011
:101DC00083BB2E46DFF87C90C7B394F824302BB940
:101DD0002022FF2148462662FFF7E2FF94F8240004
:101DE0004146C0F1080504EB8000BD4228BF3D46D6
:101DF0005FFA85FAAD00A7EB0A072A462E44FFF7E3
:101E0000BDFF94F82430A844FFB29A445FFA8AFADE
:101E1000BAF1080F84F824A0D6D1FFF7F9FE002804
:101E2000D2D108E0266A06EB8306B042CAD0FFF79B
:101E3000EFFE0028C5D10020BDE8F0870120BDE8F5
:101E4000F08700BF844C0020024B1A78024B1A70B6
:101E5000704700BFC44C00200825002003494FF400
:101E6000E13303480B6002F065BB00BFAC4C0020BF
:101E7000584D0020074B0021182210B50446184683
:101E8000FFF78EFF014604600348BDE8104002F0F2
:101E900051BB00BFAC4C0020584D0020202383F3E1
:101EA000118862B670470000002383F3118862B680
:101EB0007047000001207047002070477047000005
:101EC00041F25143C05C704741F24A43C05C7047E5
:101ED000F8B5164641F254421F46BDF818508358D3
:101EE000013383500B6813F0005406D10B7B082B91
:101EF00003DC41F24A43C35C83B941F25842835840
:101F0000013383504FF0FF30F8BD41F258428358FF
:101F1000013383502046FFF7C7FFF8BDFFF7BEFF30
:101F2000436AD3F8C4209202EFD40A68D3F8C440BD
:101F3000002AC369C4F30444B4BF42F0804292044F
:101F400003EB04131A600A68520042BF1A6842F099
:101F500000521A60220691F80CE042EA0E425A60E2
:101F60004A689A608A68DA600123426AA340C2F82C
:101F7000D03000EB441301F10C0203F58253C3E9A6
:101F8000026700EB441303F58253103351F8046BDE
:101F9000914243F8046BF9D10A781A7004F1830274
:101FA000520181180B798450012065F30003C5F3B9
:101FB000400565F3410303F0FB0343F010036FF3A7
:101FC000C3030B71A7E700005020704708B5FFF767
:101FD00065FF41F2744341F27042C3588258134482
:101FE00041F26C428258134441F2584282581344E1
:101FF00041F26442825800F5A3501344006818442B
:10200000FFF752FF08BD000008B5FFF747FF41F298
:102010003C03C05800F04CFEBDE80840FFF744BF49
:102020002DE9F84341F24A430446C55C002D40F0D7
:10203000F880037A032B40F08A802B4628462E46F0
:10204000DFB297420EDA01EBC70E51F83770002F5E
:1020500003DBDEF80470002F02DB01360133EFE70B
:102060000130FBE7FFF71AFF636AF0B9D3F880008D
:1020700040F00200C3F880005020636A002E69D14E
:10208000D3F8802042F00102C3F88020664B674AF3
:102090001B6803F1805303F52C539B00934223628A
:1020A00040F2A880624800F0EDFD4F283DD8DFF8EF
:1020B00078C14FEA004EDFF87C91DCF800704EEA00
:1020C000870EC3F884E007F1805307444FF0000EF9
:1020D00003F52C53C0F15000CCF80070F4469B007F
:1020E000676AE360D7F8803043F03003C7F8803088
:1020F000D4F80C805FFA8EF39A42BEDD01EBC30781
:1021000051F83330002B0DDB7F68002F0ADA07F01F
:102110007F0709EA034347F008473B4348F82C3060
:102120000CF1010C0EF1010EE4E79A6922F00102B4
:102130009A6100F0AFFD0646636A9B69D90704D532
:1021400000F0A8FD801BFA28F6D9FFF7ADFE28465F
:10215000BDE8F883B6EB500F3BD2DFF8CCE0370494
:10216000DEF8000047EA800700EB4606C3F88870F7
:1021700000F18053606A03F52C53CEF8006000260E
:102180009B0037462361D0F8803043F00C03C0F841
:102190008030D4F810E0F3B29A427FF777AF51F86D
:1021A000330001EBC30C0028DCF8043001DB002B0A
:1021B0000DDB20F0604023F0604340F0005043F01E
:1021C00000434EF837000EEBC7000137436001367D
:1021D000E1E79A6922F001029A6100F05BFD064690
:1021E000636A9B69DA07B0D500F054FD801BFA28BA
:1021F000F6D9AAE7626A936923F00103936100F0BC
:1022000049FD0646636A9B69DB0705D500F042FD80
:10221000801BFA28F6D998E7012541F24A43E55494
:1022200093E7002593E700BFD04C0020FCB50040A9
:102230001C5A00080000FF0738B5044600680D4628
:1022400000F060FD1F2809D920222946206800F0EF
:10225000D1FDA0F120035842584138BD002038BDBF
:1022600000220260027342608260704700220023F5
:1022700010B5C0E90023002304460C3020F8043CCC
:10228000FFF7EEFF204610BD2DE9F04188B005466E
:1022900041F23C060C4690461F46FFF7FFFD68469C
:1022A000FFF7E4FFA85900F015FD1F2805D800200E
:1022B000FFF7FAFD08B0BDE8F08120226946A85971
:1022C00000F020FE2028F2D141F24A43EB5C002BC3
:1022D000EDD003AA234605AD1446083303CCAC4227
:1022E00043F8080C43F8041C2246F5D12068186016
:1022F000012022791A71DDE90023C8E90023BDF825
:1023000008303B80D4E700002DE9F047234B064618
:1023100000F58157044646F8283B8946354608377C
:1023200028462035FFF7A2FFBD42F9D141F228032C
:1023300041F2300241F23C0104F5A25AE6504FF45A
:10234000805360180AF1100A6B60002300260027F2
:10235000A35041F234029846A35001222A746550DA
:1023600004F58255027110352846203545E90A6783
:10237000FFF776FF45F8108C5545F5D141F25043F3
:1023800004F80390B9F1000F02D0054800F07AFC80
:10239000044B20466362BDE8F08700BF5C5A00082A
:1023A000405A000800A000402DE9F04179B1274FC4
:1023B000274BB7FBF1F4994294BF10230923581C13
:1023C000B4FBF0FE00FB1E4038B1022B02DC002003
:1023D000BDE8F081013BDBB2F1E70EF1FF36B6F567
:1023E000806FF4D2C3EBC30C4FF47A780CF1030086
:1023F000C010C5B201305C1B08FB00F8E4B22044F9
:1024000098FBF0F080B2B0F5617F08D90CF1FF3590
:102410004FF0080C95FBFCF5EDB25B1BDCB22B1901
:1024200003FB0EEEB7FBFEFE7145D0D1691EC9B2AB
:102430000F29CCD8631EDBB2072BC8D8002016802A
:10244000D170907001201371BDE8F08180F0FA0224
:102450003F420F0038B5124C416A2268930043F4A2
:10246000D013C1F8A03002F1805302F16801456A2F
:1024700003F52C53E83289009B00226041F00051A3
:10248000084A4361C5F8C01003F5D07103F56873BD
:10249000C1619342036202D9034800F0F3FB38BDE7
:1024A000D04C0020FCB500401C5A000841F25043BB
:1024B0002DE9F041C35C88B004460F46012B154658
:1024C00050DC844A52F8231009B942F823008249AB
:1024D00067600B782572C3B9FFF7E0FC7F4BD3F838
:1024E000EC2042F48072C3F8EC20D3F8942042F43C
:1024F0008072C3F89420D3F8942022F48072C3F839
:10250000942001230B70FFF7CFFC41F24943E35CB9
:102510009BB9FFF7C3FC41F25043E35C3BB9022196
:10252000132001F04FFE0221152001F04BFE012285
:1025300041F24943E254FFF7B7FCFFF7AFFC626A90
:10254000936923F01003936100F0A4FB0646636ACD
:102550009A69100708D500F09DFB801BFA28F6D970
:10256000FFF7A2FC0027B0E09A6942F001029A61ED
:1025700000F090FB0646636A9A69D10705D400F023
:1025800089FB801BFA28F6D9EAE79A69002642F00F
:102590000202B0469A61636A5E65FFF785FC41F20C
:1025A0003C03E05800F084FB202200216846FFF73E
:1025B000F7FB02A8FFF754FE06F582530DF1200C3D
:1025C0006A4608334CF8088D234496460833BEE823
:1025D0000300E64543F8080C43F8041C7246F4D1A6
:1025E000DEF8000020361860B6F5806F9EF80420F3
:1025F0001A71D9D1002641F248436A463946E65459
:1026000041F24B432046ADF80060E6548DF802607D
:102610008DF803608DF80460FFF7C6FE626A074616
:1026200080B9936923F00103936100F033FB054601
:10263000636A9B69DA0795D500F02CFB401BFA28EA
:10264000F6D98FE79DF8033020469DF802101B0253
:1026500043EA41639DF804100B43BDF8001043EAC0
:102660000143D361636AC3F8BC60FFF7F3FE41F234
:1026700051436FF04042E654636A1A65184A636A30
:102680005A654FF00222636A9A654FF0FF32636A1F
:10269000C3F8E0200322636A9542DA6515D0626AC6
:1026A000936923F00103936100F0F4FA0546636A2D
:1026B0009B69DB0705D500F0EDFA401BFA28F6D937
:1026C00050E7012241F24A43E254384608B0BDE8DF
:1026D000F08100BFC84C0020CC4C002000440258C0
:1026E000550200022DE9F04300F5A25989B00446D5
:1026F00016461F46002509F11C0941F24C48202DC1
:102700004BD0636AD3F8D830EB40D90743D505F1F5
:10271000830304EB43131A7912073CD4D9F8002041
:102720000132C9F800201A7942F008021A71D30761
:1027300029D541F24B43E35C2BB36846FFF796FD86
:1027400003AA04EB451303F5825303F1180C10336D
:102750001868083353F8041C96466345AEE8030036
:102760007246F5D118686946CEF8000004F581502C
:102770001B791C308EF804300123CDE90067ADF8D9
:102780000830FFF759FD54F8083023B141F2784280
:10279000A3580133A3500135B1E709B0BDE8F08378
:1027A0002DE9F0478A468CB0044600F075FA0646DB
:1027B0000F46BAF1000F41D1636AD3F8A02012F49A
:1027C000FE0F03D100200CB0BDE8F087D3F8A420A1
:1027D000920141BF41F27041625801326250D3F818
:1027E000A4205506EED0D3F8A4306569C3F30528BC
:1027F00005EB08156846FFF733FDE9462B685A00DC
:102800004ABF23F06042C3F38A4242F000429B0079
:1028100000920DF1030242BF009B43F080430093FE
:10282000EB8803F00F038DF80C30EB1D0F35AB4236
:1028300020D013F8011F02F8011FF8E7BAF1010FC9
:10284000C0D1636AD3F8B02012F4FE0FBAD0D3F827
:10285000B420900141BF41F2704162580132625090
:10286000D3F8B4205106ADD0D3F8B430A569C3F382
:102870000528BDE7BAF1000F1CD1636AC3F8A88030
:1028800004A807ADFFF7F2FC99E80F0007C504F5AF
:1028900081502B70002304A91C30ADF81830CDE90D
:1028A0000467FFF7C9FC60B141F26842A3580133E5
:1028B000A35088E7BAF1010FE2D1636AC3F8B88088
:1028C000DEE741F26C420120A3580133A3507AE7BE
:1028D000F8B500F5A25504460F4601260B353946DA
:1028E0002046FFF75DFF08B12E70F8E741F24C4338
:1028F000E35823B141F27842A3580133A350F8BD05
:10290000436AF0B51B6CC3F3074323B300F5A3512F
:1029100000230125043103F1830200EB42121479F4
:10292000A60715D5640713D45C01466A04F58354E1
:10293000D6F8CC70045905FA04F43C4208D0C6F825
:10294000D440147944F0040414710A6801320A6016
:102950000133202BDFD1F0BD08B5FFF79FFAFFF759
:10296000CFFFBDE80840FFF79FBA0000436AD3F8E5
:10297000C00010F07C5005D0D3F8C40080F40010E3
:10298000C0F340507047000008B5FFF787FA41F2E6
:102990003C03C05800F09EF9FFF786FA1F288CBF51
:1029A0000020012008BD000041F25142835C5BB170
:1029B000416A8B6923F001038B6141F274414358F2
:1029C0000133435000238354704700002DE9F84F32
:1029D00090469946FFF762FA00F5825300224FF0C5
:1029E000010E083300F5A35702F1830100EB4111FA
:1029F0000C7965070FD4E4060DD59E69456A0EFA79
:102A000006F6D5F8CC40264205D0D3E900ABCB453D
:102A100008BFC24507D301322033202AE4D1BDE8E4
:102A2000F84FFFF741BAC5F8D4600C7944F00404BC
:102A30000C71396801313960EDE70000F8B51E46C8
:102A400000230F46054613701446FFF79DFF80F0E4
:102A5000010038701EB12846FFF788FF2070F8BDCE
:102A60002DE9F74F0D4698460B780446164692F826
:102A70000090019300F00CF92B780BB93378C3B1B7
:102A80004FF0000B0246824620465B46FFF79EFF52
:102A90002046FFF761FF2046FFF786FF4346324698
:102AA00029462046FFF7CAFF2B7833B1019B23B19B
:102AB0000123184603B0BDE8F08F337813B1B9F1A4
:102AC000000FF5D104F5A2570C37DDE90C239B4527
:102AD00008BF9245ECD238680028E9D00368D9686D
:102AE000DDE90C23B2EB0A0263EB0B038847434694
:102AF000324629462046FFF7A1FF2B7813B1019BF0
:102B0000002BD5D1337813B1B9F1000FD0D100F03B
:102B1000BFF84FF0000B8246D7E7000010B5164C07
:102B2000164B2068C0B901221A6510221A654FF4AD
:102B300080521A650CE01A6D520710D40F4B1A6DB3
:102B4000D00612D41A6D51060FD42068FFF7D8FEB4
:102B5000BDE8104001F0EEB91A6DD207EBD50522A1
:102B600000211A65FFF7B4FEE8E7502201211A653B
:102B70002068FFF7ADFEE8E7C84C002000A0004049
:102B800010B5194C194B22683AB901221A65102266
:102B90001A654FF480521A6522E01A6D920510D51D
:102BA0004FF400721A6500F077F802460B4652EABD
:102BB000030103D012F1FF3243F1FF332068FFF726
:102BC00091FD0A4B1A6D910107D54FF0007201215A
:102BD0001A6541F251432268D1542068FFF790FEF4
:102BE000BDE8104001F0A6B9C84C002000A000408C
:102BF0000FB4002004B070470FB44FF0FF3004B0A2
:102C000070470000FEE7000000B59BB0EFF30981BC
:102C100068226846FFF7B2F8EFF30583034B9A6B1F
:102C20009A6A9A6A9A6A9A6A9B6AFEE700ED00E0DD
:102C300000B59BB0EFF3098168226846FFF79EF864
:102C4000EFF30583044B9A6B9A6A9A6A9A6A9A6AB6
:102C50009A6A9B6AFEE700BF00ED00E000B59BB0FA
:102C6000EFF3098168226846FFF788F8EFF30583E0
:102C7000034B5A6B9A6A9A6A9A6A9A6A9B6AFEE747
:102C800000ED00E00FB408B5029801F053FDFEE737
:102C900002F02EB802F038B802F016B810B5037C76
:102CA000044613B9006802F00BFD204610BD000079
:102CB0000023BFF35B8FC360BFF35B8FBFF35B8FFA
:102CC0008360BFF35B8F7047BFF35B8F0068BFF318
:102CD0005B8F704770B506460C30FFF7F5FF044672
:102CE00006F108052846FFF7EFFF844206D2766812
:102CF0002846FFF7E9FF3444201A70BD2846FFF745
:102D0000E3FFF9E770B505464068A0B105F10C0690
:102D100005F10800FFF7D8FF04463046FFF7D4FF5F
:102D2000844204F1FF34304694BF6D680025FFF7FC
:102D3000CBFF2C44201A70BD38B50C460546FFF772
:102D4000C9FFA04210D305F10800FFF7BDFF6B6873
:102D50002044BFF35B8FB0FBF3F403FB1400A860C7
:102D60000120BFF35B8F38BD002038BD2DE9F04155
:102D7000144680460D46FFF7C5FF844228BF04462F
:102D8000DCB1474657F80C6B3846FFF79DFF3044DF
:102D900028603846D8F80460FFF796FF301AA04242
:102DA0003DBF6860241AD8F8003001202FBF6C6046
:102DB0000220AB60EC60BDE8F0812046BDE8F08108
:102DC00038B50C460546FFF79DFFA04210D305F12C
:102DD0000C00FFF779FF6B682044BFF35B8FB0FBFB
:102DE000F3F403FB1400E8600120BFF35B8F38BDF0
:102DF000002038BD2DE9F04385B0002688460746FF
:102E0000694601ADFFF7B2FF344681464E4505F1F4
:102E100008050CDA08EB040155F8082C55F80C0CE1
:102E20000136FEF7ABFF55F8083C1C44EEE721469F
:102E30003846FFF7C5FF204605B0BDE8F083000027
:102E4000F8B506460C300F46FFF73EFF06F10805C1
:102E500004462846FFF738FF8442284638BF746886
:102E6000FFF732FF201A386020B134682846FFF798
:102E70002BFF2044F8BD000073B5144606460D46EE
:102E8000FFF728FF8442019028BF0446DCB101A966
:102E90003046FFF7D5FF019B33B93268AB60EB607A
:102EA00085E8140001200CE0A342286088BF01944B
:102EB0000198A0426860F5D23368241A0220AB6002
:102EC000EC6002B070BD2046FBE700002DE9FF4139
:102ED00000240F466946FFF7CFFF2546804644454C
:102EE0000BDA0DEBC4035DF83410781901345E6819
:102EF00032463544FEF742FFF1E7284604B0BDE80C
:102F0000F081000038B50546FFF7E0FF04460146B2
:102F10002846FFF711FF204638BD000030B50A44AF
:102F2000074D91420BD011F8013B09245840013C58
:102F3000F7D040F300032B4083EA5000F7E730BDA1
:102F40002083B8ED0246006848B103681189136018
:102F5000D38801339BB29942D38038BF1381704725
:102F600070B588B004460D46202200216846FEF761
:102F700017FF20460495FFF7E5FF054660B16B4655
:102F8000044608AE1A46083403CAB24244F8080C94
:102F900044F8041C1346F5D1284608B070BD000063
:102FA0002DE9F04130B9274B40F2C531264A274878
:102FB00002F05AFB0B7C23B9254B40F2C631224A62
:102FC000F5E7C66986B9C161BDE8F081002B29DA51
:102FD000930CAB4229D1B44201D10C60F3E7C8F89D
:102FE00000100C60BDE8F0814B68B046344623F019
:102FF00060474FEAD37EC3F3807CBD0C15EA2305FE
:1030000038BF3D466368BEEBD37F23F06042DDD11D
:10301000974203D1C3F380739C450AD1974205E0E0
:103020001C46EFE7AA4206D013469D422CBF002360
:103030000123002BCFD12368A046002BF0D12160C3
:10304000BDE8F081205D0008145B0008D85D000831
:10305000F95D000808B5034A40F25E31024B0348AF
:1030600002F002FBF05A0008985D0008D85D0008E5
:1030700008B503680B60C388016033B9044B4FF493
:10308000C761044A044802F0EFFA013BC38008BD5F
:10309000685D0008645B0008D85D000870B50C46E8
:1030A00000F10C05616831B9E38A002061F309037E
:1030B0000021E38270BD0E682846FFF7D9FF6660E5
:1030C000F0E7000008B5426832B10B4B40F22F41E7
:1030D0000A4A0B4802F0C8FAC37DC3F384010131E8
:1030E00061F38603C375C38A62F30903C3821B0AB3
:1030F00062F3C713C37508BDB45D0008205B000808
:10310000D85D00082DE9F047089E32B91F4B40F208
:1031100039511F4A1F4802F0A7FA01F007054FEA8C
:10312000D60800EBD10006F007062A444FF47F4989
:10313000954201D1BDE8F08705F0070E06F0070AB9
:10314000511BEC08D6457746045D38BF574604FA54
:103150000EF4C7F1080724FA0AF48F4228BF0F467D
:1031600008EBD60129FA07FE13F801C03D443E449E
:103170005FFA8EFE8CEA04044EFA0AFE04EA0E049C
:103180008CEA040C03F801C0D2E700BF345D0008EC
:10319000385B0008D85D00082DE9F04106460F466F
:1031A00000254FF6FF7441F221082A463046394681
:1031B000FDF77AF80823C0B284EA002414F4004F23
:1031C0004FEA440403F1FF33A4B218BF84EA0804B1
:1031D00013F0FF03F2D10835402DE6D12046BDE8BB
:1031E000F081000010B50A4441F22104914200D15F
:1031F00010BD11F8013B80EA0320082310F4004FB2
:103200004FEA400003F1FF3380B218BF604013F073
:10321000FF03F3D1EAE700002DE9F04F85B08A46BD
:103220008146BDF83C408DE80C0030B9494B40F276
:103230006E31494A494802F017FA11F0604F04D044
:10324000474B40F26F31444AF4E7009B002B7ED09D
:1032500024B10E9B002B7AD0072C28D809F10C0042
:10326000FFF770FE054628B96FF00205284605B045
:10327000BDE8F08F14220021FEF792FD22460E9940
:1032800005F10800FEF77AFD631C2C4429462B74D7
:103290004846009B1B7803F01F0363F03F03237233
:1032A0004AF000436B600125FFF77AFEDEE7019BE1
:1032B0004FF000084FF0800B1B0A4646454602932C
:1032C00000F10C0303930398FFF73CFE0746002828
:1032D000CAD014220021FEF763FDB6BB9DF804306E
:1032E00002223B729DF808307B72711E0E9B1944BE
:1032F000B4420AD9B818013211F801EF0136D2B23E
:1033000080F808E0B6B2072AF2D1009BB44208BFA9
:103310004FF0400BB81801321978013501F01F0148
:103320002DB241EA481188F001084BEA0103394601
:103330004FF0000B03724AF000433A7448467B603A
:10334000FFF72EFEB442BED190E70022CDE76FF02A
:1033500001058BE7205D0008045B0008D85D0008CC
:10336000445D00082DE9F0471E46CB8A9146804611
:10337000C3F309020F46062A19D013460021B0B242
:103380008DB25A1992B2052A09D9A84210D8FA8AE0
:10339000034463F30902FA820120BDE8F087A842E2
:1033A000F3D919F801403A4401319476E8E7002551
:1033B000FB8A7C68C3F309001C23821FB2FBF3FA6B
:1033C00003FB1A2A1FFA8AF27CB301212368002B1F
:1033D00039D1B31F03441C20B3FBF0F301339BB27C
:1033E00099420CD2BAF1000F09D14046FFF7AAFD6D
:1033F00008B1C0F800A0206008B304460022B6B2AD
:103400004FF0000AB54230D2691E13464944E01815
:10341000013311F801EF01359BB280F804E0ADB241
:103420001C2B14D0AE42F2D8ECE74046FFF78AFDE1
:10343000044608B1002303607C60002CDED16FF0ED
:103440000200BDE8F08701311C4689B2BEE7AE42FA
:10345000D8D94046FFF776FD08B1C0F800A020603B
:103460000028ECD004460022CCE7FB8AC3F3090213
:10347000164466F30903FB828EE70000F8B50E469A
:1034800015461F46044628B9144B4F21144A1548C7
:1034900002F0EAF824220021FEF782FC069B6A096A
:1034A0000020636004F10C05079BA76023624FF6C0
:1034B000FF7320709A42A061E06128BF1A4697B25C
:1034C000824205D100232B6027826382A382F8BD4C
:1034D0002E60013035462036F2E700BF1C5D000843
:1034E000905A0008D85D000808B528B9084B732128
:1034F000084A094802F0B8F8037823B94BB2002B08
:1035000001DD017008BD054B7D21024AF1E700BFD6
:10351000205D00089C5A0008D85D0008645C000823
:10352000007870472DE9F7430D9E0746194610466F
:10353000BDF828900B9D9DF83040BDF8388016B935
:10354000B8F1000F43D11F2C41D83B78D3B9B8F163
:10355000070F39D839F0030339D1424631464FF6C7
:10356000FF704FEA0929FFF73DFE20F0010009F442
:103570004079400449EA0464400C44EA40244FF690
:10358000FF730DE043EA0923B8F1070F43EA04642F
:10359000F5D9FFF701FE42463146FFF723FE034609
:1035A0002A46214638468DE84001FFF735FE0DB921
:1035B000FFF750FD2B780133DBB21F2B88BF0023B0
:1035C0002B7003B0BDE8F0836FF00300F9E76FF0F4
:1035D0000100F6E72DE9F7430E9F81460B9D9DF80C
:1035E00030009DF83480BDF83C6007B9C6BB1F2889
:1035F00036D899F800E0BEF1000F34D00C029DF8E7
:103600002810072E44F0800444EAC83444EA0144F8
:1036100044EA0E0444EA006415D919461046FFF73F
:10362000BBFD32463946FFF7DDFD034601962A46CB
:10363000009721464846FFF7EFFDB8F1010F0CD186
:1036400025B9FFF707FD4FF6FF73EFE72B7801333E
:10365000DBB21F2B88BF00232B7003B0BDE8F083C3
:103660006FF00100F9E76FF00300F6E7C06900B101
:1036700004307047C1690C300B680361FFF7F8BC78
:103680002DE9F84FD0F818A0054616461F465446B7
:10369000DFF864804FF0000900F10C0B0CB9BDE8B5
:1036A000F88FD4E90223B21A67EB0303994508BFE8
:1036B00090451FD2AB69214628469C420DD1FFF7A9
:1036C000EDFCAB69214658461B68AB61FFF7D0FCA7
:1036D000AC692346A2461C46E0E7FFF7DFFC2368FF
:1036E00021465846CAF800305446FFF7C1FCDAF8C4
:1036F0000030EFE72368EDE780841E002DE9F04FEE
:103700008BB00D46144682460793DDF85090002892
:1037100000F06381B9F1000F00F05F81531E3F2B71
:1037200000F25B81012A03D1079B002B40F05581F9
:10373000BAF814600023F60008930993B54280F0AC
:1037400052812B199E420AD2761B16F0FF0607D132
:10375000AA4B40F26751AA4AAA4801F085FF2646C3
:10376000DAF80C3023B9DAF81030002B00F0A4801E
:103770002F2D30D8C5F13008002329464645009347
:1037800008ABDAF808002CBF5FFA88F8B046A6EB61
:10379000080745444246FFB2FFF7B4FCBAF81430BC
:1037A0004FF0300B03F10053063BDB000293DAF8D5
:1037B0000C300593059B002B51D087B9DAF8100027
:1037C000002861D0002F5FD0AB4550D98E4B40F21E
:1037D000A6518B4AC0E737464FF00008DEE7029B50
:1037E00023B98A4B4FF4B161854AB5E7029BE02BC0
:1037F00028BFE02306935B44AB4204931DD95B1BB7
:103800009F422ABFDBB203970393AB4504D97E4B9B
:1038100040F291517A4A9FE7059808ABCDF80080B5
:10382000A5EB0B01039A0430FFF76CFC039B984453
:10383000FF1A1D445FFA88F8FFB2049B9B4504D32E
:10384000734B40F29B516E4A86E7029B069ADDF865
:1038500010B09B1A0293059B1B680593AAE7029B75
:10386000BB42ABD26B4B40F2A151654A74E7CDF835
:103870000080B8443A46A5EB0B015FFA88F83D4456
:10388000002708ABFFF73EFCBAF81430B5EBC30FC6
:1038900004D9614B40F2B151594A5DE7B8F1400F8C
:1038A00004D95E4B40F2B251554A55E767B15C4BC3
:1038B00040F2B351524A4FE70093324608AB2946D3
:1038C000DAF80800FFF71EFC731E35B23F2B01D853
:1038D000A64204DD534B40F23521534A3CE76007D2
:1038E0000AD00AAB624203EBD40102F0070211F8DE
:1038F000083C134101F8083C082C21D9102C21D98F
:10390000202C8CBF08230423079A002A6DD0B4EB27
:10391000C30F6CD0082C04F1FF3215D89DF820306D
:1039200023FA02F2D10706D54FF0FF3202FA04F46F
:1039300023438DF820309DF8203089F800304EE088
:103940000123E1E70223DFE7102C11D8BDF8203076
:1039500023FA02F2D20706D54FF0FF3202FA04F43E
:103960002343ADF82030BDF82030A9F8003036E010
:10397000202C0ED8089921FA02F2D30705D54FF072
:10398000FF3303FA04F40C430894089BC9F8003091
:1039900025E0402C1CD0DDE9086730463946FCF7AD
:1039A00083FC002100F0010050EA01030BD0224605
:1039B00001200021FCF784FC404261EB41010643F9
:1039C0000F43CDE90867DDE90823C9E9002306E0D4
:1039D000164B4FF42071144ABEE66FF001052846DD
:1039E0000BB0BDE8F08F1D46F9E7012CA3D0082CE1
:1039F000A1D9102CB7D9202CE5D8C6E7705B0008F8
:103A0000485B0008D85D0008925B00087F5B0008F7
:103A1000B75B0008DF5B0008065C0008345C000848
:103A20004C5C0008665C0008C85A0008645C00082A
:103A300030B585B030B9244B40F2B121234A244837
:103A400001F012FE23B9234B40F2B2211F4AF6E7E0
:103A5000402A04D9204B40F2B6211C4AEFE722B994
:103A60001D4B4FF42F71194AE9E70024012A0294F3
:103A7000039417D11B788DF8083053070AD004AB94
:103A8000554203EBD20305F0070513F8084CAC4090
:103A900003F8084C00910346002102A8FFF732FB0F
:103AA00005B030BD082AE5D9102A03D81B88ADF827
:103AB0000830E2E7202A02D81B680293DDE7D3E949
:103AC0000045CDE90245D8E7A05C0008DC5A0008B3
:103AD000D85D0008BB5C0008645C000870B50C464B
:103AE00000F10C05E16819B9A1602161A18270BDE6
:103AF0000E682846FFF7BCFAE660F3E72DE9F04FC1
:103B0000D1F8009091B004460D46C9F3C016CDE936
:103B10000223002E50D0C9F3C03BC9F30626B9F1E9
:103B2000000F80F29F8119F0C04F40F09B812B7BEA
:103B3000002B00F09781BBF1020F03D02278B24234
:103B400040F0938109F07F02BBF1020F059236D15C
:103B500019F07F0FC9F30F2A01D10AF0030A2B4491
:103B60007606059A46EA0B4693F8038046EA8246B3
:103B70005FEAD81346EA0A06069300F09A8000220C
:103B8000002310A96768204661E90823059B524677
:103B900000935B46B847002800F08880A7698FB97A
:103BA000314604F10C00FFF7DBF90746D0B96FF09E
:103BB000020011B0BDE8F08F4FF0020BAFE7C9F380
:103BC000074ACCE73B699E420DD03F68002FF9D1F0
:103BD000314604F10C00FFF7C3F907460028E6D090
:103BE000A3693B60A761DDE90801FFF7D5FAB88258
:103BF000F97D08F01F06C1F38401711A89B20FFA2A
:103C000081FEBEF1000FD7E90223B8BF01F1200EFB
:103C1000C9F30461B8BF0FFA8EFE079152EA03019F
:103C200000F02F81DDE90201801A61EB03010246F9
:103C30009F480B460021994208BF9042C0F0218165
:103C4000069B002B3FD0BEF1010F00F31A8118F044
:103C5000400F38D00021DDE90223C7E902232022EA
:103C60000DEB0200FEF79CF82046ADF836A008A93F
:103C70008DF838B08DF83960DDE90223CDE90823ED
:103C80002B1D0A932B7B013BDBB2ADF834309DF842
:103C90001C308DF83A309DF814308DF83B30A36815
:103CA00098473846FFF70EFA002082E76FF00B00C6
:103CB0007FE7A76917B96FF00C007AE73B699E426E
:103CC00096D03F68F6E7FB7DC8F34012B2EBD31FF6
:103CD00040F0CE80C3F38403B34240F0CC80069919
:103CE0004FEA98122B7B79B3D2073CD4032B40F2D6
:103CF000C580AE1D394604F10C00DDE90223C7E999
:103D000002232B7B3246033BDBB2FFF72BFB002861
:103D100008DA39462046FFF7C1F93846FFF7D2F9ED
:103D2000032046E7AB883B832A7B033AD2B2B88AAA
:103D30003146FFF757FAFB7DB882DA43C2F3C0126F
:103D400062F3C713FB75AFE76AB92E1D013B394615
:103D500004F10C00DBB23246FFF704FB0028D8DB8D
:103D60002A7B013AE2E7FA8A013BC2F30902D9B29F
:103D7000052A50D8281D002399420AD907EB020EC4
:103D8000013210F801CB0133062A8EF81AC0DBB2DB
:103D9000F2D18B4207F11A02DDE9028938BF043300
:103DA0000A922CBF00235B19CDE908897A680C932D
:103DB0000B92FB8AADF836A0C3F309038DF838B037
:103DC0008DF8396019449DF81C308DF83A309DF813
:103DD0001430ADF83410291D8DF83B300023B88A1B
:103DE0007B602A7B013AFFF7FDF93B8BB882834267
:103DF00003D1A36808A92046984708A92046FFF7E1
:103E00006DFE3846FFF75EF9B88A3B8B984214BFC7
:103E100011200020CDE6786810B34FF0060E03683D
:103E20009BB9A2EB0E021B2A13D8033205F1040E34
:103E300002441F309942ACD91EF801CB013302F87D
:103E400001CF9042DBB2F5D1A3E70EF11C0E18466C
:103E5000E5E7184B40F2B311174A184801F004FC8B
:103E6000034696E76FF00900A3E66FF00A00A0E6AC
:103E70006FF00D009DE66FF00E009AE66FF00F00F8
:103E800097E6FB7D3946204668F386036FF3C71338
:103E9000FB75FFF703F9069B002B7FF4D8AEFB7D83
:103EA000C3F38402013262F38603FB7503E700BFAC
:103EB00080841E00D05C0008B45A0008D85D000859
:103EC000EFF30983054968334A6822F001024A602A
:103ED00083F30988002383F31188704730EF00E0F3
:103EE000202080F3118862B60D4B0E4AD96821F468
:103EF000E0610904090C0A430B49DA60CA6842F020
:103F00008072CA60094A0A49C2F8B01F116841F0BC
:103F1000010111601022DA7783F82200704700BF98
:103F200000ED00E00003FA05F0ED00E0001000E015
:103F300055CEACC510B5202383F311880E4B5B68BA
:103F400013F4006314D0F1EE103AEFF309844FF04C
:103F50008073683CE361094BDB68236684F309885E
:103F600000F09CFB10B1064BA36110BD054BFBE7B5
:103F700083F3118810BD00BF00ED00E030EF00E0DA
:103F80003B0700083E070008002304491A465A5020
:103F9000C81808334260802BF9D17047D84C0020F4
:103FA000026843681143016003B11847704700007D
:103FB000024A136843F0C0031360704700100140C9
:103FC00013B50E4C204600F0A9FA04F11400009439
:103FD00000234FF400720A4900F06AF90094094B7B
:103FE0004FF40072084904F1380000F0E3F9074B80
:103FF000E365074B236602B010BD00BF584D00209B
:10400000C44D0020B13F0008C44F00200010014003
:1040100000E1F505254B002908BF1946037C012B5B
:1040200030B511D1224B98420ED1224BD3F8F0205B
:1040300042F01002C3F8F020D3F8182142F0100229
:10404000C3F81821D3F818310A68036EC46D03EB66
:1040500052038166B3FBF2F34A68150442BF23F0B2
:10406000070503F0070343EA4503E3608B6843F069
:1040700040036360CB68510543F00103A36042F441
:10408000967343F0010323604FF0FF33236205D59D
:1040900012F0102205D0B2F1805F04D080F86430B5
:1040A00030BD7F23FAE73F23F8E700BF145E000826
:1040B000584D0020004402582DE9F047C66D0546D2
:1040C0003768F469200734621AD014F0080F0CBF67
:1040D00000218021E20748BF41F02001A3074FF0F3
:1040E000200348BF41F04001600748BF41F48071A0
:1040F00083F31188281DFFF753FF002383F31188F2
:10410000E2050AD5202383F311884FF40071281D9E
:10411000FFF746FF002383F311884FF020094FF08B
:10412000000A14F0200831D13B0616D54FF02009C3
:1041300005F1380A200610D589F31188504600F0A1
:104140006DF900282FDA0821281DFFF729FF27F035
:1041500080033360002383F3118879060DD562064E
:104160000BD5202383F31188EA6C2B6D9A4201D181
:104170002B6CEBB9002383F31188E30620D5AA6EDC
:104180001369EBB15069BDE8F047184789F311880E
:10419000736A284695F86410194000F0D9F98AF33B
:1041A0001188F469BDE7B06288F31188F469C1E74A
:1041B00027F040071021281DFFF7F2FE3760D9E7EE
:1041C000BDE8F08700F1604300F01F0209014009DB
:1041D00003F56143C9B2800083F80013012300F1A5
:1041E0006040934000F56140C0F880310360704743
:1041F000F8B51546826804460B46AA4200D2856887
:10420000A1692669761AB54207D218462A46FDF7F3
:10421000B5FDA3692B44A3610DE011D9AF1B324654
:104220001846FDF7ABFD3A46E1683044FDF7A6FDC0
:10423000E2683A44A261A36828465B1BA360F8BD0C
:1042400018462A46FDF79AFDE368E4E7836893423F
:104250002DE9F04104460F46154600D28568606995
:104260002669361AB54207D22A463946FDF786FD39
:1042700063692B4463610EE013D9A5EB060832464F
:104280003946FDF77BFD4246B919E068FDF776FD3A
:10429000E26842446261A36828465B1BA360BDE8F4
:1042A000F0812A463946FDF769FDE368E2E7000040
:1042B00010B50A440024C361029B00604060846022
:1042C000C160816141610261036210BD08B582690C
:1042D0004369934201D1826882B982680132826067
:1042E0005A1C42611970426903699A4201D3C3683A
:1042F0004361002100F0E2FA002008BD4FF0FF30DA
:1043000008BD000070B5202304460E4683F31188D3
:10431000A568A5B1A368A269013BA360531CA36172
:1043200015782269934224BFE368A361E3690BB166
:1043300020469847002383F31188284670BD3146F4
:10434000204600F0ABFA0028E2DA85F3118870BD50
:104350002DE9F74F05460F4690469A46D0F81C9037
:10436000202686F311884FF0000B144664B12246D4
:1043700039462846FFF73CFF034668B951462846B0
:1043800000F08CFA0028F1D0002383F31188A8EB09
:10439000040003B0BDE8F08FB9F1000F03D0019025
:1043A0002846C847019B8BF31188E41A1F4486F303
:1043B0001188DBE7C160816141611144C361009BE9
:1043C000006040608260016103627047F8B5044696
:1043D0000E461746202383F31188A568A5B1A3686C
:1043E000013BA36063695A1C62611E7023696269A4
:1043F0009A4224BFE3686361E3690BB120469847A2
:10440000002080F31188F8BD3946204600F046FAB6
:104410000028E2DA85F31188F8BD0000836942695B
:104420009A4210B501D182687AB9826801328260FD
:104430005A1C82611C7803699A4201D3C368836164
:10444000002100F03BFA204610BD4FF0FF3010BDB8
:104450002DE9F74F05460F4690469A46D0F81C9036
:10446000202686F311884FF0000B144664B12246D3
:1044700039462846FFF7EAFE034668B95146284602
:1044800000F00CFA0028F1D0002383F31188A8EB88
:10449000040003B0BDE8F08FB9F1000F03D0019024
:1044A0002846C847019B8BF31188E41A1F4486F302
:1044B0001188DBE7026843681143016003B11847C4
:1044C000704700001430FFF743BF00004FF0FF3388
:1044D0001430FFF73DBF00003830FFF7B9BF0000D0
:1044E0004FF0FF333830FFF7B3BF00001430FFF751
:1044F00009BF00004FF0FF311430FFF703BF000089
:104500003830FFF763BF00004FF0FF323830FFF75D
:104510005DBF000000207047FFF752BD044B0360F1
:10452000002343608360C36001230374704700BFAE
:104530002C5E000810B52023044683F31188FFF792
:1045400069FD02232374002383F3118810BD00004A
:1045500038B5C36904460D461BB904210844FFF76A
:10456000A9FF294604F11400FFF7B0FE002806DA7F
:10457000201D4FF48061BDE83840FFF79BBF38BD78
:10458000024B00221B605B609A607047C4510020A0
:10459000002382680374054B1B6899689142FBD223
:1045A0005A6803604260106058607047C451002030
:1045B00008B5202383F31188037C032B05D0042B3B
:1045C0000DD02BB983F3118808BD436900221A600E
:1045D0004FF0FF334361FFF7DBFF0023F2E790E882
:1045E0000C001A6002685360F2E700000023826842
:1045F0000374054B1B6899689142FBD85A680360A5
:104600004260106058607047C4510020054B196922
:1046100008741868026853601A60186101230374F3
:10462000FCF776B8C45100204B1C30B5054687B066
:104630000A4C10D0236901A8094A00F059F928460C
:10464000FFF7E4FF049B13B101A800F08FF9236981
:10465000586907B030BDFFF7D9FFF8E7C451002013
:10466000B145000838B50C4D044641612B6981689D
:104670009A68914203D8BDE83840FFF789BF1846D1
:10468000FFF7B4FF01232C61014623742046BDE8E7
:104690003840FCF73DB800BFC4510020044B1A68F5
:1046A0001B6990689B68984294BF00200120704766
:1046B000C451002010B5084C236820691A68546062
:1046C0002260012223611A74FFF790FF01462069DE
:1046D000BDE81040FCF71CB8C451002008B5FFF736
:1046E000DDFF18B1BDE80840FFF7E4BF08BD0000DA
:1046F000FEE7000010B50C4CFFF742FF00F0EAF8AF
:1047000080220A49204600F07DF8012344F8180C65
:104710000374FFF7E5FB002383F3118862B60448B6
:10472000BDE8104000F090B8EC510020545E000845
:104730005C5E000808B572B6034B586200F0A0FA40
:1047400000F062FBFEE700BFC45100202DE9F84FE6
:104750001E4C4FF00008656904F11407C14600F0D3
:1047600005FC266AAB68861B9E421CD34FF0200ACC
:10477000AA68236AD5F80CB0B61A134423622B68D2
:10478000BB425F606361C5F80C8001D100F0E2FBC1
:1047900089F311882869D8478AF311886569AB685D
:1047A0009E42E5D2DBE76369BB420CD09A68206287
:1047B000961B9E60AB68022B2CBFC0180230BDE870
:1047C000F84F00F0CDBBBDE8F88F00BFC45100200A
:1047D000EFF3118020B9EFF30583202282F31188D3
:1047E0007047000010B558B9EFF30584C4F308040E
:1047F00014B180F3118810BDFFF770FF84F31188A6
:1048000010BD0000826002220274002242747047D0
:104810008368A3F17C0243F80C2C026943F83C2C1A
:10482000426943F8382C074A43F81C2CC268A3F1AC
:10483000180043F8102C022203F8082C002203F879
:10484000072C70472907000810B5202383F311882F
:10485000FFF7DEFF00210446FFF704FF002383F388
:104860001188204610BD0000024B1B6958610F20C3
:10487000FFF7CCBEC4510020202383F31188FFF73B
:10488000F3BF000008B50146202383F311880820F8
:10489000FFF7CAFE002383F3118808BD49B1064B18
:1048A00042681B6918605A60136043600420FFF778
:1048B000BBBE4FF0FF307047C451002003689842E0
:1048C00006D01A680260506018465961FFF760BE52
:1048D00070470000054B03F114025A619A614FF0D2
:1048E000FF32DA6100221A62704700BFC451002013
:1048F000F8B503610C46C260064600F037FB1A4B60
:10490000022C21461A461F4638BF022152F8145F76
:1049100095420AD1186208445E619E6135607560F7
:10492000B160BDE8F84000F00BBB1B6AAA68C41A6E
:104930000C1902D3A41A2D6804E0944202D218196B
:1049400000F00EFBAB689C420CD86B68356073605E
:104950001E604FF0FF336E60B460A9680C1BAC6042
:10496000FB61F8BDE41AE6E7C45100201C494A691E
:10497000824238B50D4601F114040ED04268036836
:10498000136003685A60A3424FF00002C26026D051
:104990009A6881680A449A6038BD13684B61A342E3
:1049A0004FF000015C60D16003D1BDE8384000F0F9
:1049B000D1BA926899682C6A1144996000F0D6FACD
:1049C0006A69001B9268824209D9111A012998BFAD
:1049D000821C286ABDE83840104400F0C1BA38BDD6
:1049E000C451002000207047FEE70000704700001F
:1049F0004FF0FF3070470000BFF34F8F044B1A6930
:104A00005107FCD1D3F810215207F8D1704700BFED
:104A10000020005208B50D4B1B78ABB9FFF7ECFF37
:104A20000B4BDA68D10704D50A4A5A6002F1883282
:104A30005A60D3F80C21D20706D5064AC3F80421E0
:104A400002F18832C3F8042108BD00BF00540020E1
:104A5000002000522301674508B5114B1B78F3B9BC
:104A6000104B1A69510703D5DA6842F04002DA6048
:104A7000D3F81021520705D5D3F80C2142F040029B
:104A8000C3F80C21FFF7B8FF064BDA6842F00102C9
:104A9000DA60D3F80C2142F00102C3F80C2108BD02
:104AA00000540020002000520F289ABF00F58060BB
:104AB00040040020704700004FF4003070470000B1
:104AC000102070470F2808B50BD8FFF7EDFF00F551
:104AD00000330268013204D104308342F9D101204D
:104AE00008BD002008BD00000F2810B504463FD8BF
:104AF000FFF782FFFFF78EFF1E484FF0FF33072CB2
:104B00004361C0F814311DD80361FFF775FF23021C
:104B100043F02403C360C36843F08003C3600369A8
:104B20005A07FCD4FFF768FF2046FFF7BDFF4FF49C
:104B3000003100F045F9FFF78FFF2046BDE8104037
:104B4000FFF7C0BFC0F81031FFF756FFA4F108030C
:104B50001B0243F02403C0F80C31D0F80C3143F0B1
:104B60008003C0F80C31D0F810315B07FBD4D9E7D3
:104B7000002010BD002000522DE9F84F40EA02034A
:104B800005460E461746DB0656D13446DFF8C09080
:104B9000DFF8C0A0FFF73EFF3B1B33441F2B04D8B8
:104BA000FFF75AFF0120BDE8F88F20222146284652
:104BB00000F08EFD002837D005F17843214A2248C5
:104BC0009342224B98BF984603F5827392BFD34617
:104BD000C8469B46A3F1080388BF1846FFF70CFFA1
:104BE0004FF0FF3304F11C01A5EB040ECBF80030AD
:104BF000036843F002030360231FD8F8002012F07B
:104C0000050FFAD153F8042F99424EF80320F4D13E
:104C1000BFF34F8FFFF7F0FE4FF0FF33CBF80030BC
:104C2000036823F00203036020222146284600F097
:104C30004FFD20B1FFF710FF0020BDE8F88F2035B1
:104C40002034A9E7FFFF0F000C2000521020005273
:104C5000102100521420005210B5084C237828B1BE
:104C600053B9FFF7D7FE0123237010BD23B1207085
:104C7000BDE81040FFF7F0BE10BD00BF005400209B
:104C800038B50024044D2B1960590C34596800F0D4
:104C9000A9F83C2CF7D138BD7C5E000838B500F08F
:104CA00065F9074B1A68824207D9064AD2E90045DE
:104CB000003445F10105C2E90045186038BD00BF68
:104CC000045400200854002070B5FFF781FD06460B
:104CD000FFF7E4FF054BD3E900452418304645F1C2
:104CE0000005FFF77FFD2046294670BD08540020CF
:104CF00038B5FFF76DFD0546FFF7D0FF044628469F
:104D0000FFF770FD204638BD08B5FFF7DDFF4FF413
:104D10007A720023FBF7E0FA08BD00BF02440439B1
:104D2000064BD2B210B5904200D110BD441C00B267
:104D300053F8200041F8040FE0B2F4E75040005867
:104D40000F4B30B51C6F240405D41C6F1C671C6FFF
:104D500044F400441C670B4C024404392368D2B26B
:104D600043F480732360084B904200D130BD441C53
:104D700051F8045F00B243F82050E0B2F4E700BFFE
:104D800000440258004802585040005807B501221C
:104D900001A90020FFF7C2FF019803B05DF804FBF2
:104DA00013B50446FFF7F2FFA04206D002A9012284
:104DB000002041F8044DFFF7C3FF02B010BD000012
:104DC0000144BFF34F8F064B884204D3BFF34F8F8C
:104DD000BFF36F8F7047C3F85C022030F4E700BF69
:104DE00000ED00E00144BFF34F8F064B884204D32F
:104DF000BFF34F8FBFF36F8F7047C3F8700220303F
:104E0000F4E700BF00ED00E070470000074B45F2FB
:104E100055521A6002225A6040F6FF729A604CF6B0
:104E2000CC421A600122024B1A70704700480058A9
:104E300011540020034B1B781BB14AF6AA22024BE7
:104E40001A6070471154002000480058034B1B683B
:104E50005B0142BF0122024B1A707047D0440258D6
:104E6000105400204FF48032014B1A60704700BF8D
:104E7000D0440258014B1878704700BF10540020EE
:104E8000F0B5BFF34F8FBFF36F8F1D4B0021C3F8F9
:104E90005012BFF34F8FBFF36F8F5A6942F4003245
:104EA0005A61BFF34F8FBFF36F8FC3F88410BFF306
:104EB0004F8FD3F8802043F6E076C2F3C904C2F3E3
:104EC0004E32A507520102EA060E284621464EEA56
:104ED0000007013900F14040C3F860724F1CF6D161
:104EE000203A12F1200FEED1BFF34F8F5A6942F4EE
:104EF00080325A61BFF34F8FBFF36F8FF0BD00BF99
:104F000000ED00E0FEE70000084A094B09498B422A
:104F100004D3094A0021934205D3704752F8040F85
:104F200043F8040BF3E743F8041BF4E7B46000080C
:104F30001C5400201C5400201C54002000F0ACB86D
:104F4000034B002258631A610222DA60704700BFE7
:104F5000000C00400022014BDA607047000C00405A
:104F6000014B5863704700BF000C0040014B586A6A
:104F7000704700BF000C00404B6843608B68836043
:104F8000CB68C3600B6943614B6903628B69436201
:104F90000B6803607047000008B52C4B40F2FF71AE
:104FA0002B48D3F888200A43C3F88820D3F88820F8
:104FB00022F4FF6222F00702C3F88820D3F8882089
:104FC000D3F8E0200A43C3F8E020D3F808210A43CD
:104FD000C3F808211F4AD3F808311146FFF7CCFF68
:104FE0001D4802F11C01FFF7C7FF1C4802F1380100
:104FF000FFF7C2FF1A4802F15401FFF7BDFF19483D
:1050000002F17001FFF7B8FF174802F18C01FFF7BA
:10501000B3FF164802F1A801FFF7AEFF144802F1F2
:10502000C401FFF7A9FF134802F1E001FFF7A4FF55
:10503000114802F1FC01FFF79FFF104802F58C7147
:10504000FFF79AFFBDE8084000F014B90044025889
:1050500000000258B85E0008000402580008025818
:10506000000C025800100258001402580018025890
:10507000001C025800200258002402580028025840
:1050800008B500F0DBFAFFF735FBBDE80840FFF795
:10509000DDBE000070470000114BD3F8E82042F05D
:1050A0000802C3F8E820D3F8102142F00802C3F840
:1050B00010210C4AD3F81031D36B43F00803D363AB
:1050C000C722094B9A624FF0FF32DA6200229A61DE
:1050D0005A63DA605A6001225A611A60704700BF51
:1050E000004402580010005C000C0040094A08B55A
:1050F0001369D1680B40D9B29B076FEA01011161B6
:1051000007D5202383F31188FFF720FB002383F3C7
:10511000118808BD000C0040F8B5514B0024D3F8AD
:1051200080204FF0FF32C3F88020D3F88010C3F8FE
:105130008040D3F88010D3F88410C3F88420D3F8CB
:105140008410C3F88440D3F88410D96F41F0FF4134
:1051500041F4FF0141F4DF4141F07F01D967D96F8C
:1051600021F0FF4121F4FF0121F4DF4121F07F0113
:10517000D967D96FD3F888106FEA41516FEA51515E
:10518000C3F88810D3F88810C1F30A01C3F8881057
:10519000D3F88810D3F89010C3F89020D3F890106B
:1051A000C3F89040D3F89010D3F89410C3F894202B
:1051B000D3F89410C3F89440D3F89410D3F898100F
:1051C000C3F89820D3F89810C3F89840D3F89810F3
:1051D000D3F88C10C3F88C20D3F88C10C3F88C4013
:1051E000D3F88C10D3F89C10C3F89C20D3F89C20E3
:1051F000C3F89C40D3F89C3000F0F4F9194B062218
:105200009A60194ADA60194A1A6105225A60184AE6
:10521000536A43F480335362C2F88440BFF34F8F24
:10522000D2F8803043F6E076C3F3C904C3F34E33BB
:10523000A5075B0103EA060E284621464EEA000751
:10524000013900F14040C2F874724F1CF6D1203B86
:1052500013F1200FEED1BFF34F8FBFF36F8FF8BD67
:105260000044025890ED00E0000004301B000803E9
:1052700000ED00E00122604B1A60604BD3F8F4208F
:1052800042F00202C3F8F420D3F81C2142F00202DB
:10529000C3F81C210222D3F81C31594BDA605A683A
:1052A0009204FCD5574A4FF440411A6001229A609B
:1052B000554ADA6000221A619961544BDA6203F5AB
:1052C00011339A699004FCD51A6842F480721A600E
:1052D0004A4B1A6F12F4407F04D04FF480321A67A1
:1052E00000221A671A6842F001021A60434A134604
:1052F00011684907FCD5002111611A6912F03802C2
:10530000FBD1012119604FF0804159604FF00051ED
:10531000D9605A673E4ADA623E4A1A611A6842F414
:1053200080321A60354B1A689203FCD53A4A3B49E1
:105330009A6200225A6319633949DA6399635A649D
:10534000384A1A64384ADA621A6842F0A8521A6077
:105350002A4B1A6802F02852B2F1285FF9D148228C
:105360009A614FF48862DA6140221A622F4ADA6445
:105370004FF000521A652E4A5A652E4A9A6532221B
:105380002D4B1A601A6802F00F02022AFAD11B4B49
:105390001A6942F003021A611A6902F03802182AE7
:1053A000FAD1D3F8DC2042F00052C3F8DC20D3F865
:1053B000042142F00052C3F80421D3F80421D3F8A9
:1053C000DC2042F08042C3F8DC20D3F8042142F014
:1053D0008042C3F80421D3F80421D3F8DC2042F042
:1053E0000042C3F8DC20D3F8042142F00042C3F8A5
:1053F0000421D3F804317047088100510044025859
:105400000048025800C000F00200000100040058EB
:105410000000FF010088900832306000630207013D
:105420001802030347040508FD0BFF0100000120DB
:105430000010E00000010100002000524FF0B042D7
:1054400008B5D2F8883003F00103C2F8883023B1E0
:10545000044A13680BB150689847BDE80840FEF74E
:1054600069BD00BFD84C00204FF0B04208B5D2F85B
:10547000883003F00203C2F8883023B1044A9368ED
:105480000BB1D0689847BDE80840FEF753BD00BF98
:10549000D84C00204FF0B042D2F8883003F004031B
:1054A000C2F88830FEF746BD4FF0B04208B5D2F8DA
:1054B000883003F00803C2F8883023B1044A9369A6
:1054C0000BB1D0699847BDE80840FEF733BD00BF77
:1054D000D84C00204FF0B042D2F8883003F01003CF
:1054E000C2F88830FEF726BD4FF0B04310B5D3F8B0
:1054F000884004F47872C3F88820A30604D5124AC1
:10550000936A0BB1D06A9847600604D50E4A136BB4
:105510000BB1506B9847210604D50B4A936B0BB126
:10552000D06B9847E20504D5074A136C0BB1506C59
:105530009847A30504D5044A936C0BB1D06C9847E7
:10554000BDE81040FEF7F6BCD84C00204FF0B04349
:1055500010B5D3F8884004F47C42C3F88820620573
:1055600004D5164A136D0BB1506D9847230504D529
:10557000124A936D0BB1D06D9847E00404D50F4AE1
:10558000136E0BB1506E9847A10404D50B4A936E6D
:105590000BB1D06E9847620404D5084A136F0BB163
:1055A000506F9847230404D5044A936F0BB1D06F12
:1055B0009847BDE81040FEF7BDBC00BFD84C0020A6
:1055C00008B50348FEF778FDBDE80840FEF7B2BC19
:1055D000584D002008B5FFF789FDBDE80840FEF7EB
:1055E000A9BC0000062108B50846FEF7EBFD062120
:1055F0000720FEF7E7FD06210820FEF7E3FD062160
:105600000920FEF7DFFD06210A20FEF7DBFD06215B
:105610001720FEF7D7FD06212820FEF7D3FD09212C
:105620007A20FEF7CFFD07213220FEF7CBFD0C21BB
:105630002520BDE80840FEF7C5BD000008B5FFF70E
:105640006BFDFEF7A1FCFEF767FFFFF723FDBDE84A
:105650000840FFF773BC00000B460146184600F0F7
:1056600021B8000000F02CB81FB51C46094B1B6880
:105670000546D86852B1084B02928DE80A002246CE
:105680002B460649FDF7B8FA00F0A6F8044B1A4677
:10569000F2E700BF24250020EC5F0008F95F000856
:1056A000FB58000810B5054C13462CB10A460146BC
:1056B0000220AFF3008010BD204610BD00000000A6
:1056C000024B0146186800F031B800BF24250020C5
:1056D00010B501390244904201D1002010BD10F8EC
:1056E000013B11F8014FA342F5D0181B10BD00007B
:1056F0002DE9F8430746884691461E468BB10D4674
:10570000A8EB0500B54207EB000402D20020BDE87B
:10571000F883324649462046FFF7DAFF18B1013DCB
:10572000EEE7BDE8F8832046BDE8F88338B50546C6
:10573000002945D051F8043C0C1F002BB8BFE418D9
:1057400000F052F81F4A1368104633B963601460C2
:105750002846BDE8384000F049B8A3420CD921687A
:105760006218934204BF1A685B68636004BF5218F2
:1057700022600460ECE713465A680AB1A242FAD9E3
:1057800019685818A0420BD1206801445818824269
:105790001960DDD1106852685A6001441960D7E77A
:1057A00002D90C232B60D3E7206821188A4204BF5A
:1057B00011685268626004BF091821605C60C7E725
:1057C00038BD00BF14540020034611F8012B03F824
:1057D000012B002AF9D1704708B5062000F030F8F7
:1057E0000120FFF701F9000070470000704700003A
:1057F0001F2938B504460D4604D9162303604FF01F
:10580000FF3038BD426C12B152F821304BB92046FE
:1058100000F030F82A4601462046BDE8384000F046
:1058200017B8012B0AD0591C03D11623036001209D
:1058300038BD002442F8254028469847002038BD4E
:10584000024B01461868FFF7D3BF00BF2425002094
:1058500038B5074C00230546084611462360FFF77C
:10586000C7F8431C02D1236803B12B6038BD00BFC9
:1058700018540020FFF7B6B81210121312110000CE
:1058800040A2E4F1646891064E6F2061707020734D
:1058900069670A00426164206677206C656E6774F0
:1058A000682025750A0042616420626F6172645F3E
:1058B00069642025752073686F756C6420626520AB
:1058C00025750A00426164206170702043524320B4
:1058D0003078253038783A3078253038782030786C
:1058E000253038783A3078253038780A00476F6F9D
:1058F00064206669726D776172650A00726563651E
:10590000697665645F756E697175655F69645F6C02
:10591000656E203C2055415643414E5F50524F54D6
:105920004F434F4C5F44594E414D49435F4E4F44A6
:10593000455F49445F414C4C4F434154494F4E5F92
:10594000554E495155455F49445F4D41585F4C455F
:105950004E475448002E2E2F2E2E2F546F6F6C73EF
:105960002F41505F426F6F746C6F616465722F637B
:10597000616E2E63707000616C6C6F63617465643E
:105980005F6E6F64655F6964203C3D203132370093
:105990006F72672E6375626570696C6F742E4865EF
:1059A0007265426174744D6F6E000000766F6964B9
:1059B0002068616E646C655F616C6C6F63617469B3
:1059C0006F6E5F726573706F6E73652843616E6191
:1059D0007264496E7374616E63652A2C2043616E34
:1059E00061726452785472616E736665722A29001E
:1059F00001105A00031059000120580003205600DE
:105A000053544D333248373F3F3F0053544D3332A8
:105A1000483734332F3735330000000043414E46BA
:105A20004449666163653A204D657373616765201B
:105A300052414D204F766572666C6F7721000000F1
:105A40004261642043414E496661636520696E642A
:105A500065782E000000000000000000AD24000862
:105A6000612A0008B51E0008D11E0008892200081E
:105A700021200008C91F0008CD1F0008B91E00081A
:105A8000C11E0008BD1E000809200008C91E00082C
:105A900063616E617264496E6974000063616E6176
:105AA00072645365744C6F63616C4E6F64654944F6
:105AB0000000000063616E61726448616E646C6531
:105AC00052784672616D650063616E61726444650F
:105AD000636F64655363616C6172000063616E6142
