:020000040800F2
:1000000000050020A9050008B52B0008B92B000841
:100010000D2C0008B92B0008E12B0008AB050008E7
:10002000AB050008AB050008AB050008913E0008D1
:10003000AB050008AB050008AB050008AB050008E0
:10004000AB050008AB050008AB050008AB050008D0
:10005000AB050008AB050008A5530008D153000804
:10006000FD530008115400083D540008AB0500087A
:10007000AB050008AB050008AB050008AB050008A0
:10008000AB050008AB050008AB050008D12A000845
:10009000AB050008312B0008AB05000851540008DF
:1000A000AB050008AB050008AB050008AB05000870
:1000B000AB050008AB050008AB050008AB05000860
:1000C000AB050008AB050008AB050008AB05000850
:1000D000AB05000829550008AB050008AB05000872
:1000E000B5540008AB050008AB050008AB050008D7
:1000F000AB050008AB050008AB050008AB05000820
:10010000AB050008AB0500083D550008AB0500082D
:10011000AB050008AB050008AB050008AB050008FF
:10012000AB050008AB050008AB050008AB050008EF
:10013000AB050008AB050008AB050008AB050008DF
:10014000AB050008AB050008AB050008AB050008CF
:10015000AB050008AB050008AB050008AB050008BF
:10016000AB050008AB050008AB050008AB050008AF
:10017000AB050008AB050008AB050008AB0500089F
:10018000AB050008AB050008AB050008AB0500088F
:10019000AB050008AB050008AB050008AB0500087F
:1001A000AB050008AB050008AB050008AB0500086F
:1001B000AB050008AB050008AB050008AB0500085F
:1001C000AB050008AB050008AB050008AB0500084F
:1001D000AB050008AB050008AB050008AB0500083F
:1001E000AB050008AB050008AB050008AB0500082F
:1001F000AB050008AB050008AB050008AB0500081F
:10020000AB050008AB050008AB050008AB0500080E
:10021000AB050008AB050008AB050008AB050008FE
:10022000AB050008AB050008AB050008AB050008EE
:10023000AB050008AB050008AB050008AB050008DE
:10024000AB050008AB050008AB050008AB050008CE
:10025000AB050008AB050008AB050008AB050008BE
:10026000AB050008AB050008AB050008AB050008AE
:10027000AB050008AB050008AB050008AB0500089E
:10028000AB050008AB050008AB050008AB0500088E
:10029000AB050008AB050008AB050008AB0500087E
:1002A000411A0008000000000000000000000000EB
:1002B00053B94AB9002908BF00281CBF4FF0FF31CD
:1002C0004FF0FF3000F06EB9ADF1080C6DE904CECF
:1002D00000F006F8DDF804E0DDE9022304B0704721
:1002E0002DE9F047089D04468C46002B40F08380A2
:1002F0008A42174647D9B2FA82F242B1C2F12000CF
:1003000024FA00F09140974040EA010C94404FEAF3
:100310001748230CBCFBF8F61FFA87FE08FB16C132
:1003200043EA014306FB0EF1994209D9FB1806F195
:10033000FF3080F01981994240F21681023E3B4421
:100340005B1AA4B2B3FBF8F008FB103344EA034491
:1003500000FB0EFEA64509D93C1900F1FF3380F0E1
:100360000581A64540F2028102383C4440EA06403D
:10037000A4EB0E0400261DB1D4400023C5E90043C0
:100380003146BDE8F08702B9FFDEB2FA82F2002AF8
:1003900050D1CB1B4FEA174E1FFA87F80126B3FB4B
:1003A000FEFC210C0EFB1C3341EA034108FB0CF35D
:1003B0008B4207D979180CF1FF3002D28B4200F240
:1003C000E9808446C91AA3B2B1FBFEF00EFB1011FE
:1003D00043EA014408FB00F8A04507D93C1900F1A5
:1003E000FF3302D2A04500F2D9801846A4EB0804DE
:1003F00040EA0C40BFE78B4209D9002D00F0B180E4
:100400000026C5E9000130463146BDE8F087B3FA61
:1004100083F6002E4AD18B4202D3824200F2B8808A
:10042000841A61EB030101208C46002DA8D0C5E998
:10043000004CA5E7C2F1200320FA03F6974001FA29
:1004400002F04FEA174ED9403043030CB1FBFEF6E1
:100450001FFA87F80EFB161143EA014306FB08F169
:10046000994204FA02F409D9FB1806F1FF3C80F026
:100470008D80994240F28A80023E3B445B1A81B2F1
:10048000B3FBFEF00EFB103341EA034100FB08F31F
:100490008B4207D9791800F1FF3C73D28B4271D996
:1004A00002383944CB1A40EA064678E7C6F1200CF8
:1004B00003FA06F422FA0CF31C4320FA0CF701FAB3
:1004C00006F34FEA144E21FA0CF11F433B0CB1FB2B
:1004D000FEF91FFA84F80EFB191143EA014109FBEA
:1004E00008FA8A4502FA06F200FA06F308D96118FA
:1004F00009F1FF3048D28A4546D9A9F102092144C1
:10050000A1EB0A01BFB2B1FBFEF00EFB101147EAEE
:10051000014700FB08F8B84507D9E71900F1FF319A
:100520002ED2B8452CD90238274440EA0940A7EB1F
:100530000807A0FB02894F45C64649461AD317D083
:100540005DB1B3EB0E0267EB010707FA0CFCF2405A
:100550004CEA0202F740C5E9002700263146BDE813
:10056000F0872E4628460BE70646E9E61846FDE6E4
:100570004345E5D2B8EB020E69EB04010138DFE731
:100580000846D2E760468DE78146B9E7664675E7DB
:1005900030464AE7ACF1020C394413E702383C44D8
:1005A00024E700BF704700BF02E000F000F8FEE75C
:1005B00072B6394880F30888384880F3098838488B
:1005C0004EF60851CEF20001086040F20000CCF275
:1005D00000004EF63471CEF200010860BFF34F8F79
:1005E000BFF36F8F40F20000C0F2F0004EF688516A
:1005F000CEF200010860BFF34F8FBFF36F8F4FF053
:100600000000E1EE100A4EF63C71CEF200010860E7
:10061000062080F31488BFF36F8F04F0EFFB04F023
:1006200073FC4FF055301F491B4A91423CBF41F8C3
:10063000040BFAE71C49194A91423CBF41F8040BEC
:10064000FAE71A491A4A1B4B9A423EBF51F8040B6B
:1006500042F8040BF8E700201749184A91423CBFC2
:1006600041F8040BFAE704F007FC04F0C1FC144C59
:10067000144DAC4203DA54F8041B8847F9E700F044
:1006800041F8114C114DAC4203DA54F8041B884771
:10069000F9E704F0EFBB0000000500200025002072
:1006A000000000080001002000050020485F00084D
:1006B00000250020882500208825002024540020C3
:1006C000A0020008A4020008A4020008A402000876
:1006D0002DE9F04F2DED108AC1F80CD0D0F80CD0D8
:1006E000BDEC108ABDE8F08F002383F31188284603
:1006F000A047002004F0A0F8FEE703F0D9FF00DFD8
:10070000FEE700002DE9F0417A23314C00252370EB
:100710000523A57063701E23E57025716571A571B1
:10072000E57125726572A372E57201F0B3FA20B12A
:100730000E2325726572A372E57204F017FB07465B
:1007400004F05AFB054690BB224B9F422FD0013349
:100750009F422FD027F0FF021F4B9A422ED1A8466E
:1007600042F21074F8B200F06BFD00F0BDFF00F033
:100770006DFD064630B33CBB464635B1174B9F4234
:1007800003D0002404F036FB2646002004F0F8FADB
:100790000EB100F06BF801F03FFB00F0C9FF01F073
:1007A000C1F9204600F0FEF800F060F8F9E7A8462D
:1007B0000024DAE704464FF00108D6E7804641F20C
:1007C0008834D2E70446D8E74FF47A74D5E700BFFF
:1007D00088250020010007B0000008B0263A09B0C3
:1007E00008B501F041F9A0F120035842584108BD75
:1007F00007B541F21203022101A8ADF8043001F05F
:1008000081F903B05DF804FB202310B583F3118850
:100810001248C3680BB104F089F80023104A4FF462
:100820007A710E4804F044F8002383F311880D4CCC
:10083000236813B12368013B2360636813B16368C5
:10084000013B6360084B1B7833B9636823B902200E
:1008500001F064FA3223636010BD00BF94250020CC
:1008600009080008B0260020A8250020F8B5444A51
:10087000444B1968013100F0818004339342F8D170
:10088000414C424B22689A4278D9414B9B6803F114
:10089000006303F500339A4270D204F0A5FA04F025
:1008A000A5FA002001F058F902203A4B187001F027
:1008B00025FA394BD3F8E8200022C3F8E820D3F812
:1008C0001011C3F81021D3F81011D3F8EC10C3F8AD
:1008D000EC20D3F81411C3F81421D3F81411D3F871
:1008E000F010C3F8F020D3F81811C3F81821D3F88A
:1008F000183172B6234B29490B6018682468BFF37E
:100900004F8FBFF36F8F264BC3F88420BFF34F8FF9
:100910005A6922F480325A61BFF34F8FD3F8802096
:1009200043F6E076C2F3C905C2F34E32520102EA41
:10093000060C29464CEA81770139C3F87472F9D262
:10094000203A12F1200FF2D1BFF34F8FBFF36F8F18
:10095000BFF34F8FBFF36F8F5A6922F400325A6191
:100960000022C3F85022BFF34F8FBFF36F8F2023B5
:1009700083F31188854680F308882047F8BD00BFBF
:10098000200002080000020804000208FFFF01081E
:1009900088250020A82500200044025808ED00E02A
:1009A00000ED00E02DE9F04F95B0B64C2022FF217C
:1009B00001900CA8A76801F0D5F9B34A0294137806
:1009C000A3B90121B1481170C360202383F31188BA
:1009D000C3680BB103F0AAFF0023AD4A4FF47A714C
:1009E000AA4803F065FF002383F31188019B13B12C
:1009F000A84B019A1A600023A74A019E13709946DA
:100A0000A44A1D461C469846DFF898B25360012060
:100A100001F074F926B19F4B1B68002B00F0058292
:100A2000002001F021F80590059B002B01DA00F071
:100A3000C3FE059B002BEDDB012001F051F9059B66
:100A4000213B122BE3D801A252F823F0990A0008A7
:100A5000C10A00082F0B00080F0A00080F0A00083F
:100A60000F0A0008C30B0008970D0008A90C000826
:100A7000130D00083B0D0008610D00080F0A000867
:100A8000730D00080F0A0008E90D0008B10B0008FB
:100A90000F0A0008310E00080220FFF7A1FE00280F
:100AA00040F0ED81019BB9F1000F08BF1E4641F2F5
:100AB0001233022107A8ADF81C3001F023F8A6E795
:100AC0004FF47A7000F0D0FF031E0393EADB02209C
:100AD000FFF786FE82460028E4D0039B581E0428B8
:100AE00000F2CF81DFE800F0030D1013160005239C
:100AF000042107A8079301F005F855464FF00008B8
:100B000056E004215F48F6E704216448F3E7042136
:100B10006348F0E71C252846043501F01FF804213E
:100B2000079007A800F0EEFF2C2DF4D1E5E7002C8C
:100B3000B8D0002DB6D00220FFF752FE04460028A0
:100B400000F0A2810120002501F006F80220524B9E
:100B5000187001F0D3F85FFA85F9484601F00CF8F7
:100B6000064658B14846013501F016F80028F2D182
:100B70002546A146064641F212139AE70123464A4A
:100B800037460220137001F0ABF8029B9B68BB4212
:100B900007D9384600F0E2FF013040F07781043792
:100BA000F3E700273C4BA14625461F70394B5F6099
:100BB00001F028F914B1002D18BF0026FFF718FE28
:100BC00025E7002C3FF46EAF002D3FF46BAF022001
:100BD000314B187001F092F8322000F045FFB0F16F
:100BE000000AC0F251811AF0030440F04D81029ACC
:100BF0000AEB07039268934200F24681BAF5807FC0
:100C000000F34281274BA24503930EDD4FF47A7027
:100C100000F02AFF0590059A002AC0F23581059A56
:100C20000134039B03F8012BEDE7C820FFF7D8FD43
:100C30000446002800F028811F2F11D8C7F1200298
:100C40000CAB27F0030059465245184428BF5246C2
:100C5000039201F075F8039AFF21584601F082F8DB
:100C60004FEAAA03CAF3870259463846039301F0B4
:100C700081F80546002800F00C81039B044607EB31
:100C8000830795E788250020AC26002094250020C6
:100C900009080008B0260020A82500208C25002087
:100CA00090250020AC2500200220FFF799FD0028A8
:100CB0003FF4F8AE00F08AFF00283FF4F3AE4FF0A7
:100CC000000A5346029A926852451CD9BAF11F0F86
:100CD00012D80C9A01320FD02AF0030214A90A4448
:100CE00052F8202C07921846042207A90AF1040A98
:100CF00002F0E8F80346E5E75046039300F02EFFC4
:100D0000039B0790EFE70793042107A800F0FAFE82
:100D10004EE70023642106A8069300F0CFFE0028CA
:100D20007FF4C0AE0220FFF75BFD00283FF4BAAEAF
:100D3000069800F043FF0790E6E70023642106A829
:100D4000069300F0BBFE00287FF4ACAE0220FFF754
:100D500047FD00283FF4A6AE069800F031FFEAE711
:100D60000220FFF73DFD00283FF49CAE00F03EFF5F
:100D7000E1E70220FFF734FD00283FF493AE07A916
:100D8000142000F039FF82460421069006A800F0E6
:100D9000B9FE5146B9E7322000F066FEB0F1000A14
:100DA000FFF680AE1AF0030F7FF47CAE029A0AEBD6
:100DB0000803926893423FF675AE0220FFF710FDDC
:100DC00000283FF46FAE2AF0030AC244D0453FF436
:100DD000EFAE404608F1040800F0C0FE0421079081
:100DE00007A800F08FFEF1E74FF47A70FFF7F8FCE8
:100DF00000283FF457AE00F0E9FE00283FF4BBAEF8
:100E00000C9B01330CD008220CA9002000F0B2FF8B
:100E100000283FF4B0AE2022FF210CA800F0A2FF72
:100E2000FFF7E6FC1C4803F00DFD15B0BDE8F08FA0
:100E3000002C3FF437AE002D3FF434AE0023642184
:100E400007A8079300F03AFE824600287FF42AAEF6
:100E50000220FFF7C5FC039000283FF423AEFFF704
:100E6000C7FC41F2883003F0EDFC079800F0E0FF8A
:100E7000564600F0C7FF039B1D461C46C7E50446C7
:100E800096E64FF000080DE62C460BE62546A146F7
:100E900071E625466FE600BFA0860100094949F2C8
:100EA00069000B689AB21B0C00FB0233064A0B6008
:100EB00044F25061136898B21B0C01FB00301060C3
:100EC00080B2704704250020002500200021102258
:100ED00010B5044600F046FF034B03CB2060616071
:100EE0001868A06010BD00BF00E8F11F2DE9F043B5
:100EF000204CBBB001F0A6FEA368C31AF92B32D96F
:100F000006AF234628220021A060384602F080FD6B
:100F100004F10E0000F01EFF002605465FFA80F97E
:100F200004F10E08F3B2F100994501F1280107D947
:100F300008EB060308223846013602F069FDF1E7A6
:100F4000082301220535217B0B48ADB2CDE90232E1
:100F50000A4B01933023CDE90475009303A3D3E931
:100F6000002302F00DFB3BB0BDE8F08378F6339F21
:100F700093CACD8D984B0020F0360020A54B002061
:100F800038B50B4B0446036041F23C03C21812799A
:100F90003AB9C5582DB1284601F058FE284604F04C
:100FA00015FB04F58150083001F050FE204638BD95
:100FB000D459000870B50D4614461E4602F084FA56
:100FC00050B9022E10D1012C0ED112A3D3E9002367
:100FD0000120C5E9002307E0282C10D005D8012CFA
:100FE00009D0052C0FD0002070BD302CFBD10BA3F5
:100FF000D3E90023ECE70BA3D3E90023E8E70BA335
:10100000D3E90023E4E70BA3D3E90023E0E700BF23
:10101000AFF30080401DA12026812A0B78F6339F74
:1010200093CACD8D9E6AC421818A46EE2641727292
:10103000DF25D7B7F017304A39059E5613B5044659
:101040000846202200212346019002F0E1FC22798B
:1010500023460198032A4FF0200128BF032203F8FA
:10106000042F022202F0D4FC627923460198072A59
:101070004FF0220128BF072203F8052F032202F0B8
:10108000C7FCA27923460198072A4FF0250128BF03
:10109000072203F8062F032202F0BAFC019804F19C
:1010A00008031022282102F0B3FC382002B010BD42
:1010B0002DE9F04FADF5017D0F46002140F275128C
:1010C0000EAE804622A8219100F04CFE482200215D
:1010D000304600F047FE21AD01F0B4FD4FF47A72C6
:1010E000554B0DF15A09B0FBF2F0186093E8070078
:1010F000012386E807000DF15A003382FFF7E6FE70
:1011000047F605234D49338407AB184604F00EFB20
:10111000192229463064304686F83C20FFF78EFFBE
:1011200012AB044601460822284602F071FC082250
:101130000DF149032846A11804F1880A02F068FC61
:101140000DF14A03082204F11001284604F5847BBE
:1011500002F05EFC13AB202204F11801284602F0D5
:1011600057FC14AB402204F13801284602F050FC31
:1011700016AB082204F17801284602F049FC0DF173
:101180005903082204F18001284602F041FC51462F
:101190000AF1080A4B460822284609F1010902F023
:1011A00037FCD345F3D104F588744FF000091BAB2D
:1011B00008225946284602F02BFC96F834304B455D
:1011C0000AD9B36B2146082228464B44083409F15A
:1011D000010902F01DFCF0E74FF0000996F83C30E1
:1011E00004EBC9014B4508D9336C082228464B440F
:1011F00009F1010902F00CFCF0E700230731404639
:101200000393C1F3CF01BB7E029307F1190301934E
:101210000123CDE904510093F97E05A3D3E900230E
:1012200002F0AEF90DF5017DBDE8F08FAFF300805F
:101230009E6AC421818A46EEB8260020F457000831
:10124000014B1870704700BFE4260020304BF0B50A
:101250001C7B85B034B12F4B0E221A81002420460E
:1012600005B0F0BD2C4A02AB1068516803C30823D7
:101270002A492B480DEB030204F0ECF9054630B97E
:10128000244B0A2227481A8101F08AFCE6E701690B
:10129000B1F5F01F06D91F4B0B2223481A8101F02C
:1012A0007FFCDCE7438B40F27A52934207D0194926
:1012B0000C20088119461D4801F072FCCFE71C4A3A
:1012C000024402F110039942E5D3103920468E1AE8
:1012D000134901F0F7FD05F1180107463246204693
:1012E00001F0F0FDAB689F4202D1EB6898420AD052
:1012F000084B0D221A813B4600900E48D5E9021298
:1013000001F04EFCAAE70C48012401F049FCA6E7D5
:10131000984B0020B826002084580008DCFF1D00F0
:1013200000000208105800081C5800082E58000839
:101330000800FEF74C580008755800082DE9F04FDA
:10134000B3B005460E4606AF02F0BEF804460028CC
:101350006FD1337E022B19D1F38A012B16D101F004
:1013600071FC8146FFF79AFD4FF4C87309F51679B1
:10137000B84AB0FBF3F101FB1303904619FA83F36B
:101380001360F37EA3B9B44B00221A70B437BD4684
:10139000BDE8F08F07F11C0304F101090822304673
:1013A0001C444FEAC901002300944C4602F07EF928
:1013B000B38A5FFA84F9013BA34208D9102CE9D122
:1013C000A64B4FF4A171A64AA64804F001F907F113
:1013D0002C00FFF77BFD224607F12C0107F11C00D2
:1013E00004F02AF90028CED1B9F1100F09D09A4B98
:1013F00083F80090D8F80030A3F51673C8F80030D1
:10140000C4E707F11B030146F87607220093034661
:10141000304602F04BF997F91B30F97E002B04DAC5
:10142000914B40F259118E4ACEE7284602F030F82F
:10143000ACE7F38A282B26D010D8012B1ED0052B21
:10144000A4D1BFF34F8F8949894BCA6802F4E06287
:101450001343CB60BFF34F8F00BFFDE7302B95D117
:10146000737EEB46834C0133627BDBB2934203D144
:10147000F27E237B9A4273D0DD4687E731462846C9
:10148000FFF716FE82E7B38A013B9BB2C92B3FF6FA
:101490007DAF784C2022FF21774800F063FC94F860
:1014A0000C80B8F1000F26D104F10C03082241464C
:1014B00000934346304602F0F9F808F101035FFA61
:1014C00088F2D9009846B38A013B9A4205DA0E3277
:1014D0000023224400920822ECE700230022C4E902
:1014E00000230023A36084F8D730C4F8D830237BCE
:1014F0000BB9F37E2373002407F12C0807F11C03BA
:101500000822214640467C62C7E907443C7702F046
:101510007FFA97F8203004F10109A3424FEAC90C81
:1015200008D97B6A08226146404623444C4602F0B3
:101530006FFAEEE7CCF3CF03F17E19362846CDE9FA
:101540000483002303937378019602932823009366
:101550003EA3D3E9002302F013F8FFF7C7FC15E719
:101560004FF0000807F12C0310223046A7F82C801A
:1015700041460093012302F099F8B58A023DADB2CD
:10158000EB1C9B109B000733DB08ABEBC3039D46B2
:101590000DF118091FFA88F34FEAC801AB4201F1B7
:1015A00010010AD209EB08030822304608F10108AD
:1015B0000093002302F07AF8ECE794F8D70000F0EB
:1015C000DBFAD4F8D83082461BB994F8D70000F083
:1015D000E3FAD4F8D8302B449A4504D294F8D700D3
:1015E000013000F0D9FAAB080026494609EB830325
:1015F000B446FB60FB6894F8D7008B42D4E90089BD
:101600003CD0A8B916EB08033B614CEB09037B61A6
:10161000D7E90423002B08BF202A09D2164B0A68F9
:1016200098190260043601F104014CF1000CE1E765
:10163000012206EB0800C7F804C0B96000F09AFB6D
:10164000D7E901C1EEE700BFAFF300802641727217
:10165000DF25D7B7EC360020E93600209058000887
:10166000E95800082D5900084F59000800ED00E026
:101670000400FA05984B0020C426002018EB05084A
:10168000D4F8D86049F100092E44C4E90089C4F8AF
:10169000D86000F071FA86420AD394F8D730D4F8B3
:1016A000D8000133A0EB0A0084F8D730C4F8D80082
:1016B000FF2D0CD8002008220949207300F05AFBA6
:1016C00000F084FAFFF7C2FD08B1FFF7CFF82368F6
:1016D000044A9B0A013313810023A360CCE600BFB8
:1016E000C4260020B826002008B54FF000530C4A4D
:1016F000196891420BD1597D0A4A0B481170C922D1
:101700001B7D0E30094900F8023C00F019FBE02275
:1017100000214FF00050BDE8084000F023BB00BF9F
:101720009AAD44C5E4260020984B00201600002006
:1017300037B50223174D0122174918486B7100F085
:1017400093FE002316494FF4805216480193164B1E
:101750000093164B01F064FE154B197811B1114836
:1017600001F096FE01F06EFA0446FFF797FB4FF486
:10177000C87304F51674B0FBF3F202FB13030D4AB1
:1017800014FA83F3136003F037FB08B10F232B81A6
:1017900003B030BDB826002040420F0018370020AB
:1017A000E8260020F0360020B50F00083D130008A1
:1017B000E4260020EC3600202DE9F04F944C93B045
:1017C0008FA7D7E90067DFF85C824FF0000ADFF8E7
:1017D0005892204601F024FF024670B300250146CE
:1017E000DFF848B20E958DF84450CDE90F55037BD4
:1017F0008DF844300FAB51F8040F496803C31368E8
:1018000043F000430E9301F01FFA10EB080200951D
:10181000484641EB0A030EA900F064FBA84205DD2F
:10182000204601F001FF8BF80050D2E79BF8003012
:10183000072B48D801338BF8003000230DF12C081A
:10184000DFF8E491DFF8E8A10A938DF834300B93C8
:10185000C8F804304FF0000B00220023012507A92F
:1018600048468DF81C508DF81DB0CDE900235B462D
:101870000DF11D0201F0D0F89DF81C303BB3DAF8F1
:101880001430594610220EA883F00203CAF814300F
:1018900000F068FA0DF11E0308AA0AA9484600F0F4
:1018A000CDFC0FAB98E8030083E803009DF83430CB
:1018B0000EA920468DF844300A9B0E93DDE90823DB
:1018C00002F010F9C6E7204601F0AEFEB5E720466B
:1018D00001F0FAFD8046002849D1DFF8589101F067
:1018E000B1F9D9F80030984241D301F0ABF9824602
:1018F000FFF7D4FA4FF4C8730AF5167AB0FBF3F287
:1019000002FB13030EA81AFA83F3C9F80030DFF8BC
:10191000289199F800B0CBF1100ABBF1000F14BF69
:1019200043462B465FFA8AFA8DF82830FFF7CEFA45
:101930000EABBAF1060F0DF1290003EB0B0128BF26
:101940004FF0060A524600F0FBF90AAB0AF1010219
:10195000204603931823049202932E4BCDE90053A3
:1019600029A3D3E9002301F0B1FD89F8008001F03B
:1019700069F9294A294D1368C31AB3F57A7F33D31D
:10198000106001F061F902460B46204601F052FE5C
:10199000204601F099FD38B32B7B0DF13809DFF8B3
:1019A0009C80002B14BF0323022388F8053001F02C
:1019B00049F94FF47A734946B0FBF3F0C8F80000D8
:1019C0004046FFF73BFB1823073032460293144B87
:1019D000C0F3CF00019340F25513CDE9039000937B
:1019E00020463B4601F072FD2B7B2BB1FFF77EFAC0
:1019F0002B7B002B7FF4E7AE13B0BDE8F08F00BF68
:101A0000F1C6A7C1D068080F401DA12026812A0B6E
:101A1000F0360020E8360020784C0020984B00205B
:101A20007C4C002040420F00183700207D4C0020E5
:101A300000040258EC360020E9360020B8260020C9
:101A400010B5064C0021204600F036FC2046044A22
:101A50000449BDE8104003F0B3BD00BF18370020B3
:101A6000D44C0020810F0008114B73B51A78002464
:101A700001328DF80740D2B2012A12D80D4D012251
:101A80000DF107012B681E6A4FF47A734343284611
:101A9000B047012805D1084B9DF807001C7002B023
:101AA00070BD4FF4FA7002F0CDFE4FF0FF30F6E754
:101AB00008250020584D0020C44C002038B50E4B9E
:101AC0001A780132D2B2012A0FD80C4C04222368B2
:101AD0001D6A4FF47A734B4301462046A8470428F9
:101AE00003D10020064B187038BD4FF4FA7002F095
:101AF000A9FE4FF0FF30F7E708250020584D0020E1
:101B0000C44C002030B4054C0A46014623682046E8
:101B1000DD69034BAC4630BC604700BF584D002028
:101B2000A086010070B50A4C00250A4E02F0A8FFFD
:101B3000207030682378834208D902F09DFF336813
:101B400005440133B5F5003F3360F2D370BD00BFEB
:101B5000C54C0020804C002003F05AB800F1006012
:101B600000F500300068704700F10060920000F559
:101B7000003002F0E1BF0000054B1A68054B1B78EE
:101B80009B1A834202D9104402F076BF00207047AE
:101B9000804C0020C54C002038B5074D044628680D
:101BA000204402F06FFF28B928682044BDE838407F
:101BB00002F07ABF38BD00BF804C00200020704783
:101BC000014BC058704700BF00E8F11F064991F86B
:101BD000243033B100230822086A81F82430FFF74B
:101BE000C3BF0120704700BF844C0020014B186820
:101BF000704700BF0010005C244B254AF0B51B68FD
:101C000004461788C3F30B0056681B0C92F9085062
:101C1000B84228D09789B84206D101200C2505FB8F
:101C20000022566892F9085041F2010293421CD0FA
:101C300041F2030293421AD042F20102934218D0B9
:101C400042F20302934208BF5625621E0B46741EE1
:101C50000A4493420FD214F9016F581C6EB1034627
:101C600000F8016CF5E70020D8E75A25EDE7592583
:101C7000EBE75825E9E7184605E02C2490421C7054
:101C800001D2981C5D70401AF0BD00BF0010005CCE
:101C90000C250020104B41F201015A888A4213465C
:101CA00011D041F203018A420FD042F20102934265
:101CB0000DD042F2030293420BD10323074A02EBF9
:101CC0008303D87870470023F8E70123F6E702235F
:101CD000F4E70020704700BF0010005C8459000842
:101CE000022802D1044B98617047012802D1024BAF
:101CF00004229A61704700BF00040258022804D1F0
:101D0000054B4FF400329A6170470128FCD1024B19
:101D10004FF48022F7E700BF00040258022805D1E3
:101D2000064A536983F00203536170470128FCD1CE
:101D3000024A536983F00403F6E700BF0004025827
:101D4000002310B5934203D0CC5CC4540133F9E7AF
:101D500010BD000003460246D01A12F9011B0029EB
:101D6000FAD1704702440346934202D003F8011BA4
:101D7000FAE770472DE9F843214C154606460F4611
:101D800094F8242072BBDFF87880BDB394F8243037
:101D90002BB92022FF2140462662FFF7E3FF94F88B
:101DA00024003946C0F1080204EB8000AA4228BF93
:101DB0002A465FFA82F99200FFF7C2FF94F82430B6
:101DC000A5EB0905164499441744EDB25FFA89F969
:101DD000B9F1080F84F82490D7D1FFF7F7FE002857
:101DE000D3D108E0236A03EB82038342CBD0FFF711
:101DF000EDFE0028C7D10020BDE8F8830120FBE7F5
:101E0000844C0020024B1A78024B1A70704700BFB6
:101E1000C44C00200825002003494FF4E133034857
:101E20000B6002F069BB00BFAC4C0020584D002095
:101E3000074B0021182210B504461846FFF792FF01
:101E4000014604600348BDE8104002F055BB00BFE6
:101E5000AC4C0020584D0020202383F3118862B63B
:101E600070470000002383F3118862B670470000BA
:101E700001207047002070477047000041F2514335
:101E8000C05C704741F24A43C05C704750207047C5
:101E900008B5FFF7E1FF41F2744341F27042C358C5
:101EA0008258134441F26C428258134441F2584222
:101EB0008258134441F26442825800F5A3501344FF
:101EC00000681844FFF7CEFF08BD000008B5FFF713
:101ED000C3FF41F23C03C05800F0C2FEBDE8084019
:101EE000FFF7C0BFF8B541F254441E460359013311
:101EF00003510B6813F0005462D10B7B082B5FD8A1
:101F000041F24A43C35C002B5AD0FFF7A5FF436A56
:101F1000D3F8C450AD0208D541F25842835801337A
:101F200083502046FFF79EFFF8BD0D68D3F8C440EC
:101F3000C769002DC4F30444B4BF45F08045AD0427
:101F400007EB04173D600B685B004FEA046344BF76
:101F500045F000553D600D7B43EA05437B604B68CF
:101F6000BB608B68FB600123456AA340C5F8D03095
:101F700000EB441500EB441305F5825503F582533D
:101F8000C5E90226103301F10C0251F8045B9142BD
:101F900043F8045BF9D10A781A7004F18302BDF8A2
:101FA0001830550100EB421203F00301137944513C
:101FB000012003F0E0030B4343F010031371B1E77A
:101FC00041F258428358013383504FF0FF30ABE762
:101FD0002DE9F84341F24A430446C55C002D40F028
:101FE000F880037A032B40F08A802B4628462E4641
:101FF000DFB297420EDA01EBC70C51F83770002FB1
:1020000003DBDCF80470002F02DB01360133EFE75D
:102010000130FBE7FFF720FF636AF0B9D3F88000D7
:1020200040F00200C3F880005020636A002E69D19E
:10203000D3F8802042F00102C3F88020664B674A43
:102040001B6803F1805303F52C539B0093422362DA
:1020500040F2A880624800F0EDFD4F283DD8DFF83F
:1020600078E14FEA004CDFF87C81DEF800704CEA42
:10207000870CC3F884C007F180530744C0F15000B7
:1020800003F52C53CEF800709B00676AE360D7F825
:10209000803043F03003C7F880300027D4F80CE0DC
:1020A000BC46FBB29A42C0DD01EBC30951F83330A4
:1020B000002B10DBD9F80490B9F1000F0BDA08EA15
:1020C000034309F07F0943EA090343F008434EF84C
:1020D0002C300CF1010C0137E3E79A6922F0010280
:1020E0009A6100F0AFFD0646636A9B69D90704D583
:1020F00000F0A8FD831BFA2BF6D9FFF7B3FE2846A4
:10210000BDE8F883B6EB500F3BD2DFF8CCC0370404
:10211000DCF8000047EA800700EB4606C3F8887049
:1021200000F18053606A03F52C53CCF80060002660
:102130009B0037462361D0F8803043F00C03C0F891
:102140008030D4F810C0F3B29A427FF777AF51F8DD
:10215000330001EBC30E0028DEF8043001DB002B56
:102160000DDB20F0604023F0604340F0005043F06E
:1021700000434CF837000CEBC700013743600136D1
:10218000E1E79A6922F001029A6100F05BFD0646E0
:10219000636A9B69DA07B0D500F054FD831BFA2B04
:1021A000F6D9AAE7626A936923F00103936100F00C
:1021B00049FD0646636A9B69DB0705D500F042FDD1
:1021C000831BFA2BF6D998E7012541F24A43E554DF
:1021D00093E7002593E700BFD04C0020FCB50040FA
:1021E000945900080000FF0713B5044600680191E8
:1021F00000F062FD1F280AD920220199206800F012
:10220000D1FDA0F120035842584102B010BD00207A
:10221000FBE70000002202600273426082607047A8
:102220000022002310B5C0E90023002304460C302F
:1022300020F8043CFFF7EEFF204610BD2DE9F041E9
:1022400088B0054641F23C060C4690461F46FFF713
:1022500003FE6846FFF7E4FFA85900F013FD1F28AE
:1022600005D80020FFF7FEFD08B0BDE8F081202270
:102270006946A85900F01AFE2028F2D141F24A43DB
:10228000EB5C002BEDD003AD05AB2E46083403CE3E
:102290009E4244F8080C44F8041C3546F5D13068D9
:1022A0002060012033792371DDE90023C8E9002390
:1022B000BDF808303B80D5E72DE9F047234B0646B3
:1022C00000F58157044646F8283B894635460837CD
:1022D00028462035FFF7A4FFBD42F9D141F228037B
:1022E00041F2300241F23C0104F5A35AE6504FF4AA
:1022F000805360180AF1080A6B600023002600274B
:10230000A35041F234029846A35001222A7465502A
:1023100004F5835502710835A5F11800203545E90B
:102320001067FFF777FF45F8288C5545F4D141F247
:10233000504304F80390B9F1000F02D0044800F0B4
:1023400079FC044B20466362BDE8F087D45900084D
:10235000B859000800A000402DE9F047002950D0EE
:10236000294D2A4BAC4699428CBF09231023B5FB5B
:10237000F1F4581C5FFA83FEB4FBF0F500FB154046
:1023800030B1022B02D80020BDE8F087013BF0E716
:102390006F1EB7F5806FF6D2C3EBC3044FF47A76A5
:1023A000E31C4FEAE309C3F3C70309F1010AAEEBEB
:1023B000030809FB06665FFA88F05AFA88F8B6FB4C
:1023C000F8F6B6F5617FC1BF04F1FF33C3F3C7036D
:1023D000AEEB0306F0B21C1804FB0555BCFBF5F58B
:1023E000A942D0D1013BDBB20F2BCCD8411EC9B2E0
:1023F0000729C8D800201780D37090700120117170
:10240000C2E70846C0E700BF80F0FA023F420F0073
:1024100038B5124C416A2268930043F4D013C1F8D6
:10242000A03002F1805302F16801456A03F52C5394
:10243000E83289009B00226041F00051084A436164
:10244000C5F8C01003F5D07103F56873C1619342FC
:10245000036202D9034800F0EDFB38BDD04C0020E8
:10246000FCB500409459000841F250432DE9F04F6B
:10247000C35C89B004468A46012B164652D8854A69
:1024800052F8231009B942F823008349C4F804A084
:102490000B782672C3B9FFF7DFFC804BD3F8EC2032
:1024A00042F48072C3F8EC20D3F8942042F4807296
:1024B000C3F89420D3F8942022F48072C3F89420B7
:1024C00001230B70FFF7CEFC41F24943E35C9BB95B
:1024D000FFF7C2FC41F25043E35C3BB902211320F9
:1024E00001F058FE0221152001F054FE41F249434B
:1024F0000122E254FFF7B6FCFFF7AEFC626A936973
:1025000023F01003936100F09DFB0746636A9D6909
:1025100015F0080508D000F095FBC31BFA2BF5D980
:10252000FFF7A0FC0025B1E09A6942F001029A6130
:1025300000F088FB0746636A9A69D10705D400F06A
:1025400081FBC31BFA2BF6D9EAE79A69002704F549
:10255000825B4FF0000842F002024FF000090BF1DD
:10256000080B9A61636A5F65FFF77CFC41F23C03EC
:10257000E05800F075FB1822002102A8FFF7F2FBDB
:1025800002A8CDE90089FFF745FE6A460BEB05037B
:102590000DF1180E069794460833BCE80300F44585
:1025A00043F8080C43F8041C6246F4D1DCF8000040
:1025B00020351860B5F5806F9CF804201A71DAD1C7
:1025C000002741F248436A465146E75441F24B43E3
:1025D00020460097E7548DF80470FFF7BDFE626A4D
:1025E000054680B9936923F00103936100F02AFB4B
:1025F0000546636A9B69DA0794D500F023FB431B09
:10260000FA2BF6D98EE79DF8033020469DF802108C
:102610001B0243EA41639DF804100B43BDF8001010
:1026200043EA0143D361636AC3F8BC70FFF7F0FE6D
:1026300041F251436FF04042E754636A1A65184A09
:10264000636A5A654FF00222636A9A654FF0FF325F
:10265000636AC3F8E0200322636A9642DA6515D004
:10266000626A936923F00103936100F0EBFA064676
:10267000636A9B69DB0705D500F0E4FA831BFA2B3C
:10268000F6D94FE741F24A430122E254284609B005
:10269000BDE8F08FC84C0020CC4C0020004402580C
:1026A000550200022DE9F04F00F5A25B89B0054606
:1026B0009046994600260BF11C0B41F24C4A6B6A7E
:1026C000D3F8D830F340D90740D506F1830305EBA2
:1026D00043131A79120739D4DBF800200132CBF802
:1026E00000201A7942F008021A71D30726D541F268
:1026F0004B43EB5C13B305F582546846FFF790FD3E
:1027000003AF103404EB461404F1080220680834C7
:1027100054F8041C3B46944203C31F46F6D120687C
:102720006946186005F5815023791C303B710123FF
:10273000CDE90089ADF80830FFF756FD55F80A30AD
:1027400023B141F27842AB580133AB500136202E11
:10275000B5D109B0BDE8F08F2DE9F0478A468CB0BD
:10276000044600F071FA81468846BAF1000F5DD147
:10277000636AD3F8A02012F4FE0F03D100200CB03E
:10278000BDE8F087D3F8A420970141BF41F2704122
:10279000625801326250D3F8A4205606EED0D3F826
:1027A000A4606569C6F305266F4605EB0615384635
:1027B000FFF730FD2A6851004ABF22F06043C2F3A0
:1027C0008A4343F00043920001AA48BF43F080438C
:1027D0000093EB8803F00F038DF80C30EB1D0F35E1
:1027E00013F8011FAB4202F8011BF9D1BAF1000F37
:1027F00038D1636AC3F8A86004A807ADFFF710FDDD
:1028000097E80F0007C504F581502B70002304A939
:102810001C30ADF81830CDE90498FFF7E5FC40B363
:1028200041F26842A3580133A350A8E7BAF1010F5F
:10283000A4D1636AD3F8B02012F4FE0F9ED0D3F86F
:10284000B420950141BF41F270416258013262509B
:10285000D3F8B420500691D0D3F8B460A569C6F37C
:102860000526A1E7BAF1010FC6D1636AC3F8B860C3
:10287000C2E741F26C420120A3580133A3507EE726
:10288000F8B500F5A25504460F4601260B3539462A
:102890002046FFF761FF08B12E70F8E741F24C4384
:1028A000E35823B141F27842A3580133A350F8BD55
:1028B000436AF0B51B6C13F47F0F25D000F5A351CC
:1028C000002300F583560127043103F1830200EB56
:1028D00042121479A50714D5640712D45C01456A25
:1028E0003459D5F8CCC007FA04F414EA0C0F08D018
:1028F000C5F8D440147944F0040414710A68013214
:102900000A600133202BE0D1F0BD000008B5FFF7CD
:10291000A3FAFFF7CDFFBDE80840FFF7A3BA000018
:10292000436AD3F8C00010F07C5005D0D3F8C4003F
:1029300080F40010C0F340507047000008B5FFF766
:102940008BFA41F23C03C05800F09CF9FFF78AFA79
:1029500043090CBF0120002008BD000041F2514294
:10296000835C5BB1416A8B6923F001038B6141F2A7
:10297000744143580133435000238354704700008F
:102980002DE9F04D1F461646FFF766FA00F5825313
:1029900000214FF00108083300F5A35E01F1830226
:1029A00000EB4212147965071BD4E40619D59C6923
:1029B000456A08FA04FCD5F8CC401CEA040F10D094
:1029C000D3E900ABBB4508BFB2450AD2C5F8D4C0B5
:1029D000147944F004041471DEF800200132CEF8BA
:1029E0000020013120332029D8D1BDE8F04DFFF778
:1029F00039BA0000F8B51E4600230F46054613708D
:102A00001446FFF79BFF80F0010038701EB1284686
:102A1000FFF786FF2070F8BD2DE9F74F0F46994666
:102A20000B780646904692F800B0019300F008F942
:102A30003B780446002513B998F8000090B122466F
:102A40002B463046FFF79CFFFFF760FFFFF786FF3E
:102A50004B4642463946FFF7CDFF3B782BB1019BF1
:102A60001BB1012003B0BDE8F08F98F8003013B11E
:102A7000BBF1000FF5D106F5A25A0AF10C0ADDE907
:102A80000C239D4208BF9442EBD2DAF800000028E4
:102A9000E7D00368D9680C9B1A1B0D9B63EB0503F9
:102AA00088474B46424639463046FFF7A3FF3B78FE
:102AB00013B1019B002BD4D198F8003013B1BBF1B6
:102AC000000FCED100F0BCF800250446D7E7000087
:102AD00010B5154C154B206850B901221A6510220B
:102AE0001A654FF480521A65BDE8104001F00ABA29
:102AF0001A6DD10702D41A6D520704D505220021A0
:102B00001A65FFF7BDFE094B1A6DD10602D41A6D86
:102B1000520605D5502201211A652068FFF7B0FE44
:102B20002068FFF7C5FEDFE7C84C002000A000408A
:102B300010B5194C194B226852B901221A6510229E
:102B40001A654FF480521A65BDE8104001F0DAB9F9
:102B50001A6D910510D54FF400721A6500F074F8E3
:102B600002460B4652EA030103D012F1FF3243F151
:102B7000FF332068FFF796FD084B20681A6D92011D
:102B800006D54FF000721A6541F251430122C2543A
:102B9000FFF78EFED8E700BFC84C002000A0004021
:102BA0000FB4002004B070470FB44FF0FF3004B0F2
:102BB00070470000FEE7000000B59BB0EFF309810D
:102BC00068226846FFF7BCF8EFF30583034B9A6B66
:102BD0009A6A9A6A9A6A9A6A9B6AFEE700ED00E02E
:102BE00000B59BB0EFF3098168226846FFF7A8F8AB
:102BF000EFF30583044B9A6B9A6A9A6A9A6A9A6A07
:102C00009A6A9B6AFEE700BF00ED00E000B59BB04A
:102C1000EFF3098168226846FFF792F8EFF3058326
:102C2000034B5A6B9A6A9A6A9A6A9A6A9B6AFEE797
:102C300000ED00E00FB408B5029801F05DFDFEE77D
:102C400002F048B802F052B802F02EB810B5037C7A
:102C5000044613B9006802F0E7FC204610BD0000EE
:102C60000023BFF35B8FC360BFF35B8FBFF35B8F4A
:102C70008360BFF35B8F7047BFF35B8F0068BFF368
:102C80005B8F704770B505460C30FFF7F5FF0446C3
:102C900005F108063046FFF7EFFFA04206D96D6840
:102CA0003046FFF7E9FF2544281A70BD3046FFF78C
:102CB000E3FF201AF9E7000070B505464068A0B1AF
:102CC00005F10C0605F10800FFF7D6FF0446304673
:102CD000FFF7D2FF844204F1FF34304694BF6D68A1
:102CE0000025FFF7C9FF2C44201A70BD38B50C46EB
:102CF0000546FFF7C7FFA04210D305F10800FFF714
:102D0000BBFF69680444BFF35B8FB4FBF1F001FBC8
:102D100010440120AC60BFF35B8F38BD0020FCE79E
:102D20002DE9F041144607460D46FFF7C5FF8442E2
:102D300028BF0446D4B1B84658F80C6B4046FFF79C
:102D40009BFF3044286040467E68FFF795FF331AAA
:102D50009C4203D801206C60BDE8F081A41B6B602D
:102D60003B682044AB60E8600220F5E72046F3E7CB
:102D700038B50C460546FFF79FFFA04210D305F17A
:102D80000C00FFF779FF69680444BFF35B8FB4FB65
:102D9000F1F001FB10440120EC60BFF35B8F38BD04
:102DA0000020FCE72DE9FF418846694607466C464E
:102DB000FFF7B6FF002506B204EBC606B4420AD000
:102DC000626808EB050120680834FEF7B9FF54F883
:102DD000043C1D44F2E729463846FFF7C9FF284660
:102DE00004B0BDE8F0810000F8B505460C300F4690
:102DF000FFF742FF05F1080604463046FFF73CFFA7
:102E0000A042304688BF6C68FFF736FF201A386052
:102E100020B12C683046FFF72FFF2044F8BD00009A
:102E200073B5144606460D46FFF72CFF8442019009
:102E300028BF0446DCB101A93046FFF7D5FF019B4E
:102E400033B93268C5E90233C5E9002401200CE03A
:102E50009C42286038BF0194019884426860F5D98B
:102E60003368241A0220AB60EC6002B070BD2046CB
:102E7000FBE700002DE9FF410F4669466C46FFF76E
:102E8000CFFF00B2002604EBC005AC4209D0D4F855
:102E90000480B81954F8081B42464644FEF750FF18
:102EA000F3E7304604B0BDE8F081000038B50546D0
:102EB000FFF7E0FF044601462846FFF717FF2046CC
:102EC00038BD000030B50A44084D91420DD011F8CC
:102ED000013B5840082340F30004013B2C4013F011
:102EE000FF0384EA5000F6D1EFE730BD2083B8ED50
:102EF00030B50A4441F22104914200D130BD11F8AD
:102F0000013B80EA0320082305B2013B4000002D6D
:102F100080B2B8BF604013F0FF03F5D1ECE70000CA
:102F200002684AB1136801890360C38801339BB208
:102F30009942C38038BF03811046704770B588B08E
:102F4000044620220D4668460021FEF70BFF20466E
:102F50000495FFF7E5FF024660B16B46054608AEF3
:102F60001C46083503CCB44245F8080C45F8041C4F
:102F70002346F5D1104608B070BD00002DE9F041A0
:102F800030B9284B40F2C531274A284802F020FBCF
:102F90000B7C23B9264B40F2C631234AF5E7C569BD
:102FA00015B9C161BDE8F0814B68AC462A4623F0F3
:102FB0006047C3F38A464FEAD37EC3F3807816EAAC
:102FC000230638BF3E465368BEEBD37F23F06044F0
:102FD0000AD0002B17DAA40CB44216D195420ED1B8
:102FE0000D60DEE71A46EEE7A74203D1C3F3807314
:102FF00098450ED1A7422CBF0023012309E0CCF84D
:1030000000100A60CEE7B44205D0B44294BF00235A
:103010000123002BE2D113689446002BE2D111600A
:10302000C0E700BFC85A00080C5D0008085A000835
:10303000295A000808B5034A40F25E31024B0348A2
:1030400002F0C6FAE85C0008445A0008085A000872
:1030500008B503680B60C388016033B9044B4FF4B3
:10306000C761044A044802F0B3FA013BC38008BDBB
:10307000605A00085C5D0008085A000870B50C46EC
:1030800000F10C05616831B9E38A002061F309039E
:103090000021E38270BD0E682846FFF7D9FF666005
:1030A000F0E7000008B5436833B1084B40F22F4108
:1030B000074A084802F08CFAC37DC3F38403013346
:1030C00003F01F039B02C38208BD00BF905A000893
:1030D000185D0008085A00082DE9F047089E32B92B
:1030E0001D4B40F239511D4A1D4802F071FA01F0A2
:1030F00007054FEAD60800EBD10106F007062A447F
:103100004FF47F49954201D1BDE8F08705F00700F3
:1031100006F0070A541B08EBD60E5045074613F875
:103120000EC038BF5746C7F10807A74228BF274639
:10313000EC080C5D3D443E44844029FA07F024FA33
:103140000AF4C0B28CEA040440FA0AF004408CEAA3
:10315000040C03F80EC0D5E7B45A0008305D00082F
:10316000085A0008F0B50022054641F221074FF643
:10317000FF70C2F12006A2F1200425FA02F301FA41
:1031800006F621FA04F4334323430824DBB280EA31
:10319000032006B24300002E98B204F1FF33B8BFFB
:1031A000784013F0FF04F4D10832402AE1D1F0BD99
:1031B0002DE9F04F2DED028B83B092468046BDF88D
:1031C0003C400091019330B9494B40F26E31494A7D
:1031D000494802F0FDF9002A00F086802CB10E9BD0
:1031E000002B00F08180072C2BD808F10C00FFF792
:1031F00097FE054638B96FF00205284603B0BDECCE
:10320000028BBDE8F08F14220021FEF7ABFD2246B1
:103210000E9905F10800FEF793FD631C2C4440460F
:103220002B749AF8003003F01F0363F03F032372FE
:10323000009B43F0004169602946FFF79FFE01258E
:10324000DBE74FF0000900F10C034FF0800B4E4616
:103250004D4608EE103A18EE100AFFF761FE0746D9
:103260000028C8D014220021FEF77CFD002E39D1A1
:10327000019B02223B810E9B02F1080103EB060C2D
:1032800039441046B44202F10102D2B201D80246DA
:1032900007E01CF8010B0136062AB6B201F8010B53
:1032A000EFD99AF80010B44208BF4FF0400BB8189D
:1032B000013201F01F01013541EA491189F001098C
:1032C0002DB24BEA010339464FF0000B0372404622
:1032D000009B3A7443F000437B60FFF74FFEB4421B
:1032E000B9D18AE70022C6E76FF0010585E700BF84
:1032F000C85A0008FC5C0008085A00082DE9F0478D
:103300001D46CB8A80460E46C3F309009146062827
:1033100003461DD00021AAB206F1190C1FFA83FE44
:103320008CB2BEF1050F274603D8A24203F1010378
:1033300008D894420DD30244F38A62F309030120B2
:10334000F38219E019F8014001310CF80340E5E778
:103350000027821F1C237468B2FBF3FA03FB1A2AAE
:103360001FFA8AF2002C44D14046FFF7D9FD0446EB
:1033700020B970606FF00200BDE8F08700220260A3
:103380007060ADB24FF0000ABD4212D9134609EB8E
:103390000701201D11F801CB013700F803C01FFA07
:1033A00083FCBFB2BCF11B0F2BD0BD4203F1010364
:1033B000F0D8F38AC3F30902154465F30903BEE7A5
:1033C00001311C4689B22368002BF9D1AB1F03449D
:1033D0001C20B3FBF0F301339BB29942D1D2BAF176
:1033E000000FCED14046FFF79BFD20B9C4F800A0E6
:1033F000C0E70121E7E7C0F800A05246206004467C
:10340000BFE7BD42D5D94046FFF78AFD08B9206025
:10341000B0E7C0F800A0002220600446B4E7000036
:10342000F8B50E4615461F46044628B9154B4F21E0
:10343000154A164802F0CCF824220021FEF792FC2F
:103440000022069BB5F5001F227004F10C0063609A
:10345000079BA76023624FF00003C4E9062234BF34
:103460006A094FF6FF7297B29A4205D800230360AB
:1034700027826382A382F8BD06600133304620367E
:10348000F2E700BFC45A0008885C0008085A000828
:1034900008B528B9084B7321084A094802F098F882
:1034A000037823B94BB2002B01DD017008BD054B39
:1034B0007D21024AF1E700BFC85A0008945C000869
:1034C000085A0008D05B0008007870472DE9734F58
:1034D000DDF83490804619461046BDF828500B9E02
:1034E0009DF830B0BDF838A0B9F1000F02D1BAF1A3
:1034F000000F42D1BBF11F0F3FD898F80040BCB974
:10350000BAF1070F36D835F0030336D15246494693
:103510004FF6FF702D02FFF7EBFC20F0010045EAAB
:103520000B6B4004400C4BEA402B4FF6FF730DE051
:1035300044EA0524BAF1070F44EA0B6BF5D9FFF70B
:1035400011FE52464946FFF7D3FC03463246594620
:103550004046CDE9009AFFF72BFE0EB9FFF76AFD52
:1035600033780133DBB21F2B88BF0023337002B0E6
:10357000BDE8708F6FF00300F9E76FF00100F6E728
:103580002DE9F347DDF8388007460D461046194609
:103590000B9E9DF830209DF83490BDF83CA0B8F10A
:1035A000000F02D1BAF1000F34D11F2A32D83B7874
:1035B0009BB32C029DF82850BAF1070F44EA02642D
:1035C00044EAC93444EA054444EA030444F080046C
:1035D00013D9FFF7C7FD52464146FFF789FC034662
:1035E000324621463846CDE9008AFFF7E1FDB9F1C0
:1035F000010F0CD126B9FFF71DFD4FF6FF73EFE762
:1036000033780133DBB21F2B88BF0023337002B045
:10361000BDE8F0876FF00100F9E76FF00300F6E70F
:10362000C06900B104307047C1690C300B68036198
:10363000FFF70EBD2DE9F84FD0F8188004469146EB
:103640009A46454600F10C0B0DB9BDE8F88FD5E957
:1036500002100023144AB9EB01066AEB0007BB42D3
:1036600008BFB2421CD2A1692046A94229460BD10B
:10367000FFF704FDA269294658461268A261FFF7C8
:10368000E7FCA569A846DFE7FFF7F8FC296858467C
:10369000C8F800102946FFF7DBFCD8F80050D3E744
:1036A000A8462D68D0E700BF80841E002DE9F04FAA
:1036B0008BB00D4614468146DDF850A003930028D8
:1036C00000F07581BAF1000F00F07181531E3F2B9D
:1036D00000F26D81012A03D1039B002B40F067812A
:1036E000B9F814300020B5EBC30F4FEAC308CDE999
:1036F000080080F05E812B1998450BD2A8EB0508D5
:1037000018F0FF0807D1B54B40F26751B44AB548ED
:1037100001F05EFFA046D9F80C3023B9D9F810307B
:10372000002B00F09C802F2D2FD8C5F130070023EF
:103730002946B845009308ABD9F808002CBFFFB262
:103740004746A8EB07063D443A46F6B2FFF7C4FCED
:10375000B9F814304FF0300B03F10053063BDB0097
:103760000293D9F80C300593059B002B4DD07EB900
:10377000D9F8100000285BD0002E59D0AB454CD9A9
:10378000994B40F2A651964AC1E746460027DFE72B
:10379000029B23B9954B4FF4B161914AB7E7029B65
:1037A000E02B28BFE02306935B44AB4204931AD975
:1037B0005A1B96422CBFD2B23246AB4504D98A4B33
:1037C00040F29151864AA2E70598A5EB0B010097BC
:1037D00008AB04300792FFF77FFC079A1744B61A2C
:1037E0001544FFB2F6B2049B9B4504D3804B40F2D4
:1037F0009B517B4A8BE7029B069ADDF810B09B1A1F
:103800000293059B1B680593AEE7029BB342AFD2C0
:10381000784B40F2A151724A79E70097374432461B
:10382000A5EB0B01FFB23544002608ABFFF754FCB3
:10383000B9F81430B5EBC30F04D96F4B40F2B15156
:10384000674A64E7402F04D96C4B40F2B251644A96
:103850005DE766B16A4B40F2B351614A57E70093A6
:10386000424608AB2946D9F80800FFF735FC08F1B5
:10387000FF330FFA88F03F2B01D8444504D2614B47
:1038800040F23521604A42E766070AD00AAB62423D
:1038900003EBD40102F0070211F8083C134101F8D0
:1038A000083C082C0AD9102C40F28D80202C40F2C4
:1038B0008F80039B002B70D0082302E0039BA3B1F1
:1038C0000123B4EBC30F77D0082C04F1FF3311D8D8
:1038D0009DF8201021FA03F3DD0706D54FF0FF32E3
:1038E00002FA04F421438DF820109DF820308AF864
:1038F00000305EE0102C11D8BDF8201021FA03F33F
:10390000DA0706D54FF0FF3202FA04F42143ADF88E
:103910002010BDF82030AAF800304AE0202C0ED844
:10392000089921FA03F3DB0705D54FF0FF3202FABD
:1039300004F40C430894089BCAF8003039E0402C8A
:1039400030D0C3F12006A4F121024FF0010C4FF05A
:10395000000EDDE90851774601FA06F625FA03F371
:1039600021FA02F23343134303EA0C0656EA070333
:1039700013D0A4F12007C4F120060CFA04F20CFACB
:1039800007F32CFA06F6524243EA060345EA02051B
:1039900063EB43031943CDE90851DDE90823CAE984
:1039A000002306E0194B4FF42071174AAFE66FF081
:1039B00001000BB0BDE8F08F082C96D9102CA8D9C7
:1039C000202CEAD8B7E7039B002BA2D0022378E78C
:1039D000039B002BAFD0042373E700BFDC5A000821
:1039E000405D0008085A0008FE5A0008EB5A00081B
:1039F000235B00084B5B0008725B0008A05B0008BB
:103A0000B85B0008D25B0008C05C0008D05B00080F
:103A100030B51C4685B030B9254B40F2B121254A5E
:103A2000254801F0D5FD23B9244B40F2B221214AAB
:103A3000F6E7402A04D9224B40F2B6211D4AEFE7AF
:103A400022B91F4B4FF42F711A4AE9E70023012ACC
:103A5000CDE902330ED123788DF8083004AB5442FF
:103A600003EBD20504F0070415F8083CA34005F861
:103A7000083C06E0082A0CD823788DF80830530754
:103A8000ECD10346009102A80021FFF725FB05B009
:103A900030BD102A03D82388ADF80830EFE7202A7C
:103AA00095BF2368D4E900450293CDE90245E6E7D6
:103AB0000C5C0008D45C0008085A0008275C000869
:103AC000D05B000870B50C4600F10C05E16819B92F
:103AD000A1602161A18270BD0E682846FFF7B8FA87
:103AE000E660F3E72DE9F04FD1F8008091B004468D
:103AF0000D4618F0800FCDE90223C8F3C01219BF9C
:103B0000C8F3C03BC8F306264FF0020B1646B8F1C7
:103B1000000F80F2A58118F0C04F40F0A1810B7B0F
:103B2000002B00F09D81BBF1020F03D00178B14260
:103B300040F0998108F07F01049162B3C8F3074A0D
:103B40002B447606049A46EA0B4693F8039046EA1D
:103B500082465FEAD91346EA0A0605937DD0002221
:103B60000023676808A92046CDE90823049B524634
:103B700000935B46B84700286CD0A7699FB93146CF
:103B800004F10C00FFF7DAF90746E0B96FF0020024
:103B900011B0BDE8F08FC8F30F2A18F07F0F08BFEF
:103BA0000AF0030ACCE73B699E420DD03F68002F24
:103BB000F9D1314604F10C00FFF7C0F9074600289F
:103BC000E4D0A3693B60A761DDE90801FFF7CAFA09
:103BD000B882F97D09F01F06C1F38401711AB1F1B1
:103BE000000C88B2D7E9022303DA00F120010FFAB2
:103BF00081FC52EA0301C8F3046814D00298801AC9
:103C00009F4A0690039860EB030307930023DDE9C6
:103C100006018B4208BF824205D3059B002B52D080
:103C2000BCF1010F23DDFA7D4FEA890339462046B6
:103C300002F0030203F07C031343FB75FFF71EFA47
:103C4000059BA3B9FB7DC3F38402013262F38603B3
:103C5000FB7504E06FF00B009AE7A76917B96FF0E6
:103C60000C0095E73B699E42B3D03F68F6E74FEA08
:103C70009913022B27D0029B142200210BA8BB60B2
:103C8000039BFB60FEF76EF8029B204608A9089391
:103C9000039BADF836A009932B1D8DF838B00A931D
:103CA0002B7B8DF83960013B8DF83A80DBB2ADF8A3
:103CB0003430049B8DF83B30A36898473846FFF7B3
:103CC000F1F9002064E7FB7DC9F34012B2EBD31F8A
:103CD00040F0CC80C3F38403B34240F0CA8005991E
:103CE0004FEA99122B7B79B3022A3CD1032B40F285
:103CF000C380029BAE1D394604F10C00BB60324606
:103D0000039BFB602B7B033BDBB2FFF7F7FA00283A
:103D100008DA39462046FFF7B1F93846FFF7C2F90D
:103D2000032035E7AB883B832A7B033AD2B2B88ABB
:103D30003146FFF7DDF8FB7DB882DA43C2F3C012EB
:103D400062F3C713FB75BCE76AB92E1D013B394608
:103D500004F10C00DBB23246FFF7D0FA0028D8DBC2
:103D60002A7B013AE2E7FA8A013BC2F30902D9B29F
:103D7000052A4DD8281D002307F11A0C994208D9AD
:103D800010F801EB01330CF802E00132DBB2062A35
:103D9000F4D1029A8B42089238BF0433039A2CBFA5
:103DA00000235B19099207F11A020A927A680C93B0
:103DB0000B92FB8AADF836A0C3F309038DF838B037
:103DC0008DF839601944049B8DF83A808DF83B30AA
:103DD0000023ADF83410291D7B602A7BB88A013A94
:103DE000FFF786F83B8BB882834203D1A36808A90A
:103DF0002046984708A92046FFF764FE3846FFF79B
:103E000051F9B88A3B8B984214BF11200020BFE6BD
:103E10007868D8B90346BCE70CF11C0C1846036857
:103E2000002BF9D1A2EB0C021B2A12D8043205F1A7
:103E3000040C024420309942ABD91CF801EB013349
:103E400002F801EB9042DBB2F5D1A2E74FF0060C8D
:103E5000E5E70C4B40F2B3110B4A0C4801F0B8FBFC
:103E60006FF0090094E66FF00A0091E66FF00D0024
:103E70008EE66FF00E008BE66FF00F0088E600BF55
:103E800080841E003C5C0008AC5C0008085A0008F6
:103E9000EFF30983054968334A6822F001024A605A
:103EA00083F30988002383F31188704730EF00E023
:103EB000202080F3118862B60D4B0E4AD96821F498
:103EC000E0610904090C0A430B49DA60CA6842F050
:103ED0008072CA60094A0A49C2F8B01F116841F0ED
:103EE000010111601022DA7783F82200704700BFC9
:103EF00000ED00E00003FA05F0ED00E0001000E046
:103F000055CEACC5202310B583F311880E4B5B68EA
:103F100013F4006314D0F1EE103AEFF309844FF07C
:103F20008073683CE361094BDB68236684F309888E
:103F300000F094FB10B1064BA36110BD054BFBE7ED
:103F400083F31188F9E700BF00ED00E030EF00E0F7
:103F5000FB060008FE0600080023054A1946013347
:103F6000102BC2E9001102F10802F8D1704700BF1E
:103F7000D84C0020026843681143016003B1184720
:103F800070470000024A136843F0C0031360704793
:103F90000010014013B50E4C204600F0A1FA04F1C8
:103FA000140000234FF400720A49009400F062F9F3
:103FB000094B4FF40072094904F13800009400F0F5
:103FC000DBF9074A074BC4E9172302B010BD00BF55
:103FD000584D0020C44D0020853F0008C44F0020EC
:103FE0000010014000E1F505254B002908BF1946E6
:103FF000037C012B30B511D1224B98420ED1224BBC
:10400000D3F8F02042F01002C3F8F020D3F81821C2
:1040100042F01002C3F81821D3F818310A68036E71
:10402000C46D03EB52038166B3FBF2F34A681504D7
:1040300042BF23F0070503F0070343EA4503E360AB
:104040008B6843F040036360CB68510543F0010384
:10405000A36042F4967343F0010323604FF0FF33F3
:10406000236205D512F0102205D0B2F1805F04D092
:1040700080F8643030BD7F23FAE73F23F8E700BFC4
:10408000685D0008584D0020004402582DE9F047B3
:10409000C66D05463768F4692107346219D014F0FB
:1040A000080118BF8021E20748BF41F02001A307A3
:1040B0004FF0200348BF41F04001600748BF41F482
:1040C000807183F31188281DFFF754FF002383F3C9
:1040D0001188E2050AD5202383F311884FF400717B
:1040E000281DFFF747FF002383F311884FF02009B5
:1040F0004FF0000A14F0200838D13B0616D54FF0D7
:10410000200905F1380A200610D589F31188504698
:1041100000F066F9002836DA0821281DFFF72AFF8B
:1041200027F080033360002383F31188790614D5C8
:10413000620612D5202383F31188D5E913239A420E
:1041400008D12B6C33B127F040071021281DFFF751
:1041500011FF3760002383F31188E30618D5AA6E98
:104160001369ABB15069BDE8F047184789F311886E
:10417000736A284695F86410194000F0CBF98AF369
:104180001188F469B6E7B06288F31188F469BAE778
:10419000BDE8F087090100F16043012203F56143A6
:1041A000C9B283F8001300F01F039A4043099B0033
:1041B00003F1604303F56143C3F880211A6070473F
:1041C000F8B51546826804460B46AA4200D28568B7
:1041D000A1692669761AB5420BD218462A46FDF720
:1041E000AFFDA3692B44A3612846A3685B1BA360B2
:1041F000F8BD0CD9AF1B18463246FDF7A1FD3A4673
:10420000E1683044FDF79CFDE3683B44EBE718466A
:104210002A46FDF795FDE368E5E7000083689342D1
:10422000F7B50446154600D28568D4E90460361A0D
:10423000B5420BD22A46FDF783FD63692B446361C7
:104240002846A3685B1BA36003B0F0BD0DD93246BE
:10425000AF1B0191FDF774FD01993A46E0683144C6
:10426000FDF76EFDE3683B44E9E72A46FDF768FD8C
:10427000E368E4E710B50A440024C361029B84604C
:10428000C16002610362C0E90000C0E9051110BD10
:1042900008B5D0E90532934201D1826882B98268BB
:1042A000013282605A1C426119700021D0E9043247
:1042B0009A4224BFC368436100F0E0FA002008BDC1
:1042C0004FF0FF30FBE7000070B5202304460E4698
:1042D00083F31188A568A5B1A368A269013BA36017
:1042E000531CA36115782269934224BFE368A3613C
:1042F000E3690BB120469847002383F311882846D1
:1043000007E03146204600F0A9FA0028E2DA85F3FA
:10431000118870BD2DE9F74F04460E4617469946A1
:10432000D0F81CA04FF0200888F311884FF0000B44
:10433000154665B12A4631462046FFF741FF034640
:1043400060B94946204600F089FA0028F1D00023E0
:1043500083F31188781B03B0BDE8F08FBAF1000F2A
:1043600003D001902046D047019B8BF31188ED1AB2
:104370001E4488F31188DCE782600A44C361009B15
:10438000C16002610362C0E90000C0E90511704725
:10439000F8B504460D461646202383F31188A76816
:1043A000A7B1A368013BA36063695A1C62611D70D9
:1043B000D4E904329A4224BFE3686361E3690BB134
:1043C00020469847002080F3118807E031462046B8
:1043D00000F044FA0028E2DA87F31188F8BD000003
:1043E000D0E9052310B59A4201D182687AB9826872
:1043F0000021013282605A1C82611C7803699A4252
:1044000024BFC368836100F039FA204610BD4FF025
:10441000FF30FBE72DE9F74F04460E461746994655
:10442000D0F81CA04FF0200888F311884FF0000B43
:10443000154665B12A4631462046FFF7EFFE034692
:1044400060B94946204600F009FA0028F1D000235F
:1044500083F31188781B03B0BDE8F08FBAF1000F29
:1044600003D001902046D047019B8BF31188ED1AB1
:104470001E4488F31188DCE7026843681143016039
:1044800003B11847704700001430FFF743BF000026
:104490004FF0FF331430FFF73DBF00003830FFF717
:1044A000B9BF00004FF0FF333830FFF7B3BF000053
:1044B0001430FFF709BF00004FF0FF311430FFF751
:1044C00003BF00003830FFF763BF00004FF0FF323A
:1044D0003830FFF75DBF000000207047FFF75ABD7E
:1044E000044B036000234360C0E9023301230374DB
:1044F000704700BF805D000810B52023044683F399
:104500001188FFF771FD02232374002383F31188C0
:1045100010BD000038B5C36904460D461BB904211F
:104520000844FFF7A9FF294604F11400FFF7B0FE85
:10453000002806DA201D4FF48061BDE83840FFF7FF
:104540009BBF38BD024B0022C3E900339A6070471D
:10455000C4510020002382680374054B1B689968CE
:104560009142FBD25A680360426010605860704705
:10457000C451002008B5202383F31188037C032B4A
:1045800005D0042B0DD02BB983F3118808BD4369E6
:1045900000221A604FF0FF334361FFF7DBFF002377
:1045A000F2E7D0E9003213605A60F3E70023826833
:1045B0000374054B1B6899689142FBD85A680360E5
:1045C0004260106058607047C4510020054B196963
:1045D00008741868026853601A6018610123037434
:1045E000FCF776B8C45100204B1C30B5044687B0A8
:1045F0000A4D10D02B6901A8094A00F059F920464C
:10460000FFF7E4FF049B13B101A800F08FF92B69B9
:10461000586907B030BDFFF7D9FFF8E7C451002053
:104620007545000838B50C4D044641612B69816819
:104630009A68914203D8BDE83840FFF78BBF18460F
:10464000FFF7B4FF01232C61014623742046BDE827
:104650003840FCF73DB800BFC4510020044B1A6835
:104660001B6990689B68984294BF002001207047A6
:10467000C451002010B5084C236820691A685460A2
:104680002260012223611A74FFF790FF014620691E
:10469000BDE81040FCF71CB8C451002008B5FFF776
:1046A000DDFF18B1BDE80840FFF7E4BF08BD00001A
:1046B000FFF7E0BFFEE7000010B50C4CFFF742FF2C
:1046C00000F0E8F880220A49204600F07DF8012336
:1046D00044F8180C0374FFF7EBFB002383F31188F5
:1046E00062B60448BDE8104000F08EB8EC510020DE
:1046F000A85D0008B85D000808B572B6034B5862A3
:1047000000F09AFA00F06EFBFEE700BFC4510020F3
:104710002DE9F84F1E4C0027656904F11406B846D0
:1047200000F0DCFB236AAA68A0EB030991451CD3C7
:104730004FF0200AAA68236AD5F80CB0A9EB020949
:10474000134423622B68B3425E606361EF6001D162
:1047500000F0B8FB88F311882869D8478AF31188DC
:104760006569AB689945E5D2DAE76269B2420DD076
:10477000916820620B441B1A9360AB68022B2CBF1C
:10478000C0180230BDE8F84F00F0A2BBBDE8F88FBA
:10479000C4510020EFF3118020B9EFF305832022EC
:1047A00082F311887047000010B530B9EFF305842B
:1047B000C4F3080414B180F3118810BDFFF76EFF35
:1047C00084F31188F9E700008260022202827047B8
:1047D0008368A3F17C0243F80C2C026943F83C2C5B
:1047E000426943F8382C074A43F81C2CC268A3F1ED
:1047F000180043F8102C022203F8082C002203F8BA
:10480000072C7047E906000810B5202383F31188B0
:10481000FFF7DEFF00210446FFF704FF002383F3C8
:104820001188204610BD0000024B1B6958610F2003
:10483000FFF7CCBEC4510020202383F31188FFF77B
:10484000F3BF000008B50146202383F31188082038
:10485000FFF7CAFE002383F3118808BD49B1064B58
:1048600042681B6918605A60136043600420FFF7B8
:10487000BBBE4FF0FF307047C45100200368984220
:1048800006D01A680260506018465961FFF762BE90
:1048900070470000054B4FF0FF3103F11402C3E9EC
:1048A00005220022C3E90712704700BFC45100204F
:1048B000F8B5C0E903230C46064600F00FFB1A4B7F
:1048C000022C1A461F4638BF022452F8145F954244
:1048D0000AD118622044C3E90566C6E90055B460F0
:1048E000BDE8F84000F0E4BA1B6AAA68C01A2418B0
:1048F00002D3A41A2D6804E0A24202D9181900F0CC
:10490000E7FAAB68A3420CD36B68356073601E6036
:104910006E60B460AB681C1B4FF0FF33AC60FB6192
:10492000F8BDE41AE6E700BFC45100201C4A5169F3
:10493000814238B50368154602F114040DD042686F
:10494000136003685A60A3424FF00002C26003D0B4
:104950009A6881680A449A6038BD5361A3424FF057
:1049600000025C60CA6003D1BDE8384000F0AABA1A
:104970009A6889682C6A0A449A6000F0AFFA6B69F9
:10498000021B9B689342E7D91C44201A0128286A1D
:1049900098BF931C1844BDE8384000F099BA00BF96
:1049A000C451002000207047FEE70000704700005F
:1049B0004FF0FF3070470000BFF34F8F044B1A6970
:1049C0005107FCD1D3F810215207F8D1704700BF2E
:1049D0000020005208B50D4B1B78ABB9FFF7ECFF78
:1049E0000B4BDA68D10704D50A4A5A6002F18832C3
:1049F0005A60D3F80C21D20706D5064AC3F8042121
:104A000002F18832C3F8042108BD00BF0054002021
:104A1000002000522301674508B5114B1B78F3B9FC
:104A2000104B1A69510703D5DA6842F04002DA6088
:104A3000D3F81021520705D5D3F80C2142F04002DB
:104A4000C3F80C21FFF7B8FF064BDA6842F0010209
:104A5000DA60D3F80C2142F00102C3F80C2108BD42
:104A600000540020002000520F289ABF00F58060FB
:104A700040040020704700004FF4003070470000F1
:104A8000102070470F2808B50BD8FFF7EDFF00F591
:104A900000330268013204D104308342F9D101208D
:104AA00008BD0020FCE700000F2838B505463FD8B8
:104AB000FFF782FF1F4CFFF78DFF4FF0FF330728F2
:104AC0006361C4F814311DD82361FFF775FF030239
:104AD00043F02403E360E36843F08003E360236969
:104AE0005A07FCD4FFF768FF2846FFF7BDFF4FF4D5
:104AF000003100F053F9FFF78FFF2846BDE838403A
:104B0000FFF7C0BFC4F81031FFF756FFA0F108034C
:104B10001B0243F02403C4F80C31D4F80C3143F0E9
:104B20008003C4F80C31D4F810315B07FBD4D9E70B
:104B3000002038BD002000522DE9F84F05460C46F4
:104B4000104645EA0203DB0652D1FFF743FF20F08F
:104B50001F00DFF8B4A004EB0008DFF8B0B0444554
:104B600004D1FFF759FF0120BDE8F88F202221462C
:104B7000284600F061FD00283CD005F178431F482D
:104B80001F4EB3F5801F1F4B38BF994603F1FC033E
:104B900032BF5846D1461E46FFF70EFF4FF0FF3397
:104BA000A5EB040C04F11C010360336843F002031D
:104BB0003360231FD9F8007017F00507FAD153F8B6
:104BC000042F99424CF80320F4D1BFF34F8FFFF725
:104BD000F3FE4FF0FF33202221460360284633685E
:104BE00023F00203336000F027FD18B1FFF714FF34
:104BF0000020B9E720352034B1E700BF142100526E
:104C00000C2000521020005210210052142000529B
:104C100010B5084C237828B11BB9FFF7DBFE012340
:104C2000237010BD002BFCD02070BDE81040FFF7B2
:104C3000F3BE00BF0054002008B54FF400314FF020
:104C4000005000F0BDF84FF490214FF0405000F0BC
:104C5000B7F84FF480314FF0605000F0B1F84FF4E6
:104C600000214FF0105000F0ABF84FF47C414FF4AE
:104C70008060BDE8084000F0A3B8000010B500F067
:104C80002DF9074B1A68824207D90649D1E9002459
:104C9000003244F10104C1E90024186010BD00BFD6
:104CA000045400200854002038B5FFF773FD044673
:104CB000FFF7E4FF064A03462046D2E90045E41820
:104CC00045F10005FFF770FD2046294638BD00BFBD
:104CD0000854002038B5FFF75DFD0546FFF7CEFF0D
:104CE00004462846FFF760FD204638BD08B5FFF7AB
:104CF000DBFF4FF47A720023FBF7DAFA08BD00BF3E
:104D00000244074BD2B210B5904200D110BD441CF2
:104D100000B253F8200041F8040BE0B2F4E700BF02
:104D2000504000580E4B30B51C6F240405D41C6F46
:104D30001C671C6F44F400441C670A4C024423683F
:104D4000D2B243F480732360074B904200D130BD50
:104D5000441C51F8045B00B243F82050E0B2F4E781
:104D600000440258004802585040005807B501223C
:104D700001A90020FFF7C4FF019803B05DF804FB10
:104D800013B50446FFF7F2FFA04205D0012201A9A6
:104D900000200194FFF7C6FF02B010BD0144BFF32D
:104DA0004F8F064B884204D3BFF34F8FBFF36F8FF3
:104DB0007047C3F85C022030F4E700BF00ED00E06C
:104DC0000144BFF34F8F064B884204D3BFF34F8F8C
:104DD000BFF36F8F7047C3F870022030F4E700BF55
:104DE00000ED00E0704700007047000070470000D1
:104DF00070470000704700000020704770B5BFF397
:104E00004F8FBFF36F8F1A4B0021C3F85012BFF3BF
:104E10004F8FBFF36F8F5A6942F400325A61BFF36C
:104E20004F8FBFF36F8FC3F88410BFF34F8FD3F84A
:104E3000802043F6E074C2F3C900C2F34E3252013F
:104E400002EA0406014646EA81750139C3F8605258
:104E5000F9D2203A12F1200FF2D1BFF34F8F5A69E5
:104E600042F480325A61BFF34F8FBFF36F8F70BD32
:104E700000ED00E0FEE70000084A094B09498B42BB
:104E800004D3094A0021934205D3704752F8040B1A
:104E900043F8040BF3E743F8041BF4E7D05F000882
:104EA00024540020245400202454002000F0ACB8E6
:104EB000034B002258631A610222DA60704700BF78
:104EC000000C0040014B0022DA607047000C0040EB
:104ED000014B5863704700BF000C0040014B586AFB
:104EE000704700BF000C00404B6843608B688360D4
:104EF000CB68C3600B6943614B6903628B69436292
:104F00000B6803607047000008B52C4B40F2FF713E
:104F10002B48D3F888200A43C3F88820D3F8882088
:104F200022F4FF6222F00702C3F88820D3F8882019
:104F3000D3F8E0200A43C3F8E020D3F808210A435D
:104F4000C3F808211F4AD3F808311146FFF7CCFFF8
:104F50001D4802F11C01FFF7C7FF1C4802F1380190
:104F6000FFF7C2FF1A4802F15401FFF7BDFF1948CD
:104F700002F17001FFF7B8FF174802F18C01FFF74B
:104F8000B3FF164802F1A801FFF7AEFF144802F183
:104F9000C401FFF7A9FF134802F1E001FFF7A4FFE6
:104FA000114802F1FC01FFF79FFF104802F58C71D8
:104FB000FFF79AFFBDE8084000F010B9004402581E
:104FC00000000258D05D0008000402580008025892
:104FD000000C025800100258001402580018025821
:104FE000001C0258002002580024025800280258D1
:104FF00008B500F0D7FAFFF75FFBBDE80840FFF700
:10500000F7BE000070470000114BD3F8E82042F0D3
:105010000802C3F8E820D3F8102142F00802C3F8D0
:1050200010210C4AD3F81031D36B43F00803D3633B
:10503000C722094B9A624FF0FF32DA6200229A616E
:105040005A63DA605A6001225A611A60704700BFE1
:10505000004402580010005C000C0040094A08B5EA
:105060001169D3680B40D9B29B076FEA0101116146
:1050700007D5202383F31188FFF74AFB002383F32E
:10508000118808BD000C00404F4B70B5D3F880204C
:1050900000244FF0FF32C3F88020D3F88010C3F80B
:1050A0008040D3F88010D3F88410C3F88420D3F85C
:1050B0008410C3F88440D3F88410D96F41F0FF41C5
:1050C00041F4FF0141F4DF4141F07F01D967D96F1D
:1050D00021F0FF4121F4FF0121F4DF4121F07F01A4
:1050E000D967D96FD3F888106FEA41516FEA5151EF
:1050F000C3F88810D3F88810C1F30A01C3F88810E8
:10510000D3F88810D3F89010C3F89020D3F89010FB
:10511000C3F89040D3F89010D3F89410C3F89420BB
:10512000D3F89410C3F89440D3F89410D3F898109F
:10513000C3F89820D3F89810C3F89840D3F8981083
:10514000D3F88C10C3F88C20D3F88C10C3F88C40A3
:10515000D3F88C10D3F89C10C3F89C20D3F89C2073
:10516000C3F89C40D3F89C3000F0F0F9174B0622AE
:105170009A60174ADA60174A1A6105225A60164A7D
:10518000536A43F480335362C2F88440BFF34F8FB5
:10519000D2F8803043F6E074C3F3C900C3F34E3352
:1051A0005B0103EA0406014646EA81750139C2F84B
:1051B0007452F9D2203B13F1200FF2D1BFF34F8F7D
:1051C000BFF36F8F70BD00BF0044025890ED00E048
:1051D000000004301B00080300ED00E0604B0122DA
:1051E0001A60604BD3F8F42042F00202C3F8F420B6
:1051F000D3F81C2142F00202C3F81C210422D3F888
:105200001C31594BDA605A689204FCD5574A4FF466
:1052100040411A6001229A60554ADA6000221A6100
:105220009961544BDA6203F511339A699004FCD505
:105230001A6842F480721A604A4B1A6F12F4407F67
:1052400004D04FF480321A6700221A671A6842F0BD
:1052500001021A60434A134611684907FCD5002130
:1052600011611A6912F03802FBD1012119604FF067
:10527000804159604FF00051D9605A673E4ADA6266
:105280003E4A1A611A6842F480321A60354B1A6835
:105290009203FCD53A4A3B499A6200225A63196349
:1052A0003949DA6399635A64384A1A64384ADA62C7
:1052B0001A6842F0A8521A602A4B1A6802F0285263
:1052C000B2F1285FF9D148229A614FF48862DA611D
:1052D00040221A622F4ADA644FF000521A652E4AB1
:1052E0005A652E4A9A6532222D4B1A601A6802F0CE
:1052F0000F02022AFAD11B4B1A6942F003021A610B
:105300001A6902F03802182AFAD1D3F8DC2042F0E8
:105310000052C3F8DC20D3F8042142F00052C3F855
:105320000421D3F80421D3F8DC2042F08042C3F8F2
:10533000DC20D3F8042142F08042C3F80421D3F8E2
:105340000421D3F8DC2042F00042C3F8DC20D3F87B
:10535000042142F00042C3F80421D3F8043170471D
:1053600008810051004402580048025800C000F073
:1053700004000001000400580000FF0100889008AC
:105380003230600063020701180203034704050876
:10539000FD0BFF01000001200010E00000010100F2
:1053A000002000524FF0B04208B5D2F8883003F028
:1053B0000103C2F8883023B1044A13680BB1506866
:1053C0009847BDE80840FEF79DBD00BFD84C0020BF
:1053D0004FF0B04208B5D2F8883003F00203C2F8AB
:1053E000883023B1044A93680BB1D0689847BDE870
:1053F0000840FEF787BD00BFD84C00204FF0B042F8
:10540000D2F8883003F00403C2F88830FEF77ABD82
:105410004FF0B04208B5D2F8883003F00803C2F864
:10542000883023B1044A93690BB1D0699847BDE82D
:105430000840FEF767BD00BFD84C00204FF0B042D7
:10544000D2F8883003F01003C2F88830FEF75ABD56
:105450004FF0B04310B5D3F8884004F47872C3F825
:105460008820A30604D5124A936A0BB1D06A9847E4
:10547000600604D50E4A136B0BB1506B984721069A
:1054800004D50B4A936B0BB1D06B9847E20504D55A
:10549000074A136C0BB1506C9847A30504D5044A16
:1054A000936C0BB1D06C9847BDE81040FEF72ABD55
:1054B000D84C00204FF0B04310B5D3F8884004F426
:1054C0007C42C3F88820620504D5164A136D0BB1DF
:1054D000506D9847230504D5124A936D0BB1D06DDA
:1054E0009847E00404D50F4A136E0BB1506E9847ED
:1054F000A10404D50B4A936E0BB1D06E9847620499
:1055000004D5084A136F0BB1506F9847230404D594
:10551000044A936F0BB1D06F9847BDE81040FEF777
:10552000F1BC00BFD84C002008B50348FEF7AEFD23
:10553000BDE80840FEF7E6BC584D002008B5FFF76F
:105540008DFDBDE80840FEF7DDBC0000062108B572
:105550000846FEF71FFE06210720FEF71BFE062168
:105560000820FEF717FE06210920FEF713FE06218C
:105570000A20FEF70FFE06211720FEF70BFE06217C
:105580002820FEF707FE09217A20FEF703FE0721F7
:105590003220FEF7FFFD0C212520BDE80840FEF774
:1055A000F9BD000008B5FFF76FFDFEF7D5FCFEF76B
:1055B00095FFFFF727FDBDE80840FFF777BC000027
:1055C0000B460146184600F021B8000000F02CB848
:1055D0001FB514461A46094B1B680546D8684CB1DE
:1055E000074B0091CDE9013406492B46FDF7DCFA63
:1055F00000F0A4F8044B1C46F3E700BF242500206C
:10560000045F0008115F00088C58000810B5054CB5
:1056100013462CB10A4601460220AFF3008010BDAC
:105620002046FCE700000000024B0146186800F02D
:105630002DB800BF2425002030B501390024A24236
:1056400001D1002005E0035D01340D5DAB42F6D0D1
:10565000581B30BD2DE9F0410D4617461E4693B14B
:1056600000EB0108B542A8EB050403D20024204654
:10567000BDE8F081324639462046FFF7DDFF0028BD
:10568000F5D0013DEEE70446F1E7000037B500290B
:1056900048D051F8043C0190002BA1F10404B8BF9C
:1056A000E41800F053F8204A01981368154633B9FE
:1056B0006360146003B0BDE8304000F04DB8A34211
:1056C0000BD921686218934204BF1A685B68636053
:1056D00004BF521822602C60ECE71A465B680BB1DD
:1056E000A342FAD911685518A5420BD12468214468
:1056F0005418A3421160DDD11C685B6853602144DB
:105700001160D7E702D90C230360D3E7256861193C
:105710008B4204BF19685B68636004BF491921604C
:105720005460C7E703B030BD10540020034611F8A1
:10573000012B03F8012B002AF9D1704708B5062088
:1057400000F038F80120FFF72FF90000014800F0C1
:105750004DB800BF1C540020014800F049B800BFFC
:105760001C5400201F2938B504460D4604D91623C1
:1057700003604FF0FF3038BD426C12B152F8213057
:105780004BB9204600F030F82A4601462046BDE8D5
:10579000384000F017B8012B0AD0591C03D116234A
:1057A00003600120E7E7002442F825402846984797
:1057B0000020E0E7024B01461868FFF7D3BF00BFA7
:1057C0002425002038B5074D00230446084611461D
:1057D0002B60FFF7EDF8431C02D12B6803B1236067
:1057E00038BD00BF14540020FFF7DCB8704700003C
:1057F000704700006F72672E6375626570696C6F29
:10580000742E48657265426174744D6F6E000000BD
:105810004E6F20617070207369670A0042616420D6
:105820006677206C656E6774682025750A00426192
:105830006420626F6172645F6964202575207368FB
:105840006F756C642062652025750A0042616420D2
:1058500061707020435243203078253038783A30D8
:105860007825303878203078253038783A307825E7
:105870003038780A00476F6F64206669726D77610F
:1058800072650A0040A2E4F164689106000000001D
:1058900072656365697665645F756E697175655F6C
:1058A00069645F6C656E203C2055415643414E5FF4
:1058B00050524F544F434F4C5F44594E414D494312
:1058C0005F4E4F44455F49445F414C4C4F43415408
:1058D000494F4E5F554E495155455F49445F4D41D3
:1058E000585F4C454E47544800766F6964206861A4
:1058F0006E646C655F616C6C6F636174696F6E5F21
:10590000726573706F6E73652843616E617264496E
:105910006E7374616E63652A2C2043616E617264DC
:1059200052785472616E736665722A29002E2E2F8A
:105930002E2E2F546F6F6C732F41505F426F6F7418
:105940006C6F616465722F63616E2E6370700061AD
:105950006C6C6F63617465645F6E6F64655F6964CE
:10596000203C3D203132370053544D333248373FCD
:105970003F3F0053544D3332483734332F3735339C
:105980000000000001105A000310590001205800C7
:105990000320560043414E464449666163653A2000
:1059A0004D6573736167652052414D204F76657276
:1059B000666C6F77210000004261642043414E49CC
:1059C0006661636520696E6465782E0000000000E2
:1059D0000000000069240008192A0008711E000850
:1059E000E51E00083D220008D11F00088D1E00089A
:1059F000911E0008751E00087D1E0008791E000813
:105A0000CD1E0008851E00082E2E2F2E2E2F6D6F06
:105A100064756C65732F6C696263616E6172642F6B
:105A200063616E6172642E63006974656D2D3E66FC
:105A300072616D652E646174615F6C656E203E20DD
:105A4000300000007472616E736665725F69642075
:105A5000213D202828766F6964202A2930290000FA
:105A6000616C6C6F6361746F722D3E7374617469E5
:105A700073746963732E63757272656E745F757388
:105A80006167655F626C6F636B73203E203000005E
:105A900073746174652D3E6275666665725F626CD3
:105AA0006F636B73203D3D202828766F6964202A40
:105AB000293029007372635F6C656E203E2030557B
:105AC000000000006F75745F696E7320213D20280F
:105AD00028766F6964202A29302900006269745F82
