:020000040800F2
:10000000000500202905000801290008052900082D
:1000100059290008052900082D2900082B0500088A
:100020002B0500082B0500082B050008053C0008DF
:100030002B0500082B0500082B0500082B050008E0
:100040002B0500082B0500082B0500082B050008D0
:100050002B0500082B050008016600082D66000826
:100060005966000885660008B16600082B0500087F
:100070002B0500082B0500082B0500082B050008A0
:100080002B0500082B0500082B0500087D2800081B
:100090008D280008A12800082B050008DD6600084F
:1000A0002B0500082B0500082B0500082B05000870
:1000B000156400082B0500082B0500082B05000817
:1000C0002B0500082B0500082B0500082B05000850
:1000D0002B0500082B0500082B0500082B05000840
:1000E000456700082B0500082B0500082B050008B4
:1000F0002B0500082B0500082B0500082B05000820
:100100002B0500082B0500082B0500082B0500080F
:100110002B0500082B0500082B0500082B050008FF
:100120002B0500082B0500082B0500082B050008EF
:100130002B0500082B0500082B050008B528000832
:10014000C5280008D92800082B050008B15C000864
:100150002B0500082B0500082B0500082B050008BF
:100160002B0500082B0500082B0500082B050008AF
:100170002B0500082B0500082B0500082B0500089F
:100180002B0500082B050008C13C00082B050008C2
:100190002B0500082B0500082B0500082B0500087F
:1001A0002B0500082B0500082B0500082B0500086F
:1001B0002B0500082B0500082B0500082B0500085F
:1001C0002B0500082B0500082B0500082B0500084F
:1001D0002B0500082B0500082B0500082B0500083F
:1001E0001119000800000000D0400B1CD1409C46B3
:1001F000203AD34018435242634693401843704715
:100200009140031C90409C46203A9340194352422F
:100210006346D3401943704753B94AB9002908BF10
:1002200000281CBF4FF0FF314FF0FF3000F07AB9CB
:10023000ADF1080C6DE904CE00F006F8DDF804E03D
:10024000DDE9022304B070472DE9F0478C460D46E6
:100250000446089E002B51D18A4217466DD9B2FA46
:1002600082FEBEF1000F0BD0CEF1200C01FA0EF58C
:1002700020FA0CFC02FA0EF74CEA050C00FA0EF418
:100280004FEA174A250CBCFBFAF81FFA87F90AFB5C
:1002900018CC45EA0C4508FB09F3AB420AD9ED1925
:1002A00008F1FF3280F02381AB4240F22081A8F1B7
:1002B00002083D44ED1AA4B2B5FBFAF00AFB105552
:1002C00044EA054400FB09F9A14509D9E41900F104
:1002D000FF3380F00A81A14540F2078102383C4497
:1002E000A4EB090440EA08400021002E61D024FA62
:1002F0000EF4002334607360BDE8F0878B4207D9A9
:10030000002E54D0002186E821000846BDE8F08781
:10031000B3FA83F1002940F08E80AB4202D38242CF
:1003200000F2FA80841A65EB03050120AC46002E2A
:100330003FD086E81010BDE8F08712B90127B7FB5F
:10034000F2F7B7FA87FEBEF1000F34D1EB1B3A0C7F
:100350001FFA87FC0121B3FBF2F8250C02FB1833CE
:1003600045EA03450CFB08F3AB4207D9ED1908F148
:10037000FF3002D2AB4200F2D1808046ED1AA3B228
:10038000B5FBF2F002FB105543EA05440CFB00FC00
:10039000A44507D9E41900F1FF3302D2A44500F2C5
:1003A000B8801846A4EB0C0440EA08409DE73146AB
:1003B0003046BDE8F087CEF1200405FA0EF307FAC7
:1003C0000EF720FA04F83A0C25FA04F448EA030878
:1003D000B4FBF2F14FEA184502FB11441FFA87FC07
:1003E00045EA044501FB0CF3AB4200FA0EF409D9CF
:1003F000ED1901F1FF3080F08A80AB4240F2878036
:1004000002393D44EB1A1FFA88F5B3FBF2F002FB08
:10041000103345EA034500FB0CF3AB4207D9ED1955
:1004200000F1FF386FD2AB426DD902383D44EB1A70
:1004300040EA01418FE7C1F1200722FA07F88B401B
:1004400005FA01F448EA030320FA07FE4FEA134CC9
:10045000FD404EEA040EB5FBFCF94FEA1E440CFBCE
:1004600019551FFA83F844EA054509FB08F4AC4224
:1004700002FA01F200FA01FA08D9ED1809F1FF3089
:1004800043D2AC4241D9A9F102091D442D1B1FFAE8
:100490008EFEB5FBFCF00CFB10554EEA054400FB4C
:1004A00008F8A04507D9E41800F1FF3529D2A04586
:1004B00027D902381C4440EA0940A4EB0804A0FBF9
:1004C00002894C45C6464D4615D312D056B1BAEBFB
:1004D0000E0364EB050404FA07F7CB401F43CC403E
:1004E000376074600021BDE8F0871846F8E6904652
:1004F000E0E6C245EAD2B8EB020E69EB030501382B
:10050000E4E72846D7E7404691E78146BEE7014643
:1005100078E702383C4445E7084608E7A8F10208B6
:100520003D442BE7704700BF02E000F000F8FEE713
:1005300072B6394880F30888384880F3098838480B
:100540004EF60851CEF20001086040F20000CCF2F5
:1005500000004EF63471CEF200010860BFF34F8FF9
:10056000BFF36F8F40F20000C0F2F0004EF68851EA
:10057000CEF200010860BFF34F8FBFF36F8F4FF0D3
:100580000000E1EE100A4EF63C71CEF20001086068
:10059000062080F31488BFF36F8F05F051F805F043
:1005A000CFFE4FF055301F491B4A91423CBF41F8E6
:1005B000040BFAE71C49194A91423CBF41F8040B6D
:1005C000FAE71A491A4A1B4B9A423EBF51F8040BEC
:1005D00042F8040BF8E700201749184A91423CBF43
:1005E00041F8040BFAE705F02FF805F005FF144C6D
:1005F000144DAC4203DA54F8041B8847F9E700F0C5
:100600003FF8114C114DAC4203DA54F8041B8847F3
:10061000F9E705F017B800000005002000250020CC
:10062000000000080001002000050020A874000858
:100630000025002094250020982500204458002003
:10064000E0010008E4010008E4010008E4010008FA
:100650002DE9F04F2DED108AC1F80CD0C3689D46EE
:10066000BDEC108ABDE8F08F002383F31188284683
:10067000A047002004F0F6FB04F0E8FA00DFFEE7F4
:10068000F8B5384C792323700523002563706FF08B
:100690007F061F23A570E57025716571A571E57151
:1006A00025726672A372E57201F09AFA20B10F23E7
:1006B00025726672A372E57204F088FF064604F0A4
:1006C000B9FF054680BB284B9E422DD001339E4288
:1006D0002DD0264B26F0FF029A422BD1F0B200F02B
:1006E00049FD2C4642F2107700F082FF00F048FDF1
:1006F00058B31FBB2DB11E4B9E4202D004F092FF97
:100700000024002004F06CFF14B1002400F07AF8FB
:1007100001F01EFB00F08EFF01F090F9204600F082
:10072000CFF800F06FF8F9E72C460027DCE7074622
:100730000124D9E7044641F28837D5E775B900208E
:1007400004F04EFF4FF47A74E0E715B1084B9E4277
:10075000D4D1002004F044FF0024D9E7044B9E428A
:10076000CCD1ECE798250020010007B0000008B0CC
:10077000263A09B008B501F0DFF8A0F1200358428D
:10078000584108BD07B5054B02211B88ADF8043060
:1007900001A801F03DF903B05DF804FB5C6B0008B3
:1007A00010B5202383F311881248C3680BB104F0FD
:1007B000DFFB0023104A0F484FF47A7104F09CFBD2
:1007C000002383F311880D4C236813B12368013B88
:1007D0002360636813B16368013B6360084B1B7857
:1007E00033B9636823B9022001F028FA3223636029
:1007F00010BD00BFA4250020A1070008C0260020CE
:10080000B825002010B5254B254953F8042F013297
:1008100000D110BD8B42F8D1224C234B22689A4262
:100820003AD9224B9B6803F1006303F500439A42D7
:1008300032D2002001F01CF91D4B0220187001F08B
:10084000FBF91C4B1A6C00221A64196E1A66196E99
:10085000596C5A64596E5A665A6E5A6942F080024F
:100860005A615A6922F080025A615A691A6942F043
:1008700000521A611A6922F000521A611B6972B69D
:100880000D4A0E4B13601B682268202181F31188EA
:100890009D4683F30888104710BD00BFFC7F000809
:1008A0001C80000804800008FF7F000898250020B5
:1008B000B82500200038024008ED00E00080000864
:1008C0002DE9F04F99B0B34C01902022FF2110A8E0
:1008D000A66801F0DFF9B04A1378A346A3B9AF4880
:1008E0000121C3601170202383F31188C3680BB109
:1008F00004F03EFB0023AA4AA8484FF47A7104F0A2
:10090000FBFA002383F31188019B13B1A54B019AD5
:100910001A60A54AA349019F0292002313704B60FD
:1009200099461C461D469846012001F085F9002F86
:1009300000F012829B4B1B68002B40F00D8219B017
:10094000BDE8F08F0220FFF715FF002840F0FB8183
:10095000019BB9F1000F08BF1F46944B1B88ADF8EF
:100960002C3002210BA801F053F8DDE74FF47A7028
:1009700000F0E2FF031E0393EADB0220FFF7FAFE1A
:1009800082460028E4D0039B581E042800F2DD8133
:10099000DFE800F0030E1114170018A8052340F833
:1009A000343D042101F034F854464FF0000856E07D
:1009B00004217848F6E704217D48F3E704217D48C7
:1009C000F0E71C24204601F055F804340B90042174
:1009D0000BA801F01DF82C2CF4D1E5E7002DB7D0C1
:1009E000002CB5D00220FFF7C5FE0546002800F018
:1009F000AF8101206C4C01F03BF80220207001F027
:100A00001BF94FF000095FFA89FA504601F040F8EF
:100A1000074658B1504601F04BF809F1010900288A
:100A2000F1D12C46A9460027634B97E7012302200A
:100A3000237001F0FFF83E46DBF808309E4206D2F4
:100A4000304601F017F80130EBD10436F4E7029B91
:100A500000261E70534BA9465E602C46374601F0B7
:100A60006DF915B1002C18BF0027FFF78BFE5BE76F
:100A7000002D3FF46DAF002C3FF46AAF029B0220C3
:100A8000187001F0D9F8322000F056FFB0F1000ADA
:100A9000C0F25E811AF0030540F05A81DBF80820AD
:100AA00006EB0A03934200F25381BAF5807F00F20D
:100AB0004F8155450DDA4FF47A7000F03DFF0490F8
:100AC000049B002BC0F244813C4A049BAB5401358B
:100AD000EFE7C820FFF74EFE0546002800F03881FA
:100AE0001F2E11D8C6F12004544528BF544610AB20
:100AF00026F0030022463149184401F0A1F82246AD
:100B0000FF212E4801F0C6F84FEAAA0A5FFA8AF2DE
:100B10002A49304601F0C6F80446002800F01A8140
:100B200006EB8A0605469AE70220FFF723FE002817
:100B30003FF40EAF00F0E2FF00283FF409AF4FF0A2
:100B4000000A5346DBF8082092451CD2BAF11F0F69
:100B500012D8109A01320FD02AF0030218A90A44C1
:100B600052F8202C0B92184604220BA902F078F8B8
:100B70000AF1040A0346E5E75046039300F07AFFC2
:100B8000039B0B90EFE718A8042140F84C3D00F0C0
:100B90003FFF64E798250020BC260020A425002004
:100BA000A1070008C0260020B82500205E6B0008C1
:100BB0009C250020A0250020606B0008BC2500209B
:100BC00018A8002340F8343D642100F0EDFE002811
:100BD0007FF4BEAE0220FFF7CDFD00283FF4B8AE93
:100BE0000B9800F077FF18AB43F8480D0421184626
:100BF000CDE718A8002340F8343D642100F0D4FE6E
:100C000000287FF4A5AE0220FFF7B4FD00283FF4D2
:100C10009FAE0B9800F06CFF18AB43F8440DE5E76E
:100C20000220FFF7A7FD00283FF492AE00F076FF08
:100C300018AB43F8400DD9E70220FFF79BFD0028D1
:100C40003FF486AE0BA9142000F06EFF824618A870
:100C5000042140F83CAD00F0DBFE51460BA896E7BE
:100C6000322000F069FEB0F1000AFFF671AE1AF012
:100C7000030F7FF46DAEDBF808200AEB0803934204
:100C80003FF666AE0220FFF775FD00283FF460AE28
:100C90002AF0030AC244D0453FF4E1AE404600F0DA
:100CA000E9FE04210A900AA800F0B2FE08F1040847
:100CB000F1E74FF47A70FFF75DFD00283FF448AE8E
:100CC00000F01CFF00283FF4AFAE109B01330CD0A6
:100CD000082210A9002000F0E5FF00283FF4A4AE90
:100CE0002022FF2110A800F0D5FFFFF74BFD394867
:100CF00004F0BEF823E6002D3FF42AAE002C3FF4AA
:100D000027AE18A8002340F8343D642100F04CFEC3
:100D1000824600287FF41CAE0220FFF72BFD00283E
:100D20003FF416AE0390FFF72DFD41F2883004F03A
:100D30009FF80B9801F040F801F000F8039B57462C
:100D40001C461D46F0E5054689E64FF00008FFE524
:100D50002546FDE52C4667E6002000F0EDFD0490F9
:100D6000049B002B01DA00F0A9FC049B002BFFF68A
:100D7000DEAD012000F05EFF049B213B122B3FF60D
:100D8000D3AD01A252F823F0450900086D0900080F
:100D9000DD090008290900082909000829090008B7
:100DA000710A0008610C0008290B0008C10B00083B
:100DB000F30B0008210C000829090008390C000871
:100DC00029090008B30C00085F0A00082909000877
:100DD000F70C0008A086010009490B6849F2690078
:100DE0009AB21B0C00FB0233064A0B60136844F2F4
:100DF000506198B21B0C01FB0030106080B270474C
:100E0000042500200025002010B5002110220446F2
:100E100000F040FF034B03CB206061601868A060C6
:100E200010BD00BF107AFF1FF0B51F4CBBB001F022
:100E3000AFFDA368C31AF92B30D906AD2346A060D5
:100E400028220021284602F095FC04F10E0000F053
:100E500019FF0023C6B2591D5F1CDBB2B3424FEA33
:100E6000C10107DA0E3323440822284602F082FC2F
:100E70003B46F0E7012303930823207B02930B4BAF
:100E80000193C1F3CF0130230591009301460495EE
:100E900003A3D3E90023064802F03CFA3BB0F0BDBF
:100EA00078F6339F93CACD8DC8470020D5470020E0
:100EB0000037002038B50B4B036041F22403C21801
:100EC000044612793AB9C5582DB1284601F088FD7B
:100ED000284605F0A9FC04F58050103001F080FD93
:100EE000204638BD806D000870B50D4614461E467C
:100EF00002F0B6F950B9022E0ED1012C0CD112A37A
:100F0000D3E90023C5E90023012070BD052C14D0CE
:100F100003D8012C09D0002070BD282C09D0302C1A
:100F2000F9D10BA3D3E90023ECE70BA3D3E900230A
:100F3000E8E70BA3D3E90023E4E70BA3D3E90023FD
:100F4000E0E700BFAFF30080401DA12026812A0BFF
:100F500078F6339F93CACD8D9E6AC421818A46EE6E
:100F600026417272DF25D7B7F017304A39059E56F1
:100F700038B504460D46034620222846002102F0DB
:100F8000F9FB22792346032A28BF032203F8042F02
:100F900028460222202102F0EDFB62792346072A2F
:100FA00028BF072203F8052F28460322222102F03A
:100FB000E1FBA2792346072A28BF072203F8062F60
:100FC00028460322252102F0D5FB284604F1080318
:100FD0001022282102F0CEFB382038BD2DE9F04F39
:100FE000ADF5017D21AE0EAD40F2791280460F467F
:100FF0003046002100F04EFE48220021284600F035
:1010000049FE01F0C5FC594B4FF47A72B0FBF2F087
:10101000186093E80700012385E807002B740DF1A1
:101020005A0000236B74FFF7EFFE052385F820308C
:10103000792385F8213006AB18464D4905F082FD2D
:101040001E2228643146284685F83C20FFF790FF91
:1010500012AB044601460822304602F08BFB082200
:10106000A1180DF14903304602F084FB0DF14A034B
:10107000082204F11001304602F07CFB13AB202261
:1010800004F11801304602F075FB14AB402204F164
:101090003801304602F06EFB16AB082204F17801ED
:1010A000304602F067FB0DF15903082204F180017C
:1010B000304602F05FFB04F1880A0DF15A0904F58D
:1010C000847B4B465146082230460AF1080A02F05A
:1010D00051FBD34509F10109F3D11BAB0822594655
:1010E000304602F047FB04F588744FF0000995F88C
:1010F00034304B4510D84FF0000995F83C304B4543
:1011000015D92B6C21464B440822304602F032FBA5
:10111000083409F10109F0E7AB6B21464B44082282
:10112000304602F027FB083409F10109DFE7E31D2F
:10113000C3F3CF03F97E0593002304960393BB7E8C
:101140000293193701230093019706A3D3E90023E3
:10115000404602F0DFF80DF5017DBDE8F08F00BFDD
:10116000AFF300809E6AC421818A46EEC826002023
:10117000746C0008014B1870704700BFF426002003
:10118000F0B5304B1C7B85B034B12F4B0E221A8149
:101190000024204605B0F0BD2C4A1068516802AB0F
:1011A00003C308230DEB030229492A4805F0ACFBD1
:1011B000054630B9244B28480A221A8101F096FBD3
:1011C000E6E70169B1F5FC1F06D91F4B23480B2246
:1011D0001A8101F08BFBDCE7438B40F2795293429A
:1011E00007D019490C20088119461D4801F07EFBE3
:1011F000CFE71C4A024402F110039942E5D31039AB
:101200008E1A2046134901F02BFD3246074605F1A0
:101210001801204601F024FDAB689F4202D1EB6823
:1012200098420AD0084B0D221A8100903B46EA688A
:10123000A9680D4801F05AFBAAE70C4801F056FBDB
:101240000124A6E7C8470020C8260020646B0008D8
:10125000DC7F1F00008000086C6B0008786B0008C2
:101260008A6B00080880FFF7A86B0008D16B0008A4
:101270002DE9F04FADB006AF80460E4601F0F0FF0D
:10128000044600286AD1337E022B18D1F38A012B41
:1012900015D101F07DFB8146FFF79EFD4FF4C87329
:1012A000C14DB0FBF3F209F5167902FB1300F37E92
:1012B00019FA80F028608BB9BC4B00221A709C3759
:1012C000BD46BDE8F08F3B1D1C440094002308225E
:1012D0004FEAC901304602F0B1F84C46B38A013BEF
:1012E000A3425FFA84F90BD904F10109B9F1110F96
:1012F000E9D1AF4BAF4A4FF4A171AF4805F0B8FA4E
:1013000007F11400FFF780FD224607F11401381D94
:1013100005F0EAFA03460028CED1B9F1100F07D044
:10132000A24B83F800902B68A3F516732B60C6E7D9
:1013300007F19802014602F8950D30460092072207
:1013400002F07CF8F9787F2904DD9C4B994A40F241
:101350005911D2E7404601F067FFB0E7F38A052B49
:1013600000F0348106D8012BA9D131464046FFF761
:1013700035FEA4E7282B3AD0302BA0D1737E904CB9
:101380000133627BDBB29342E94640F00581F27E95
:10139000237B9A4240F0008107F198034FF0000A46
:1013A00023F884AD1022009351460123304602F009
:1013B00045F8B58A023DADB2EB1C23F003030A33B6
:1013C00023F00703ADEB030D0DF118085346991CEC
:1013D0009BB29D424FEAC1010AF1010A71DD43440B
:1013E000009308220023304602F028F8EEE7B38A83
:1013F000013B9BB2C92B3FF662AF714D7148202271
:10140000FF2100F047FC2C7B4CBB05F10C03009343
:10141000082223462146304602F010F8B38A04F130
:101420000109013BE4B29C424FEAC90109DA0E34DA
:101430002C44009400230822304601F0FFFF4C4664
:10144000ECE700230022C5E900230023AB6085F808
:10145000D730C5F8D8302B7B0BB9F37E2B73002423
:1014600007F114053B1D0822214628467C60BC601C
:10147000FC6002F07FF93B7A04F10109A3424FEAD4
:10148000C90107D9FB6808222344284602F072F9F3
:101490004C46F0E7C1F3CF010023F07E059104959F
:1014A0000393B37E029319362823014600930196D5
:1014B0003BA3D3E90023404601F02CFFFFF7B4FC27
:1014C000FDE694F8D70000F0E3FAD4F8D83082466D
:1014D0001BB994F8D70000F0EBFAD4F8D8302B44BD
:1014E0009A4504D294F8D700013000F0E1FA4FEAAF
:1014F000950B0026B1B259451BDA94F8D730880015
:101500007BB9D4E90023121843EBE073002B08BF2A
:10151000202A06D22B4A58F8213042F821300136D1
:10152000E8E7236808EB00010122184400F0BAFB49
:10153000F5E7D4E90023D4F8D86094F8D70052191D
:1015400043F100032E44C4E90023C4F8D86000F03E
:101550009FFA86420AD394F8D730013384F8D73003
:10156000D4F8D830A3EB0A03C4F8D830FF2D0CDC34
:10157000082214490020207300F094FB00F0BEFA0A
:10158000FFF7FEFD08B1FFF73DF923680E4A9B0AFD
:10159000013313810023A360CD4690E6AFF30080B2
:1015A00026417272DF25D7B7FC360020F9360020BD
:1015B000E06B0008946C0008396C00085B6C000854
:1015C000C8470020D4260020C8260020BFF34F8F34
:1015D0000549064BCA6802F4E0621343CB60BFF3CF
:1015E0004F8F00BFFDE700BF00ED00E00400FA05EB
:1015F00008B54FF000530B4A196891420AD10A4AC4
:10160000597D117009481B7D0373C92208490E30AA
:1016100000F016FBE02200214FF00050BDE808402A
:1016200000F038BB9AAD44C5F4260020C84700201E
:101630001600002037B5184D184919480223012219
:101640006B7101F003F800230193164B00931649C8
:10165000164B17484FF4805201F0B0FD154B197826
:1016600011B1134801F0E0FD01F092F90446FFF7D3
:10167000B3FB4FF4C87304F51674B0FBF3F202FB2E
:1016800013000D4B14FA80F0186003F0D3FF08B17B
:101690000F232B8103B030BDC826002040420F002D
:1016A00028370020E90E0008F826002071120008F3
:1016B00000370020F4260020FC3600202DE9F047FA
:1016C000884C92B0884EDFF840820027204601F017
:1016D0006DFE024668B300250E958DF844500F95B7
:1016E0001095037B8DF8443001460FAB51F8040F81
:1016F000DFF81892496803C3136843F000430E9360
:1017000001F048F9821941EB070300950EA9404604
:1017100000F092FBA84205DD204601F04BFE89F85F
:101720000050D3E799F80030072B3EDC013389F8ED
:1017300000300BAD0023DFF8D0A10A938DF83430D0
:101740000B934FF000086B604FF0000912AA0026BF
:1017500002F82B6D33460127CDE9008907A95046D1
:101760008DF81C7000F0FEFE9DF81C300BB3314666
:1017700010220EA800F08EFA0DF11E0308AA0AA985
:10178000504600F007FC95E803000FAB83E8030028
:101790009DF834308DF844300A9B0E930EA9DDE994
:1017A0000823204602F04CF8D0E7204601F002FE64
:1017B000BFE7204601F054FD0546002842D14B4EBC
:1017C00001F0E6F8336898423CD301F0E1F8804636
:1017D000FFF702FB4FF4C87308F51678B0FBF3F27D
:1017E00002FB130018FA80F03060414E8DF828504B
:1017F00096F80080B8F1000F01D18DF82870C8F17B
:101800001005EDB20EA8FFF7FFFA062D28BF06253A
:101810000EAB2A4603EB08010DF1290000F010FA87
:101820000AAB039318230293324B01930135012332
:101830000093049527A3D3E90023204601F012FD6D
:101840000023337001F0A4F82B4A2C4D1368C31AFF
:10185000B3F57A7F30D3106001F09CF802460B4656
:10186000204601F0ADFD204601F0FAFC20B32B7BB1
:10187000234E002B14BF03230223737101F088F859
:101880000EAF4FF47A733946B0FBF3F03060304658
:10189000FFF76EFB1823073002931A4B0193C0F336
:1018A000CF0040F255130490009303970BA3D3E9A4
:1018B0000023204601F0D6FC2B7B0BB1FFF7B4FAD6
:1018C0002B7B002B7FF4FEAE12B0BDE8F08700BF8B
:1018D000AFF30080401DA12026812A0BF1C6A7C1CD
:1018E000D068080F0037002040420F00FC3600206F
:1018F000F9360020F8360020A8480020C84700200C
:10190000C8260020AC48002028370020AD48002021
:1019100010B5064C0021204600F076FB2046044A14
:101920000449BDE8104004F079BF00BF283700200B
:10193000FC480020B50E00082DE9F34702AE002454
:101940004FF47A7506F8014D144FDFF8588045437F
:1019500097F900305A1C5FFA84F901D0A34212D1E2
:1019600058F8240003680122D3F820A031462B4602
:10197000D047012807D10A4B9DF8070083F8009053
:1019800002B0BDE8F0870134022CE1D14FF4FA70C7
:1019900003F06EFA4FF0FF30F2E700BF0825002099
:1019A000F0480020286D00082DE9F0474FF47A75C3
:1019B000144FDFF8588006464D43002497F9003055
:1019C0005A1C5FFA84F901D0A34210D158F82400C0
:1019D00003680422D3F820A031462B46D0470428C0
:1019E00005D1094B83F800900020BDE8F087013451
:1019F000022CE3D14FF4FA7003F03AFA4FF0FF30C3
:101A0000BDE8F08708250020F0480020286D000878
:101A100030B4074B1A78074B53F822402368DD692E
:101A2000054B0A46AC460146204630BC604700BF25
:101A3000F0480020286D0008A086010070B503F072
:101A400067FC094C094E20700025306823788342DA
:101A500008D903F057FC336805440133B5F5004F4E
:101A60003360F2D370BD00BFF1480020B0480020C1
:101A700003F004BD00F1006000F50040006870470D
:101A800000F10060920000F5004003F08FBC000000
:101A9000054B1A68054B1B789B1A834202D91044E8
:101AA00003F030BC00207047B0480020F14800200F
:101AB00038B5074D04462868204403F02BFC28B9AC
:101AC00028682044BDE8384003F03CBC38BD00BF66
:101AD000B048002010F0030308D1B0F5007F05D80E
:101AE00000F10050A0F508400068704700207047E2
:101AF000014BC058704700BF107AFF1F064991F88C
:101B0000243033B100230822086A81F82430FFF71B
:101B1000B7BF0120704700BFB4480020014B1868D0
:101B2000704700BF002004E070B52A4B1C68C4F366
:101B30000B03240C63B140F21342934231D040F2C4
:101B4000194293422FD040F2214293422DD10323D8
:101B5000214A0C2505FB03235D6893F9082042F216
:101B600001039C4224D0B4F5805F23D041F20103ED
:101B70009C4221D041F203039C421FD041F2070353
:101B80009C4208BF3122441E0C44013D0B46A34237
:101B90001ED215F9016F581C96B1034600F8016C6E
:101BA000F5E70123D4E70223D2E73F220B4DD6E726
:101BB0003322E3E74122E1E75A22E4E75922E2E750
:101BC0002C2584421D7001D9981C5A70401A70BD92
:101BD0001846FBE7002004E0F86C0008D86C000809
:101BE000124B5A8842F201018A4293B214D0B3F5E3
:101BF000805F13D041F20102934211D041F20302FF
:101C000093420FD041F2070293420DD10423084AB8
:101C100002EB8303D87870470023F8E70123F6E747
:101C20000223F4E70323F2E700207047002004E0DA
:101C3000E46C000870470000704700007047000027
:101C400010B50023934203D0CC5CC4540133F9E7B0
:101C500010BD000030B5441E14F9010F0B4660B1F1
:101C600093F90050854201F1010106D11AB993F9A7
:101C70000020801A30BD013AEEE7002AF7D1104665
:101C800030BD000002460346981A13F9011B0029D3
:101C9000FAD1704702440346934202D003F8011B75
:101CA000FAE770472DE9F047234C94F824300546B5
:101CB0008846174683BB2E46DFF87C90C7B394F85E
:101CC00024302BB92022FF2148462662FFF7E2FF8D
:101CD00094F82400C0F10805BD4228BF3D465FFAD4
:101CE00085FAAD0041462A4604EB8000FFF7A8FFC5
:101CF00094F82430A7EB0A079A445FFA8AFABAF1FB
:101D0000080F2E44A844FFB284F824A0D6D1FFF7D0
:101D1000F5FE0028D2D108E0266A06EB8306B04221
:101D2000CAD0FFF7EBFE0028C5D10020BDE8F08740
:101D30000120BDE8F08700BFB4480020024B1A78AC
:101D4000024B1A70704700BFF048002008250020A1
:101D500038B5134C134D204602F014FB294620469B
:101D600002F03CFB2D6810486A6D936B23F400234E
:101D7000936303F07DF80D49284602F03BFC6A6D41
:101D80000B48936B0B4943F400239363A0424FF439
:101D9000E1330B6003D0BDE8384002F051BA38BDE2
:101DA000205000201872000840420F0040720008C6
:101DB00080490020DC48002038B50B4B1A780B4BCB
:101DC00053F822400A4B9C4205460CD0094B002197
:101DD00018461422FFF75EFF056001462046BDE865
:101DE000384002F02DBA38BDF0480020286D0008B8
:101DF00020500020DC480020202383F3118862B6A5
:101E000070470000002383F3118862B6704700001A
:101E10000120704700207047002070470020704765
:101E200070470000002070470E20704741F2900379
:101E3000C05CC0F340007047F8B51F460B68BDF8A2
:101E4000185013F0005416466DD10B7B082B6ADC3A
:101E5000FFF7D2FFC26893685B0160D493681C01EE
:101E60005BD4936813F080535BD002230C6803F1BA
:101E7000180E002CB8BFE4004FEA0E1EB4BF44F0A9
:101E80000404640542F80E400C680FFA83FE14F057
:101E9000804F18BF02EB0E1C02EB0E1E1EBFDCF8BB
:101EA000804144F00204CCF880410C7BCEF88441A0
:101EB00002EB03128C68C2F88C414C68C2F888416E
:101EC000DEF880215C0142F00102CEF8802141F26F
:101ED000300200EB040E964402EB4313CEE9006798
:101EE0000344083301F10C0251F8046B43F8046B0E
:101EF0009142F9D1204400F582500A781A70037B90
:101F000065F30003C5F3400565F341036FF3C303B5
:101F100003730120FFF776FFF8BD0123A6E72346F0
:101F2000A4E71846F6E74FF0FF30F8BD08B5FFF715
:101F300063FF41F22403C05800F05CFDBDE8084097
:101F4000FFF760BF38B5044600680D4600F07CFD21
:101F50001F2809D920222946206800F0EDFDA0F1B4
:101F600020035842584138BD002038BD002202608D
:101F7000027342608260704710B500220023C0E9FE
:101F800000230023044603810C30FFF7EFFF2046B7
:101F900010BD00002DE9F041064688B041F224054D
:101FA0000C4690461F46FFF727FF6846FFF7E4FF01
:101FB000705900F031FD1F2805D80020FFF722FFDF
:101FC00008B0BDE8F08120226946705900F03CFE5F
:101FD0002028F2D103AA234605AD144603CCAC4217
:101FE00018605960224603F10803F6D12068186092
:101FF00022791A71DDE90023C8E90023BDF8083011
:102000003B800120DAE700002DE9F0470646244B2B
:1020100046F8103B00F58057044689463546103790
:1020200028462035FFF7A8FFBD42F9D141F2100341
:1020300041F21802E6504FF480536B600023A35026
:1020400041F21C0241F22401A350601801222A74BB
:1020500004F5845A655004F58155027118350AF16A
:10206000180A00260027984645E902672846FFF728
:102070007DFF203545F8108C5545F5D141F2980388
:10208000B9F1010F04F8039002DD064800F078FC76
:10209000054B53F82930E3602046BDE8F08700BFC8
:1020A000806D0008646D0008506D00082DE9F04156
:1020B00079B1274B274FB7FBF1F4994294BF102316
:1020C0000923581CB4FBF0FE00FB1E4038B1022B64
:1020D00002DC0020BDE8F081013BDBB2F1E70EF14C
:1020E000FF36B6F5806FF4D2C3EBC30C0CF10300DE
:1020F000C010C5B25C1B0130E4B24FF47A7808FB23
:1021000000F8204498FBF0F080B2B0F5617F08D968
:102110000CF1FF354FF0080C95FBFCF5EDB25B1BA5
:10212000DCB22B1903FB0EEEB7FBFEFE7145D0D1DE
:10213000691EC9B20F29CCD8631EDBB2072BC8D8E1
:10214000002090701680D17013710120BDE8F081DD
:102150003F420F0080DE800270B505460E464FF408
:102160007A74EB685B6803F00103B34207D04FF465
:102170007A7002F07DFE013CF3D1204670BD012053
:1021800070BD0000F0B5032989B005460C4647DC58
:1021900041F2900066012B5CC3F38001002908BF67
:1021A000114661F382032B54AB1903F582530833B4
:1021B0001B79D80732D5002A32D0190723D46846B4
:1021C000FFF7DAFE05EB441303F5825703F581535D
:1021D00003AA183318685968144603C40833BB426D
:1021E0002246F7D1186820601B792371DDE90E23A0
:1021F00005F58150CDE90023694601230430ADF88F
:102200000830FFF79FFE354405F5825508352B79D8
:102210001A075CBF43F008032B7101E0002AF2D1DA
:1022200009B0F0BD70B5C268936913F0700F17D094
:1022300000230C4D936141F2480400EB4312224409
:1022400011794E0709D5890707D5C16855F823606C
:102250008E60117941F0040111710133032BECD12F
:1022600070BD00BF586D0008D3B51F46C368164641
:102270009A68D207044609D59A6801219960C2F389
:102280004002CDE900670021FFF77CFFE3689A6810
:10229000D1050BD59A684FF480719960C2F3402242
:1022A000CDE9006701212046FFF76CFFE3689A68DB
:1022B000D2030BD59A684FF480319960C2F3404243
:1022C000CDE9006702212046FFF75CFF204602B0FF
:1022D000BDE8D040FFF7A6BF012810B5044612DCC8
:1022E00000F058FB02460B4652EA030103D012F1FC
:1022F000FF3243F1FF33044951F8240018B1BDE81F
:102300001040FFF7B1BF10BDF44800202DE9F043A5
:102310001F468DB0044616468946C368002972D10F
:1023200003F10C05DB6899076AD068462B68FFF754
:102330001DFEE16801EB091301EB0911D3F8B0218F
:1023400012F0040FD3F8B02116BFD208520D42F09C
:1023500000420092D3F8B021D3F8B43103F00F0358
:102360008DF80C30D1F8B8318DF80430D1F8B8318F
:102370001B0A8DF80530D1F8B8311B0C8DF80630EA
:10238000D1F8B8311B0E8DF80730D1F8BC318DF87B
:102390000830D1F8BC311B0A8DF80930D1F8BC31B6
:1023A0001B0C92078DF80A30D1F8BC3148BF009A57
:1023B0004FEA136348BF42F080428DF80B304FF074
:1023C000380348BF009204A82B60FFF7D5FD9DE8B5
:1023D0000F0007AD07C504F581502B7004A9002339
:1023E0000430ADF81830CDE90467FFF7ABFD41F2DA
:1023F00090022046A35C43F00403A354FFF712FFAE
:102400000DB0BDE8F08303F110051B698BE70000F8
:10241000012870B504460D4613DC00F0BBFA0246F5
:102420000B4652EA030103D012F1FF3243F1FF33AE
:10243000044951F8240020B12946BDE87040FFF757
:1024400065BF70BDF44800202DE9F84F99469046CD
:10245000FFF7D2FC124C00F581511031002341F2FC
:10246000480700EB43163E44327955070FD4D20695
:102470000DD5D1E900ABCB4508BFC24507D2C26834
:1024800054F823509560327942F0040232710133DE
:10249000032B01F12001E4D1BDE8F84FFFF7B2BCF6
:1024A000586D000808B5FFF7A7FCFFF7BBFEBDE8B5
:1024B0000840FFF7A7BC00002DE9F041C3680646BD
:1024C000986800F0E050B0F1E05F0F4619D010B30B
:1024D000FFF792FC06F581541834002541F24808B4
:1024E00006EB451343441B791A070DD45B070BD445
:1024F0002146384600F050FA30B9FFF783FCBDE8BA
:10250000F0810120BDE8F0810135032D04F12004A4
:10251000E6D10120F1E7BDE8F081000008B5FFF742
:102520006BFC41F22403C05800F076FAFFF76AFC16
:102530001F288CBF0020012008BD0000F8B51D46F3
:10254000002313700F4606461446FFF7E7FF80F09E
:102550000100387025B129463046FFF7ADFF2070E5
:10256000F8BD0000F8B50D4616461F46044600F0BB
:102570000DFA2B7802460BB9307868B1002320465B
:10258000FFF762FF2046FFF78DFF20463B463246AD
:102590002946FFF7D3FF0120F8BD000010B504461F
:1025A000FFF72AFC41F29803C35C83BB264B1A6CED
:1025B00042F000721A641A6A42F000721A621A6AD1
:1025C00022F000721A62FFF71DFC41F29003E35CF7
:1025D000DB0738D4B9B3FFF70FFC41F29803E35C93
:1025E00023BB0221132001F061FC0221142001F021
:1025F0005DFC0221152001F059FC41F29002A35C20
:1026000043F00103A354BDE81040FFF7FBBB012BCF
:10261000D9D10D4B1A6C42F080621A641A6A42F0EA
:1026200080621A621A6A22F08062CBE7012BE4D141
:1026300002213F2001F03AFC0221402001F036FC4B
:1026400002214120D7E710BD003802402DE9F043B8
:1026500041F2980389B0C35C022B04460F4616462C
:1026600000F30781844D55F823200AB945F823006B
:10267000D5F8008067602672B8F1000F09D14FF4D9
:10268000855004F0D3F841468146FFF7BDFCC5F8FC
:10269000009041F29803E35C012B61D001212046B8
:1026A000FFF77CFFFFF7A8FBE268136823F0020343
:1026B0001360E268136843F001031360E3680025C8
:1026C0005D61FFF79FFB01212046FFF745FD0028D4
:1026D00000F0878041F22403A846E05800F08AF910
:1026E000202200216846FFF7D5FA02A8FFF73EFC3A
:1026F0000DF1200C05F5815310334CF8088D6A4616
:1027000023449646BEE80300E645186059607246C9
:1027100003F10803F5D1DEF80000186020359EF8BB
:1027200004201A71602DDBD141F290030025E25C98
:10273000ADF800506FF38202E25439466A462046F3
:102740008DF802508DF803508DF80450FFF7AEFC61
:10275000E368C0B94FF400421A6009B0BDE8F083E5
:10276000286803681B6B98470146002896D12868A3
:10277000FFF714FF2868036832461B6839469847FC
:1027800000288BD1E9E761221A609DF802309DF89C
:102790000310E2681B06090401F4702103F0407382
:1027A0000B43BDF80010C1F309010B439DF8041061
:1027B000090501F4E001022E43EA01030CBF4FF0CA
:1027C000004100210B43D361E36813225A61E268A0
:1027D000136823F00103136029462046FFF7BCFC71
:1027E00008B9E368B6E741F29803E15C002939D102
:1027F000E268D2F8003243F00103C2F80032E26826
:10280000D2F8003223F47C5323F00E03C2F80032D6
:10281000E268D2F8003243F46063C2F80032E36841
:10282000C3F81412E368C3F80412E3686FF0784247
:10283000C3F80C22E368C3F84012E368C3F84412FB
:10284000E368C3F8B012E368C3F8B412E36844F273
:102850000102C3F81C22E268D2F8003223F001031F
:10286000C2F8003241F29002A35C43F00203A35489
:1028700073E7002071E700BFF448002008B500208E
:10288000FFF72AFDBDE8084001F0CCB908B50021EA
:102890000846FFF7BDFDBDE8084001F0C3B90000E0
:1028A00008B501210020FFF7B3FDBDE8084001F0A5
:1028B000B9B9000008B50120FFF70EFDBDE80840DA
:1028C00001F0B0B908B500210120FFF7A1FDBDE876
:1028D000084001F0A7B9000008B501210846FFF73C
:1028E00097FDBDE8084001F09DB900000FB400203D
:1028F00004B070470FB44FF0FF3004B070470000D1
:10290000FEE7000000B59BB0EFF30981682268463E
:10291000FFF796F9EFF30583034B9A6B9A6A9A6A6D
:102920009A6A9A6A9B6AFEE700ED00E000B59BB0E8
:10293000EFF3098168226846FFF782F9EFF3058318
:10294000044B9A6B9A6A9A6A9A6A9A6A9A6A9B6A1A
:10295000FEE700BF00ED00E000B59BB0EFF309819A
:1029600068226846FFF76CF9EFF30583034B5A6B57
:102970009A6A9A6A9A6A9A6A9B6AFEE700ED00E090
:102980000FB408B5029802F0BFF9FEE702F0BEBD31
:1029900002F0D8BD02F096BD10B509680468C80FF2
:1029A000B0EBD47F24F0604221F060430BD0002CC8
:1029B000B8BF920C0029B8BF9B0C9A420FD034BF0D
:1029C0000120002010BD9A4205D1C1F38070C4F3EC
:1029D0008074844203D19A422CBF0020012010BD94
:1029E00010B5037C044613B9006803F075FF204658
:1029F00010BD00000023BFF35B8FC360BFF35B8F8C
:102A0000BFF35B8F8360BFF35B8F7047BFF35B8F58
:102A10000068BFF35B8F704770B506460C30FFF758
:102A2000F5FF06F1080504462846FFF7EFFF84424C
:102A300006D228467668FFF7E9FF3444201A70BDB5
:102A40002846FFF7E3FFF9E770B50546406898B1FF
:102A500005F10800FFF7DAFF05F10C0604463046E1
:102A6000FFF7D4FF8442304694BF6D680025FFF71E
:102A7000CDFF013C2C44201A70BD000038B50C4637
:102A80000546FFF7C9FFA04210D305F10800FFF784
:102A9000BDFF6B68BFF35B8F2044B0FBF3F403FB17
:102AA0001400A860BFF35B8F012038BD002038BD43
:102AB0002DE9F041144680460D46FFF7C5FF8442DC
:102AC00028BF0446DCB1474657F80C6B3846FFF781
:102AD0009DFF304428603846D8F80460FFF796FF21
:102AE000301AA0423BBF6860D8F800306C60241AEE
:102AF0003BBFAB60EC6001200220BDE8F0812046C6
:102B0000BDE8F08138B50C460546FFF79DFFA042B1
:102B100010D305F10C00FFF779FF6B68BFF35B8FF3
:102B20002044B0FBF3F403FB1400E860BFF35B8FB9
:102B3000012038BD002038BD2DE9F04385B088461E
:102B400069460746FFF7B4FF0026814601AD3446CB
:102B50004E4505F108050CDA08EB040155F8082C80
:102B600055F80C0CFFF76CF855F8083C01361C447E
:102B7000EEE721463846FFF7C5FF204605B0BDE821
:102B8000F0830000F8B506460C300F46FFF73EFF15
:102B900006F1080504462846FFF738FF8442284618
:102BA00038BF7468FFF732FF201A386020B128461A
:102BB0003468FFF72BFF2044F8BD000073B51446BE
:102BC00006460D46FFF728FF844228BF04460190C1
:102BD000DCB101A93046FFF7D5FF019B33B932685C
:102BE000AB6085E81400EB6001200CE0A34288BFD5
:102BF0000194286001986860A042F5D23368AB6008
:102C0000241AEC60022002B070BD2046FBE70000F1
:102C10002DE9FF410F466946FFF7D0FF00248046AB
:102C2000254644450BDA0DEBC4035DF834105E68AD
:102C300078193246FFF704F835440134F1E72846A5
:102C400004B0BDE8F081000038B50546FFF7E0FFAD
:102C5000044601462846FFF711FF204638BD000014
:102C600030B5084D0A4491420BD011F8013B0924BC
:102C70005840013CF7D040F300032B4083EA50005A
:102C8000F7E730BD2083B8ED0246006848B103681D
:102C90001360D388118901339BB29942D38038BF26
:102CA0001381704770B588B00D460446202200217C
:102CB0006846FEF7EFFF20460495FFF7E5FF05465F
:102CC00058B16B46044608AE1A4603CAB2422060A9
:102CD0006160134604F10804F6D1284608B070BDBF
:102CE0002DE9F04130B9274B274A40F2C53127483A
:102CF00003F0BEFD0B7C23B9254B234A40F2C631BD
:102D0000F5E7C66986B9C161BDE8F081002B29DA13
:102D1000930CAB4229D1B44201D10C60F3E7C8F85F
:102D200000100C60BDE8F0814B6823F06047BD0CDB
:102D30004FEAD37EC3F3807C15EA230538BF3D46B6
:102D4000B04634466368BEEBD37F23F06042DDD1EA
:102D5000974203D1C3F380739C450AD1974205E0A3
:102D60001C46EFE7AA4206D013469D422CBF002323
:102D70000123002BCFD12368A046002BF0D1216086
:102D8000BDE8F08144700008386E0008FC7000084F
:102D90001D71000808B5034A034B044840F25E3138
:102DA00003F066FD146E0008BC700008FC7000089B
:102DB00008B503680B60C388016033B9044B054A4A
:102DC00005484FF4C76103F053FD013BC38008BDC4
:102DD0008C700008886E0008FC70000870B50C4606
:102DE00000F10C05616831B9E38A61F30903E382FC
:102DF0000020002170BD0E682846FFF7D9FF6660ED
:102E0000F0E7000008B5426832B10B4B0B4A0C48A2
:102E100040F22F4103F02CFDC37DC3F38401013147
:102E200061F38603C375C38A62F30903C3821B0A75
:102E300062F3C713C37508BDD8700008446E00085C
:102E4000FC7000082DE9F047089E32B91F4B204A5C
:102E5000204840F2395103F00BFD01F007054FEA1D
:102E6000D6082A4406F0070600EBD1004FF47F494C
:102E7000954201D1BDE8F08705F0070E06F0070A7C
:102E8000D645774638BF5746C7F10807511BEC08AF
:102E90008F4228BF0F46045D08EBD60104FA0EF4FA
:102EA00013F801C029FA07FE24FA0AF45FFA8EFE2D
:102EB0008CEA04044EFA0AFE04EA0E048CEA040CBE
:102EC00003F801C03D443E44D2E700BF58700008FB
:102ED0005C6E0008FC7000082DE9F04106460F46C4
:102EE00000254FF6FF7441F221082A463046394644
:102EF000FDF77AF9C0B284EA0024082314F4004FE5
:102F00004FEA4404A4B203F1FF3318BF84EA080473
:102F100013F0FF03F2D10835402DE6D12046BDE87D
:102F2000F081000010B50A4441F22104914200D121
:102F300010BD11F8013B80EA0320082310F4004F74
:102F40004FEA400080B203F1FF3318BF604013F036
:102F5000FF03F3D1EAE700002DE9F04F85B08A4680
:102F60008DE80C00BDF83C40814630B9494B4A4AD7
:102F700040F26E31494803F07BFC11F0604F04D001
:102F8000474B454A40F26F31F4E7009B002B7ED05F
:102F900024B10E9B002B7AD0072C28D809F10C0005
:102FA000FFF772FE054628B96FF00205284605B006
:102FB000BDE8F08F14220021FEF76CFE22460E9928
:102FC00005F10800FEF73CFE631C2B74009B1B7888
:102FD0002C4403F01F0363F03F0323724AF00043C5
:102FE0006B6029464846FFF77BFE0125DEE7019B23
:102FF0001B0A4FF00008029300F10C034FF0800B06
:103000004646454603930398FFF73EFE07460028D1
:10301000CAD014220021FEF73DFEB6BB9DF8043055
:103020003B729DF808307B7202220E9B711E194480
:10303000B4420AD9B8180132D2B211F801EF80F8BF
:1030400008E00136072AB6B2F2D1009B197801F0E8
:103050001F01B44208BF4FF0400BB81841EA4811B5
:103060004BEA0103037201324AF000437B603A7479
:1030700039464846FFF734FE0135B4422DB288F098
:1030800001084FF0000BBED190E70022CDE76FF0B2
:1030900001058BE744700008286E0008FC700008EA
:1030A000687000082DE9F0471E46CB8A9146C3F3AD
:1030B0000902062A80460F4619D013460021B0B2F5
:1030C0008DB25A1992B2052A09D9A84210D8FA8AA3
:1030D000034463F30902FA820120BDE8F087A842A5
:1030E000F3D93A4419F8014094760131E8E7002514
:1030F000FB8A7C68C3F30900821F1C23B2FBF3FA2E
:1031000003FB1A2A1FFA8AF27CB301212368002BE1
:1031100039D1B31F03441C20B3FBF0F301339BB23E
:1031200099420CD2BAF1000F09D14046FFF7ACFD2D
:1031300008B1C0F800A0206008B304460022B6B26F
:103140004FF0000AB54230D2691E49441346E018D8
:1031500001339BB211F801EF80F804E001351C2B1C
:10316000ADB214D0AE42F2D8ECE74046FFF78CFD8A
:10317000044608B1002303607C60002CDED16FF0B0
:103180000200BDE8F087013189B21C46BEE7AE42BD
:10319000D8D94046FFF778FD08B1C0F800A02060FC
:1031A0000028ECD004460022CCE7FB8AC3F30902D6
:1031B000164466F30903FB828EE70000F8B50E465D
:1031C00015461F46044628B9144B154A15484F2189
:1031D00003F04EFB24220021FEF75CFD069B63609A
:1031E000079B23626A094FF6FF739A424FF0000073
:1031F00028BF1A46A7602070A061E06197B204F171
:103200000C05824205D100232B6027826382A382B2
:10321000F8BD2E60013035462036F2E740700008D8
:10322000B46D0008FC70000808B528B9084B094ABD
:103230007321094803F01CFB037823B94BB2002B20
:1032400001DD017008BD054B024A7D21F1E700BF99
:1032500044700008C06D0008FC700008886F00080A
:10326000007870472DE9F7430D9EBDF828900B9D1F
:103270009DF83040BDF8388007461946104616B90B
:10328000B8F1000F43D11F2C41D83B78D3B9B8F126
:10329000070F39D839F0030339D1424631464FF68A
:1032A000FF70FFF73FFE4FEA092920F0010009F403
:1032B0004079400449EA0464400C44EA40244FF653
:1032C000FF730DE043EA0923B8F1070F43EA0464F2
:1032D000F5D9FFF701FE42463146FFF723FE0346CC
:1032E0008DE840012A4621463846FFF735FE0DB9E4
:1032F000FFF750FD2B780133DBB21F2B88BF002373
:103300002B7003B0BDE8F0836FF00300F9E76FF0B6
:103310000100F6E72DE9F7430E9F0B9D9DF83480E1
:10332000BDF83C6081469DF8300007B9C6BB1F2838
:1033300036D899F800E0BEF1000F34D00C0244F00A
:1033400080049DF8281044EAC83444EA014444EA61
:103350000E04072E44EA006415D919461046FFF7FB
:10336000BBFD32463946FFF7DDFD03460196009767
:103370002A4621464846FFF7EFFDB8F1010F0CD170
:1033800025B9FFF707FD4FF6FF73EFE72B78013301
:10339000DBB21F2B88BF00232B7003B0BDE8F08386
:1033A0006FF00100F9E76FF00300F6E7C06900B1C4
:1033B00004307047C1690B68C3610C30FFF7F8BC7B
:1033C0002DE9F84FD0F818A0DFF86C8005461646B6
:1033D0001F4654464FF0000900F10C0B0CB9BDE834
:1033E000F88FD4E90223B21A67EB0303994508BFAB
:1033F00090451FD2AB699C42214628460DD1FFF76C
:10340000EDFCAB691B68AB6121465846FFF7D0FC69
:10341000AC692346A2461C46E0E7FFF7DFFC2368C1
:10342000CAF8003021465846FFF7C2FC5446DAF885
:103430000030EFE72368EDE780841E002DE9F04FB0
:103440008BB00D4614460793DDF850908246002855
:1034500000F06481B9F1000F00F06081531E3F2B32
:1034600000F25C81012A03D1079B002B40F05681BA
:10347000BAF81460F6000023B5420893099380F06F
:1034800053812B199E420AD2761B16F0FF0607D1F4
:10349000AB4BAC4A40F26751AB4803F0E9F9264622
:1034A000DAF80C3023B9DAF81030002B00F0A580E0
:1034B0002F2D31D8C5F1300846454FF000032CBF01
:1034C0005FFA88F8B0460093294608AB4246DAF81E
:1034D0000800FFF7B7FCA6EB08074544FFB2BAF8AF
:1034E000143003F10053063BDB000293DAF80C3092
:1034F00005934FF0300B059B002B51D087B9DAF8BC
:103500001000002861D0002F5FD0AB4550D98F4B01
:103510008C4A40F2A651BFE737464FF00008DEE77D
:10352000029B23B98A4B874A4FF4B161B4E7029BEF
:10353000E02B28BFE02306935B44AB4204931DD9E4
:103540005B1B9F4226BFDBB203930397AB4504D9B5
:103550007E4B7C4A40F291519EE70598CDF8008061
:1035600008ABA5EB0B01039A0430FFF76BFC039B40
:103570009844FF1A1D445FFA88F8FFB2049B9B45EC
:1035800004D3744B6F4A40F29B5185E7029B069A25
:10359000DDF810B09B1A0293059B1B680593AAE700
:1035A000029BBB42ABD26C4B664A40F2A15173E71F
:1035B000CDF800803A46A5EB0B0108ABFFF742FCC3
:1035C000B8443D445FFA88F80027BAF81430B5EBE8
:1035D000C30F04D9614B5B4A40F2B1515CE7B8F1CB
:1035E000400F04D95E4B574A40F2B25154E767B1DD
:1035F0005C4B544A40F2B3514EE70093324608AB5D
:103600002946DAF80800FFF71DFC731E3F2B35B280
:1036100001D8A64204DD544B544A40F235213BE721
:1036200060070AD00AAB03EBD401624211F8083CF0
:1036300002F00702134101F8083C082C21D9102C94
:1036400021D9202C8CBF08230423079A002A6DD08F
:10365000B4EBC30F6CD0082C04F1FF3215D89DF8E1
:10366000203023FA02F2D10706D54FF0FF3202FADA
:1036700004F423438DF820309DF8203089F8003081
:103680004EE00123E1E70223DFE7102C11D8BDF85B
:10369000203023FA02F2D20706D54FF0FF3202FAA9
:1036A00004F42343ADF82030BDF82030A9F80030F1
:1036B00036E0202C0ED8089921FA02F2D30705D55E
:1036C0004FF0FF3303FA04F40C430894089BC9F845
:1036D000003025E0402C1CD0DDE908673046394633
:1036E000FCF782FD002100F0010050EA01030BD03D
:1036F000224601200021FCF783FD404261EB41019D
:1037000006430F43CDE90867DDE90823C9E9002333
:1037100006E0174B154A4FF42071BDE66FF0010526
:1037200028460BB0BDE8F08F1D46F9E7012CA3D069
:10373000082CA1D9102CB7D9202CE5D8C6E700BF9A
:10374000946E00086C6E0008FC700008B66E0008ED
:10375000A36E0008DB6E0008036F00082A6F0008E4
:10376000586F0008706F00088A6F0008EC6D000841
:10377000886F000830B585B030B9244B244A40F238
:10378000B121244803F074F823B9234B204A40F2B6
:10379000B221F6E7402A04D9204B1D4A40F2B62157
:1037A000EFE722B91D4B1A4A4FF42F71E9E70024C5
:1037B000012A0294039417D11B788DF8083053071F
:1037C0000AD004AB03EBD203554213F8084C05F0C2
:1037D0000705AC4003F8084C00910346002102A8FD
:1037E000FFF730FB05B030BD082AE5D9102A03D811
:1037F0001B88ADF80830E2E7202A02D81B68029344
:10380000DDE7D3E90045CDE90245D8E7C46F0008FC
:10381000006E0008FC700008DF6F0008886F000869
:1038200070B50C4600F10C05E16819B9A160216181
:10383000A18270BD0E682846FFF7BAFAE660F3E78A
:103840002DE9F04FD1F8009091B0C9F3C0160446AD
:103850000D46CDE90223002E50D0C9F3C03BC9F379
:103860000626B9F1000F80F29F8119F0C04F40F099
:103870009B812B7B002B00F09781BBF1020F03D0C3
:103880002278B24240F0938109F07F02BBF1020F2F
:10389000059236D119F07F0FC9F30F2A01D10AF032
:1038A000030A2B447606059A93F8038046EA0B46F2
:1038B00046EA82465FEAD81346EA0A06069300F013
:1038C0009A800022002310A961E90823059B009338
:1038D00067685B4652462046B847002800F088805B
:1038E000A7698FB9314604F10C00FFF7DBF90746F1
:1038F000D0B96FF0020011B0BDE8F08F4FF0020BAD
:10390000AFE7C9F3074ACCE73B699E420DD03F6859
:10391000002FF9D1314604F10C00FFF7C3F9074637
:103920000028E6D0A3693B60A761DDE90801FFF745
:10393000D3FAB882F97D08F01F06C1F38401711A29
:1039400089B20FFA81FED7E90223BEF1000FB8BF9A
:1039500001F1200EC9F30461B8BF0FFA8EFE079182
:1039600052EA030100F02F81DDE90201801A61EBC8
:10397000030102460B469F480021994208BF90422E
:10398000C0F02181069B002B3FD0BEF1010F00F358
:103990001A8118F0400F38D0DDE90223C7E902236D
:1039A000202200210DEB0200FEF774F9DDE902236D
:1039B000CDE908232B1D0A932B7BADF836A0013BE4
:1039C000DBB2ADF834309DF81C308DF83A309DF8FC
:1039D00014308DF83B3020468DF838B08DF83960C2
:1039E000A36808A998473846FFF70CFA002082E739
:1039F0006FF00B007FE7A76917B96FF00C007AE74B
:103A00003B699E4296D03F68F6E7FB7DC8F34012C3
:103A1000B2EBD31F40F0CE80C3F38403B34240F037
:103A2000CC8006992B7B4FEA981279B3D2073CD40D
:103A3000032B40F2C580DDE90223C7E902232B7B7B
:103A4000AE1D033BDBB23246394604F10C00FFF7F2
:103A500029FB002808DA39462046FFF7BFF9384627
:103A6000FFF7D0F9032046E7AB883B832A7B033A74
:103A7000D2B2B88A3146FFF755FAFB7DB882DA43F5
:103A8000C2F3C01262F3C713FB75AFE76AB92E1D0C
:103A9000013BDBB23246394604F10C00FFF702FB72
:103AA0000028D8DB2A7B013AE2E7FA8AC2F309024E
:103AB000013B052AD9B250D8281D002399420AD9C2
:103AC00007EB020E013210F801CB8EF81AC0013359
:103AD000062ADBB2F2D1DDE902898B4207F11A0234
:103AE000CDE908890A9238BF04337A680B9234BF53
:103AF0005B1900230C93FB8AADF836A0C3F30903CE
:103B000019449DF81C308DF83A309DF814308DF82A
:103B10003B300023ADF834108DF838B08DF83960A3
:103B20007B602A7BB88A013A291DFFF7FBF93B8BA2
:103B3000B882834203D1A36808A92046984708A900
:103B40002046FFF76DFE3846FFF75CF9B88A3B8BDD
:103B5000984214BF11200020CDE6786810B34FF0D2
:103B6000060E03689BB9A2EB0E021B2A13D8033280
:103B7000024405F1040E1F309942ACD91EF801CB66
:103B800002F801CF01339042DBB2F5D1A3E70EF189
:103B90001C0E1846E5E7184B184A194840F2B311B5
:103BA00002F066FE034696E76FF00900A3E66FF0A9
:103BB0000A00A0E66FF00D009DE66FF00E009AE699
:103BC0006FF00F0097E6FB7D68F386036FF3C71372
:103BD000FB7539462046FFF701F9069B002B7FF461
:103BE000D8AEFB7DC3F38402013262F38603FB751A
:103BF00003E700BF80841E00F46F0008D86D000842
:103C0000FC700008064A536823F001035360EFF389
:103C10000983683383F30988002383F3118870478D
:103C200030EF00E010B5202383F31188104B5B6860
:103C300013F4006318D0F1EE103AEFF309844FF05B
:103C4000807344F84C3C0B4BDB6844F8083CA4F10F
:103C5000680383F3098800F0EDFF18B1064B44F8C0
:103C6000503C10BD054BFAE783F3118810BD00BF2F
:103C700000ED00E030EF00E0790600087C06000867
:103C8000002304491A465A50C8180833802B426052
:103C9000F9D1704700490020024AD36843F0C003BD
:103CA000D360704700780040044B5A6810439A680C
:103CB00058600AB1181D1047704700BF80490020A6
:103CC0002DE9F0413D4ED6F85C54EF682B68DA05DB
:103CD0009CB20CD5202383F311884FF40070FFF7BA
:103CE000E3FF6FF480732B60002383F3118820239C
:103CF00083F31188DFF8C48014F02F0331D183F3EC
:103D00001188380613D5210611D5202383F3118895
:103D10002B4800F0F3F9002844DA0820FFF7C4FF2D
:103D20004FF67F733B40EB60002383F311887A06E4
:103D30000DD563060BD5202383F31188F26C336D08
:103D40009A4201D1336C7BBB002383F31188D6F8F0
:103D50006424D3680BB110699847BDE8F041FFF7C0
:103D600061BF230712D014F0080F0CBF0020802081
:103D7000E10748BF40F02000A20748BF40F04000E4
:103D8000630748BF40F48070FFF78EFFA4066B689E
:103D900005D596F860144046194000F05FFA2C688B
:103DA000A4B2A9E76860BFE727F040073F041020EE
:103DB0003F0CFFF779FFEF60C6E700BF80490020A6
:103DC000B849002010B5054C054A0021204600F0F6
:103DD00015FA044BC4F85C3410BD00BF80490020C4
:103DE000993C00080078004038B5294C037C002934
:103DF00018BF0C46012B0546C0F8644410D1254B72
:103E000098420DD1244B1A6C42F080421A641A6E0B
:103E100042F080421A660B2152201B6E00F046F8D9
:103E20001E4BD5F85C249A42236802D01C498A4272
:103E30002BD11C4901EB5301B1FBF3F3A18808041A
:103E400042BF23F0070003F0070343EA40039360F7
:103E5000E38843F040039BB21361238943F00103DD
:103E60009BB2536141F4045343F02C03D36001F43B
:103E7000A05100231360B1F5806F136853680CBF25
:103E80007F23FF2385F8603438BD0749D2E700BFA0
:103E900038710008804900200038024000100140BD
:103EA0000014014000BD010580DE800200F1604386
:103EB00000F01F02400903F5614309018000C9B207
:103EC00000F1604083F8001300F561400123934046
:103ED000C0F8803103607047F8B5154682680669FE
:103EE000AA420B46816938BF8568761AB5420446F6
:103EF00007D218462A46FDF7A3FEA3692B44A36107
:103F00000DE011D932461846FDF79AFEAF1B3A462E
:103F1000E1683044FDF794FEE2683A44A261A36888
:103F20005B1BA3602846F8BD18462A46FDF788FEAD
:103F3000E368E4E783682DE9F041044693421546BF
:103F4000266938BF85684069361AB5420F4606D2E1
:103F50002A46FDF775FE63692B4463610DE012D9B3
:103F60003246A5EB0608FDF76BFE4246B919E0683C
:103F7000FDF766FEE26842446261A3685B1BA360D2
:103F80002846BDE8F0812A46FDF75AFEE368E4E7DB
:103F900010B50A440024C361029B00604060846045
:103FA000C160816141610261036210BD08B582692F
:103FB0004369934201D1826882B98268013282608A
:103FC0005A1C42611970426903699A4201D3C3685D
:103FD0004361002100F068FF002008BD4FF0FF3072
:103FE00008BD000070B5202304460E4683F31188F7
:103FF000A568A5B1A368A269013BA360531CA36196
:1040000015782269934224BFE368A361E3690BB189
:1040100020469847002383F31188284670BD314617
:10402000204600F031FF0028E2DA85F3118870BDE8
:104030002DE9F74F05460F4690469A46D0F81C905A
:10404000202686F311884FF0000B144664B12246F7
:1040500039462846FFF740FF034668B951462846CF
:1040600000F012FF0028F1D0002383F31188A8EBA1
:10407000040003B0BDE8F08FB9F1000F03D0019048
:104080002846C847019B8BF31188E41A1F4486F326
:104090001188DBE7C16081614161C3611144009B0C
:1040A000006040608260016103627047F8B50446B9
:1040B0000E461746202383F31188A568A5B1A3688F
:1040C000013BA36063695A1C62611E7023696269C7
:1040D0009A4224BFE3686361E3690BB120469847C5
:1040E000002080F31188F8BD3946204600F0CCFE50
:1040F0000028E2DA85F31188F8BD0000836942697F
:104100009A4210B501D182687AB982680132826020
:104110005A1C82611C7803699A4201D3C368836187
:10412000002100F0C1FE204610BD4FF0FF3010BD51
:104130002DE9F74F05460F4690469A46D0F81C9059
:10414000202686F311884FF0000B144664B12246F6
:1041500039462846FFF7EEFE034668B95146284621
:1041600000F092FE0028F1D0002383F31188A8EB21
:10417000040003B0BDE8F08FB9F1000F03D0019047
:104180002846C847019B8BF31188E41A1F4486F325
:104190001188DBE7026843681143016003B11847E7
:1041A000704700001430FFF743BF00004FF0FF33AB
:1041B0001430FFF73DBF00003830FFF7B9BF0000F3
:1041C0004FF0FF333830FFF7B3BF00001430FFF774
:1041D00009BF00004FF0FF311430FFF703BF0000AC
:1041E0003830FFF763BF00004FF0FF323830FFF781
:1041F0005DBF000000207047FFF7E4BD37B50F4BEF
:104200000360002343608360C3600123044603749A
:10421000154600900B464FF4007200F15C0114301B
:10422000FFF7B6FE00942B464FF4007204F51771A9
:1042300004F13800FFF72EFF03B030BD4C710008C9
:1042400010B52023044683F31188FFF7CDFD022328
:104250002374002383F3118810BD000038B5C369AF
:1042600004460D461BB904210844FFF793FF294675
:1042700004F11400FFF79AFE002806DA201D4FF41F
:104280008061BDE83840FFF785BF38BD02684368EC
:104290001143016003B118477047000013B5446B28
:1042A000D4F894341A681178042915D1217C022994
:1042B00012D11979128901238B4013420CD101A923
:1042C00004F14C0001F044FFD4F89444019B21799F
:1042D0000246206800F0DAF902B010BD143001F097
:1042E000C7BE00004FF0FF33143001F0C1BE000024
:1042F0004C3001F099BF00004FF0FF334C3001F01B
:1043000093BF0000143001F095BE00004FF0FF3164
:10431000143001F08FBE00004C3001F065BF00008A
:104320004FF0FF324C3001F05FBF0000D0F8942412
:1043300038B5136819780429054601D0012038BD25
:10434000017C0229FAD112795C8901209040044055
:10435000F4D105F1140001F027FE02460028EDD04B
:10436000D5F894544FF480732868697900F07CF98B
:10437000204638BD406BFFF7D9BF000000207047D2
:10438000704700007FB5124B0360002343608360D9
:10439000C360012502260F4B057404460290019369
:1043A00000F18402294600964FF48073143001F026
:1043B000D7FD094B0193029400964FF4807304F5E6
:1043C0002372294604F14C0001F09EFE04B070BD3A
:1043D00074710008754300089D4200080B68202294
:1043E00082F311880A7903EB820290614A790932DB
:1043F00043F822008A7912B103EB82039861022309
:104400000374C0F89414002383F3118870470000EC
:1044100038B5037F044613B190F85430ABB9201D72
:1044200001250221FFF732FF04F1140025776FF018
:10443000010100F045FD84F8545004F14C006FF088
:104440000101BDE8384000F03BBD38BD10B5012189
:1044500004460430FFF71AFF0023237784F8543012
:1044600010BD000038B504460025143001F090FD61
:1044700004F14C00257701F05FFE201D84F85450B4
:104480000121FFF703FF2046BDE83840FFF74EBF8C
:1044900090F8443003F06003202B19D190F84520A8
:1044A000212A0AD0222A4FF000030ED0202A0FD151
:1044B000084A82630722C26304E0064B8363072332
:1044C000C36300230364012070478363C363F9E778
:1044D0000020704709250020D0F8943437B51A68B9
:1044E0001178042904461AD1017C022917D11979BF
:1044F000128901238B40134211D100F14C0528464B
:1045000001F0DAFE58B101A9284601F021FED4F8E5
:104510009444019B21790246206800F0B7F803B06B
:1045200030BD000000EB8103F7B59C6905460E46DF
:10453000F4B1202383F3118805EB8607201D0821A1
:10454000FFF7A4FEFB685B691B684C3413B120467F
:1045500001F00CFE01A9204601F0FAFD024648B127
:10456000019B3146284600F091F8002383F311881F
:1045700003B0F0BDFB685A691268002AF5D01B8AA7
:10458000013B1340F1D105F14402EAE7093138B5A6
:1045900050F82140DCB1202383F31188D4F894240F
:1045A0001368527903EB8203DB689B695D6845B150
:1045B00004216018FFF76AFE294604F1140001F097
:1045C000FDFC2046FFF7B2FE002383F3118838BDBF
:1045D0007047000001F0BEB8012303700023436060
:1045E000C36183620362C3624362036303814381E5
:1045F0007047000038B50446202383F31188002556
:104600004160C56005614561856101F0B3F8022331
:10461000237085F3118838BD70B500EB8103054622
:104620005069DA600E46144618B110220021FDF7D9
:1046300031FBA06918B110220021FDF72BFB314698
:104640002846BDE8704001F05FB90000028902F021
:1046500001020281428902F00102428100220261CC
:104660004261826101F0E4B9F0B400EB8104478952
:10467000E4680125A4698D403D4345812360002302
:10468000A2606360F0BC01F0FFB90000F0B400EB81
:1046900081040789E468012564698D403D430581F3
:1046A00023600023A2606360F0BC01F079BA0000CF
:1046B00070B50223002504460370A0F84C5080F822
:1046C0004E5080F84F5005814581C56005614561B8
:1046D000856180F8345001F0B3F863681B6823B13A
:1046E00029462046BDE87040184770BD43680278EF
:1046F0001B6880F85020052202700BB10421184776
:1047000070470000436890F850201B6802700BB19E
:10471000052118477047000090F8343070B5044602
:1047200013B1002380F8343004F14402204601F034
:10473000A1F963689B6863BB94F8445015F0600668
:1047400015D194F8453005F07F0545EA032540F280
:1047500002339D4200F00E815BD8022D00F0DC8018
:104760003FD8002D00F08780012D00F0CF80002180
:10477000204601F0D7FB0021204601F0C9FB636809
:104780001B6813B1062120469847062384F834306D
:1047900070BD204698470028CED094F84B2094F85E
:1047A0004A3043EA0223E26B934238BFE36394F951
:1047B0004430E56B002B4FF0200380F2FD80002D8C
:1047C00000F0EC80092284F8342083F31188002162
:1047D000E36BA26B2046FFF759FF002383F3118898
:1047E00070BDB5F5817F00F0B180B5F5407F49D04F
:1047F000B5F5807FBBD194F84630012BB7D1B4F822
:104800004C3023F00203A4F84C30A663E663266420
:10481000C3E740F201639D421ED8B5F5C06F3BD29D
:10482000B5F5A06FA3D1B4F84430B3F5A06F0ED1A5
:1048300094F8463084F84E30204601F059F8636809
:104840001B6813B1012120469847032323700023DE
:10485000A363E3632364A0E7B5F5106F32D040F69D
:1048600002439D4252D0B5F5006F80D104F14F0351
:10487000A363012324E004F14C03A3630223E36355
:1048800025648AE794F84630012B7FF470AFB4F8C2
:104890004C3043F00203B6E794F84920616894F87D
:1048A00048304D6894F8471043EA0223204694F8B4
:1048B0004620A84700283FF45AAF4368A363036823
:1048C000E363A4E72378042B10D1202383F311881A
:1048D0002046FFF7BBFE86F31188636884F84F60BB
:1048E0001B68032121700BB12046984794F846308D
:1048F000002BACD084F84F300423237063681B680E
:10490000002BA4D0022120469847A0E7374BA36391
:104910000223E36300239DE794F8481011F0800F11
:10492000204601F00F010ED001F096F8012806D0C4
:1049300002287FF41CAF2E4BA363E06367E72D4B87
:10494000A363E56363E701F079F8EFE794F8463095
:10495000002B7FF40CAF94F8483013F00F013FF4B4
:1049600076AF1A06204602D501F0F0FA6FE701F0A3
:10497000E3FA6CE794F84630002B7FF4F8AE94F835
:10498000483013F00F013FF462AF1B06204602D5FA
:1049900001F0C8FA5BE701F0BBFA58E7142284F88B
:1049A000342083F311882B462A4629462046FFF7F8
:1049B0005BFE85F3118870BD5DB1152284F834204B
:1049C00083F311880021E36BA26B2046FFF74CFEB6
:1049D00003E70B2284F8342083F311882B462A4600
:1049E00029462046FFF752FEE3E700BFA471000806
:1049F0009C710008A071000838B590F83430044666
:104A0000152B29D8DFE803F03E28282828283E283F
:104A1000280B293928282828282828283E3E90F8BD
:104A20004B1090F84A20C36B42EA01229A4214D9F3
:104A3000C268128AB3FBF2F502FB15356DB920236B
:104A400083F311882B462A462946FFF71FFE85F37C
:104A500011880A2384F8343038BD142384F83430A4
:104A6000202383F3118800231A4619462046FFF7B6
:104A7000FBFD002383F3118838BD036C03B1984715
:104A80000023E7E7002101F04DFA0021204601F064
:104A90003FFA63681B6813B1062120469847062336
:104AA000D8E7000090F83420152A38B5044622D8FB
:104AB0000123934040F6416213421DD113F4801547
:104AC0000FD19B0217D50B2380F83430202383F3BA
:104AD00011882B462A462946FFF7D8FD85F3118811
:104AE00038BDC3689B695B682BB9036C03B19847F9
:104AF000002384F8343038BD002101F013FA00217E
:104B0000204601F005FA63681B6813B106212046B0
:104B100098470623EDE70000024B00221B605B6014
:104B20009A607047E84D0020002303748268054BAB
:104B30001B6899689142FBD25A680360426010601A
:104B400058607047E84D002008B5202383F3118892
:104B5000037C032B05D0042B0DD02BB983F31188D4
:104B600008BD436900221A604FF0FF334361FFF72D
:104B7000DBFF0023F2E790E80C001A600268536044
:104B8000F2E70000002303748268054B1B689968F4
:104B90009142FBD85A6803604260106058607047C9
:104BA000E84D0020054B19690874186802681A60FE
:104BB0005360186101230374FBF74ABDE84D0020E0
:104BC00030B54B1C87B005460A4C10D023690A4A01
:104BD00001A800F091F92846FFF7E4FF049B13B108
:104BE00001A800F0C5F92369586907B030BDFFF787
:104BF000D9FFF8E7E84D0020494B000838B50C4DC7
:104C000041612B6981689A689142044603D8BDE8E6
:104C10003840FFF789BF1846FFF786FF01232C6154
:104C2000014623742046BDE83840FBF711BD00BFA4
:104C3000E84D0020044B1A681B6990689B689842F5
:104C400094BF002001207047E84D002010B5084CAB
:104C5000236820691A6822605460012223611A7453
:104C6000FFF790FF01462069BDE81040FBF7F0BC5C
:104C7000E84D002008B5FFF7DDFF18B1BDE808409A
:104C8000FFF7E4BF08BD0000FEE7000010B5174CB9
:104C9000FFF742FF00F022F980221549204600F07C
:104CA000A7F8012344F8180C0374124B124AD96870
:104CB00021F4E0610904090C0A431049DA60CA686A
:104CC00042F08072CA600E490A6842F001020A602E
:104CD0001022DA77202283F82220002383F3118820
:104CE00062B60848BDE8104000F0A4B8104E00209D
:104CF000A871000800ED00E00003FA05F0ED00E007
:104D0000001000E0B071000808B572B6034B58629D
:104D100000F0C8FB00F078FCFEE700BFE84D002083
:104D20002DE9F84F1F4C4FF00008656904F1140796
:104D3000C1464FF08043266A5B6AAA689E1B964272
:104D40001DD34FF0200AAA68236AD5F80CB013448B
:104D500023622B68BB425F60A6EB02066361C5F865
:104D60000C8001D101F0D2FA89F311882869D84763
:104D70008AF311886569AB689E42E4D2D9E762691B
:104D8000BA420CD0916823628E1B9660A8680228F4
:104D90002CBF1818981CBDE8F84F01F0BDBABDE84B
:104DA000F88F00BFE84D0020EFF3118020B9EFF33A
:104DB0000583202282F311887047000010B558B98E
:104DC000EFF30584C4F3080414B180F3118810BD17
:104DD000FFF750FF84F3118810BD0000034B5968A2
:104DE0005A68521A9042FBD8704700BF001000E08A
:104DF0008260022202740022427470478368A3F129
:104E00007C0243F80C2C026943F83C2C426943F8BD
:104E1000382C074A43F81C2CC26843F8102C022295
:104E200003F8082C002203F8072CA3F118007047A0
:104E30006906000810B5202383F31188FFF7DEFF11
:104E400000210446FFF7DAFE002383F31188204691
:104E500010BD0000024B1B6958610F20FFF7A2BE76
:104E6000E84D0020202383F31188FFF7F3BF0000F3
:104E700008B50146202383F311880820FFF7A0FE20
:104E8000002383F3118808BD49B1064B42681B69B2
:104E900018605A60136043600420FFF791BE4FF022
:104EA000FF307047E84D00200368984206D01A682A
:104EB0000260506059611846FFF736BE7047000027
:104EC00038B504460D462068844200D138BD0368D9
:104ED00023605C604561FFF727FEF4E7054B03F1B3
:104EE00014025A619A614FF0FF32DA6100221A62AD
:104EF000704700BFE84D0020F8B503614FF08043D4
:104F0000C2605C6A194B1A46022952F8145F38BF16
:104F10000221954206461F460AD1586198611C62DB
:104F20000560456081600819BDE8F84001F0E6B908
:104F3000186AAB68241A0C1902D3E41A2D6804E02D
:104F40009C4202D2204401F0E7F9AB689C42F4D8BD
:104F50006B68736035601E606E60B460A9684FF066
:104F6000FF33091BA960FB61F8BD00BFE84D0020BD
:104F700010B41B4C234653F8141F814210D04168D3
:104F800002680A60026851609A424FF00001C160F5
:104F900003D0936881680B4493605DF8044B7047BD
:104FA0000A68626100209A425360C86003D15DF8CC
:104FB000044B01F0ABB993688868034493604FF0E9
:104FC0008042206A526A121A9342E6D9991A01293C
:104FD00098BF931C18445DF8044B01F09DB900BFC5
:104FE000E84D00200C2303604FF0FF3070470000B5
:104FF00000207047FEE70000704700004FF0FF30D0
:1050000070470000022906D0032906D0012906486E
:1050100018BF0020704705487047032A9ABF04480C
:1050200000EBC200002070479C720008507200081C
:105030001025002070B59AB001AD064608462946F5
:10504000144600F095F82846FCF71CFEC0B2431C3D
:105050005B0086E81800237003236370002302348A
:105060001946DAB2904204F1020401D81AB070BDB8
:10507000EA5C04F8022C04F8011C0133F1E700009B
:1050800008B5202383F311880348FFF725FA00238E
:1050900083F3118808BD00BF2050002010B50446DE
:1050A000052916D8DFE801F016150316161D202372
:1050B00083F311880E4A0121FFF7AEFA20460D4A0C
:1050C0000221FFF7A9FA0C48FFF7CCF9002383F37C
:1050D000118810BD202383F311880748FFF798F942
:1050E000F4E7202383F311880348FFF7AFF9EDE7D6
:1050F000D0710008F47100082050002038B50C4D24
:105100000C4C0D492A4604F10800FFF793FF05F106
:10511000CA0204F110000949FFF78CFF05F5CA72B5
:1051200004F118000649BDE83840FFF783BF00BF0F
:10513000E854002010250020207200082A72000880
:105140003572000870B5044608460D46FCF79AFD16
:10515000C6B22046013403780BB9184670BD3246FA
:105160002946FCF777FD0028F3D1012070BD00002F
:105170002DE9F04704460D46FCF784FD2B49C6B2E5
:105180002046FFF7DFFF08B10936F6B2284920466E
:10519000FFF7D8FF08B11036F6B2632E0BD8DFF850
:1051A0008C80DFF88C90234FDFF894A0267846B9E6
:1051B0002E70BDE8F08721462846BDE8F04701F093
:1051C000C1BC252E2DD1072241462046FCF742FDC9
:1051D00060B9194B2A4603F1100153F8040B42F849
:1051E000040B8B42F9D107341035DFE7082249461A
:1051F0002046FCF72FFDA0B9104BAA1C13F8011F85
:1052000009095345C95D02F8021C197801F00F0124
:1052100002F10202C95D02F8031CEFD1183508340F
:10522000C4E72E7001340135C0E700BFBC7200082E
:1052300035720008C4720008826C00080F7AFF1FE4
:105240001B7AFF1FBFF34F8F024AD368DB03FCD4E6
:10525000704700BF003C024008B5094B1B7873B98A
:10526000FFF7F0FF074B1A69002ABFBF064A5A60D2
:1052700002F188325A601A6822F480621A6008BD0E
:1052800046570020003C02402301674508B50B4B00
:105290001B7893B9FFF7D6FF094B1A6942F0004219
:1052A0001A611A6842F480521A601A6822F4805215
:1052B0001A601A6842F480621A6008BD46570020DE
:1052C000003C0240172870B513D80B4A0B4C1378DA
:1052D00063B90B4E4FF0006144F8231056F8235089
:1052E0000133182B2944F7D10123137054F82000FF
:1052F00070BD002070BD00BFA85700204857002097
:10530000D8720008014B53F820007047D87200088B
:1053100018207047172810B5044601D9002010BD89
:10532000FFF7D0FF064B53F824301844C21A0BB9CC
:10533000012010BD12680132F0D1043BF6E700BF36
:10534000D8720008172810B5044629D8FFF77AFF4D
:10535000FFF782FF1349F323CB600C23B0FBF3F27A
:1053600003FB1200D30143EAC003DBB243F4007332
:1053700043F002030B610B6943F480330B61FFF7C9
:1053800061FF2046FFF79EFF074B53F8241000F003
:1053900037F9FFF77BFF2046BDE81040FFF7BABFA3
:1053A000002010BD003C0240D87200082DE9F843EF
:1053B00012F00103154640D18218B2F1026F3CD2BF
:1053C0002C4B1B6813F0010337D02B4CFFF744FF25
:1053D000F323E360FFF736FF40F20127032D01D9E5
:1053E000830713D0244C0F46401A40F20118EB1BE0
:1053F0000B44012B00EB0706236924D823F001039B
:105400002361FFF743FF0120BDE8F883236923F4FC
:105410004073236123693B43236151F8046B0660A9
:10542000BFF34F8FFFF70EFF03689E4208D023693A
:1054300023F001032361FFF729FF0020BDE8F88373
:10544000043D0430CAE723F440732361236943EA2F
:1054500008032361B94637F8023B3380BFF34F8F0F
:10546000FFF7F0FE3688B9F80030B6B2B342BED0CE
:10547000DDE700BF00380240003C0240084908B5A3
:105480000B7828B153B9FFF7E7FE01230B7008BD75
:1054900023B1BDE808400870FFF7F8BE08BD00BFA3
:1054A0004657002008B54FF440314FF0005000F04F
:1054B000A9F84FF480314FF08050BDE8084000F06B
:1054C000A1B8000070B5FFF76FFC0E4E4FF080439F
:1054D000596A3368994210D20B4CD4E90023003248
:1054E00043F10103C4E90023541843F1000531607E
:1054F000FFF764FC2046294670BD034BD3E9002327
:10550000F2E700BFAC570020B0570020D0B5FFF73E
:105510004BFC4FF08042094B546A1A68944207D200
:10552000074AD2E90067003647F10107C2E9006780
:105530001C60FFF743FC2046D0BD00BFAC570020E5
:10554000B057002008B5FFF7BDFF4FF47A72002373
:10555000FAF762FE08BD00BF10B50244064B0439DD
:10556000D2B2904200D110BD441C00B253F82000CA
:1055700041F8040FE0B2F4E750280040104B30B57A
:105580001C6F240407D41C6F44F400741C671C6F48
:1055900044F400441C670B4C236843F4807323607D
:1055A0000244094B0439D2B2904200D130BD441CB0
:1055B00000B251F8045F43F82050E0B2F4E700BFB6
:1055C00000380240007000405028004007B501221A
:1055D00001A90020FFF7C0FF019803B05DF804FBAC
:1055E00013B50446FFF7F2FFA04206D002A901223C
:1055F00041F8044D0020FFF7C1FF02B010BD0000CC
:10560000704700007047000070470000034B1B68A4
:105610009B0042BF024B01221A707047743802404F
:10562000B8570020024B4FF080721A60704700BFDD
:1056300074380240014B1878704700BFB8570020FB
:1056400070470000FEE70000084A094B09498B42F9
:1056500004D3094A0021934205D3704752F8040F3E
:1056600043F8040BF3E743F8041BF4E7387500082C
:10567000445800204458002044580020836D30B521
:1056800000229D68446D11464FF0FF3004EB421339
:1056900001329542C3F80019C3F81019C3F808097C
:1056A000C3F8001BC3F8101BC3F8080BEED24FF071
:1056B0000113C4F81C3830BD890141F0200101619B
:1056C00003699B06FCD41220FFF788BB204B03EB39
:1056D00080022DE9F047D2F80CE05D6DDEF8142071
:1056E000461CD2F800C005EB063605EB40185168A1
:1056F00061450BD3D5F83428012303FA00F022EAE0
:105700000000C5F834081846BDE8F087BEF8104020
:10571000ACEB0103A34228BF2346D8F81849A4B232
:10572000B3EB840F10D894681F46A4F1040959F80C
:1057300004AFC6F800A0042F01D9043FF7E71C44CA
:105740000B4494605360D2E70020BDE8F08700BFAF
:10575000BC57002010B5054C2046FEF73DFF4FF02A
:10576000A0436365024BA36510BD00BFBC5700207A
:105770005C7300080378012B70B5054650D12A4BA5
:10578000446D98421BD1294B5A6B42F080025A63F8
:105790005A6D42F080025A655A6D5A6942F0800291
:1057A0005A615A6922F080025A610E2143205B69D6
:1057B000FEF77CFB1E4BE3601E4BC4F80038002351
:1057C000C4F8003EC02323606E6D4FF45023A363E2
:1057D0003369002BFCDA012333610C20FFF7FEFA5A
:1057E0003369DB07FCD41220FFF7F8FA3369002B8A
:1057F000FCDA0026A6602846FFF740FF6B68C4F875
:105800001068DB68C4F81468C4F81C684BB90A4B0C
:10581000A3614FF0FF336361A36843F00103A3600A
:1058200070BD064BF4E700BFBC57002000380240B3
:105830004014004003002002003C30C0083C30C04F
:10584000F8B5446D054600212046FFF735FFA96DE8
:1058500000234FF001128F68C4F834384FF000660F
:10586000C4F81C284FF0FF3004EB431201339F4271
:10587000C2F80069C2F8006BC2F80809C2F8080B48
:10588000F2D20B686A6DEB656362102313611669CF
:1058900016F01006FBD11220FFF7A0FAD4F800385A
:1058A00023F4FE63C4F80038A36943F4402343F0B3
:1058B0001003A3610923C4F81038C4F814380A4B44
:1058C000EB604FF0C043C4F8103B084BC4F8003BFA
:1058D000C4F81069C4F80039EB6D03F1100243F409
:1058E0008013EA65A362F8BD387300084080001099
:1058F000426D90F84E10D2F8003823F4FE6343EA6C
:105900000113C2F8003870472DE9F0410EB200EBE8
:1059100086080D46D8F80C100F6807F00303022B19
:1059200050D0032B50D03D4A3D4F012B18BF174696
:10593000446D4FEA451E04EB0E030022C3F8102B02
:105940008A6905F1100C002A40D04A8A05F15803F3
:105950005B013A43E2500123D4F81C2803FA0CF30C
:105960001343A6444A69C4F81C380023CEF8103902
:1059700005F13F03002A39D00A8A898B9208012950
:1059800088BF4A43C16D04EB8303561841EA0242C3
:10599000C66529465A602046FFF78EFED8F80C30BF
:1059A0001B8A43EA85531F4305F148035B01E75017
:1059B0000123D4F81C2803FA05F51543C4F81C5834
:1059C000BDE8F081174FB3E7174FB1E704EB46137B
:1059D000D3F8002B22F40042C3F8002BD4F81C2883
:1059E000012303FA0CF322EA0303BAE704EB83036F
:1059F0000E4A5A6004EB461629462046FFF75CFE25
:105A0000D6F8003923F40043C6F80039D4F81C381E
:105A1000012202FA05F523EA0505CFE70080001010
:105A2000008004100080081000800C1000040002A8
:105A3000826D1268C265FFF721BE00005831436DC8
:105A400049015B5813F4004004D013F4001F14BF45
:105A500001200220704700004831436D49015B5826
:105A600013F4004004D013F4001F14BF01200220DF
:105A70007047000000EB8101CB68196A0B68136066
:105A80004B6853607047000000EB810330B5DD6860
:105A9000AA691368D36019B9402B84BF40231360EF
:105AA0006B8A1468426D1C44013CB4FBF3F46343FD
:105AB000033323F0030302EB411043EAC44343F0F2
:105AC000C043C0F8103B2B6803F00303012B09B25D
:105AD0000ED1D2F8083802EB411013F4807FD0F8D1
